:020000040800F2
:1000000000000320BD2000086D1900086F190008CA
:100010007119000873190008751900080000000024
:100020000000000000000000000000007719000838
:1000300079190008000000007B1900087D190008EC
:100040000D2100080D2100080D2100080D210008D8
:100050000D2100080D2100080D2100080D210008C8
:100060000D2100080D2100080D2100080D210008B8
:100070000D2100080D2100080D2100080D210008A8
:100080000D2100080D2100080D2100088519000828
:10009000951900080D2100080D2100080D21000808
:1000A0000D2100080D2100080D2100080D21000878
:1000B0000D2100080D2100080D2100080D21000868
:1000C0000D2100080D2100080D2100080D21000858
:1000D0000D2100080D210008A5190008B519000818
:1000E0000D2100080D2100080D2100080D21000838
:1000F0000D2100080D2100080D2100080D21000828
:100100000D2100080D2100080D2100080D21000817
:100110000D2100080D210008C51900080D21000857
:100120000D2100080D2100080D2100080D210008F7
:100130000D2100080D2100080D2100080D210008E7
:100140000D2100080D2100080D210008D519000817
:100150000D2100080D2100080D210008E5190008F7
:100160000D2100080D2100080D2100080D210008B7
:100170000D2100080D2100080D21000800000000DD
:100180000D2100080D210008F5190008051A0008C6
:100190000D2100080D2100080D2100080D21000887
:0C01A00000000000000000000D2100081D
:1001C00010B5054C237833B9044B13B10448AFF391
:1001D00000800123237010BDEC0A00200000000005
:1001E000D005010808B5034B1BB103490348AFF321
:1001F000008008BD00000000F00A0020D0050108C2
:1002000081F0004102E000BF83F0004330B54FEAC7
:1002100041044FEA430594EA050F08BF90EA020F34
:100220001FBF54EA000C55EA020C7FEA645C7FEAC7
:10023000655C00F0E2804FEA5454D4EB5555B8BFEA
:100240006D420CDD2C4480EA020281EA030382EA5B
:10025000000083EA010180EA020281EA0303362DED
:1002600088BF30BD11F0004F4FEA01314FF4801CC0
:100270004CEA113102D0404261EB410113F0004FD2
:100280004FEA03334CEA133302D0524263EB430389
:1002900094EA050F00F0A780A4F10104D5F1200E27
:1002A0000DDB02FA0EFC22FA05F2801841F1000182
:1002B00003FA0EF2801843FA05F359410EE0A5F156
:1002C00020050EF1200E012A03FA0EFC28BF4CF087
:1002D000020C43FA05F3C01851EBE37101F000453D
:1002E00007D54FF0000EDCF1000C7EEB00006EEB4A
:1002F0000101B1F5801F1BD3B1F5001F0CD34908D4
:100300005FEA30004FEA3C0C04F101044FEA44522A
:1003100012F5800F80F09A80BCF1004F08BF5FEAB1
:10032000500C50F1000041EB045141EA050130BD91
:100330005FEA4C0C404141EB0101013C28BFB1F5A3
:10034000801FE9D291F0000F04BF01460020B1FAEE
:1003500081F308BF2033A3F10B03B3F120020CDAC1
:100360000C3208DD02F1140CC2F10C0201FA0CF09F
:1003700021FA02F10CE002F11402D8BFC2F1200C04
:1003800001FA02F120FA0CFCDCBF41EA0C019040BA
:10039000E41AA2BF01EB0451294330BD6FEA040403
:1003A0001F3C1CDA0C340EDC04F11404C4F12002EE
:1003B00020FA04F001FA02F340EA030021FA04F300
:1003C00045EA030130BDC4F10C04C4F1200220FA57
:1003D00002F001FA04F340EA0300294630BD21FA95
:1003E00004F0294630BD94F0000F83F4801306BF5B
:1003F00081F480110134013D4EE77FEA645C18BF4F
:100400007FEA655C29D094EA050F08BF90EA020FE5
:1004100005D054EA000C04BF1946104630BD91EADD
:10042000030F1EBF0021002030BD5FEA545C05D1E0
:100430004000494128BF41F0004130BD14F580041F
:100440003CBF01F5801130BD01F0004545F0FE4193
:1004500041F470014FF0000030BD7FEA645C1ABFC8
:10046000194610467FEA655C1CBF0B46024650EAFF
:10047000013406BF52EA033591EA030F41F400212B
:1004800030BD00BF90F0000F04BF0021704730B5B1
:100490004FF4806404F132044FF000054FF0000186
:1004A00050E700BF90F0000F04BF0021704730B547
:1004B0004FF4806404F1320410F0004548BF40421C
:1004C0004FF000013EE700BF42004FEAE2014FEA71
:1004D00031014FEA02701FBF12F07F4393F07F4F4C
:1004E00081F06051704732F07F4208BF704793F04F
:1004F0007F4F04BF41F40021704730B54FF4607462
:1005000001F0004521F000411CE700BF50EA010264
:1005100008BF704730B54FF000050AE050EA01020D
:1005200008BF704730B511F0004502D5404261EB7D
:1005300041014FF4806404F132045FEA915C3FF4BE
:10054000D8AE4FF003025FEADC0C18BF03325FEA5B
:10055000DC0C18BF033202EBDC02C2F1200300FA0C
:1005600003FC20FA02F001FA03FE40EA0E0021FA31
:1005700002F11444BDE600BF70B54FF0FF0C4CF41F
:10058000E06C1CEA11541DBF1CEA135594EA0C0FD1
:1005900095EA0C0F00F0DEF82C4481EA030621EA0C
:1005A0004C5123EA4C5350EA013518BF52EA033547
:1005B00041F4801143F4801338D0A0FB02CE4FF0F9
:1005C0000005E1FB02E506F00042E0FB03E54FF029
:1005D0000006E1FB03569CF0000F18BF4EF0010E21
:1005E000A4F1FF04B6F5007F64F5407404D25FEA1D
:1005F0004E0E6D4146EB060642EAC62141EA5551D0
:100600004FEAC52040EA5E504FEACE2EB4F1FD0C11
:1006100088BFBCF5E06F1ED8BEF1004F08BF5FEA8F
:10062000500E50F1000041EB045170BD06F0004641
:1006300046EA010140EA020081EA0301B4EB5C04EE
:10064000C2BFD4EB0C0541EA045170BD41F48011E6
:100650004FF0000E013C00F3AB8014F1360FDEBF0B
:10066000002001F0004170BDC4F10004203C35DAE7
:100670000C341BDC04F11404C4F1200500FA05F36A
:1006800020FA04F001FA05F240EA020001F000420B
:1006900021F0004110EBD37021FA04F642EB060181
:1006A0005EEA430E08BF20EAD37070BDC4F10C04AB
:1006B000C4F1200500FA04F320FA05F001FA04F26F
:1006C00040EA020001F0004110EBD37041F100015B
:1006D0005EEA430E08BF20EAD37070BDC4F1200566
:1006E00000FA05F24EEA020E20FA04F301FA05F2CE
:1006F00043EA020321FA04F001F0004121FA04F276
:1007000020EA020000EBD3705EEA430E08BF20EA45
:10071000D37070BD94F0000F0FD101F0004640007F
:1007200041EB010111F4801F08BF013CF7D041EA01
:10073000060195F0000F18BF704703F00046520005
:1007400043EB030313F4801F08BF013DF7D043EAD6
:100750000603704794EA0C0F0CEA135518BF95EA8C
:100760000C0F0CD050EA410618BF52EA4306D1D113
:1007700081EA030101F000414FF0000070BD50EA32
:10078000410606BF1046194652EA430619D094EABC
:100790000C0F02D150EA013613D195EA0C0F05D1A6
:1007A00052EA03361CBF104619460AD181EA0301FA
:1007B00001F0004141F0FE4141F470014FF00000B2
:1007C00070BD41F0FE4141F4780170BD70B54FF04D
:1007D000FF0C4CF4E06C1CEA11541DBF1CEA1355CD
:1007E00094EA0C0F95EA0C0F00F0A7F8A4EB0504AF
:1007F00081EA030E52EA03354FEA013100F08880A6
:100800004FEA03334FF0805545EA131343EA12636E
:100810004FEA022245EA111545EA10654FEA002623
:100820000EF000419D4208BF964244F1FD0404F5DC
:10083000407402D25B084FEA3202B61A65EB030538
:100840005B084FEA32024FF480104FF4002CB6EBF5
:10085000020E75EB030E22BFB61A754640EA0C0075
:100860005B084FEA3202B6EB020E75EB030E22BFB5
:10087000B61A754640EA5C005B084FEA3202B6EBF6
:10088000020E75EB030E22BFB61A754640EA9C00B5
:100890005B084FEA3202B6EB020E75EB030E22BF85
:1008A000B61A754640EADC0055EA060E18D04FEA43
:1008B000051545EA16754FEA06164FEAC30343EAE3
:1008C00052734FEAC2025FEA1C1CC0D111F4801FB0
:1008D0000BD141EA00014FF000004FF0004CB6E7A9
:1008E00011F4801F04BF01430020B4F1FD0C88BF48
:1008F000BCF5E06F3FF6AFAEB5EB030C04BFB6EB53
:10090000020C5FEA500C50F1000041EB045170BD45
:100910000EF0004E4EEA113114EB5C04C2BFD4EB72
:100920000C0541EA045170BD41F480114FF0000EF6
:10093000013C90E645EA060E8DE60CEA135594EA72
:100940000C0F08BF95EA0C0F3FF43BAF94EA0C0F75
:100950000AD150EA01347FF434AF95EA0C0F7FF4EA
:1009600025AF104619462CE795EA0C0F06D152EA3E
:1009700003353FF4FDAE1046194622E750EA410622
:1009800018BF52EA43067FF4C5AE50EA41047FF433
:100990000DAF52EA43057FF4EBAE12E74FF0FF3C98
:1009A00006E000BF4FF0010C02E000BF4FF0010C69
:1009B0004DF804CD4FEA410C7FEA6C5C4FEA430CE2
:1009C00018BF7FEA6C5C1BD001B050EA410C0CBF31
:1009D00052EA430C91EA030F02BF90EA020F002093
:1009E000704710F1000F91EA030F58BF994208BFFA
:1009F00090422CBFD8176FEAE37040F001007047B7
:100A00004FEA410C7FEA6C5C02D150EA013C07D10D
:100A10004FEA430C7FEA6C5CD6D152EA033CD3D058
:100A20005DF8040B704700BF8446104662468C4652
:100A30001946634600E000BF01B5FFF7B7FF002885
:100A400048BF10F1000F01BD4DF808EDFFF7F4FFAE
:100A50000CBF012000205DF808FB00BF4DF808ED39
:100A6000FFF7EAFF34BF012000205DF808FB00BF5C
:100A70004DF808EDFFF7E0FF94BF012000205DF87E
:100A800008FB00BF4DF808EDFFF7CEFF94BF012033
:100A900000205DF808FB00BF4DF808EDFFF7C4FF2C
:100AA00034BF012000205DF808FB00BF4FEA41027F
:100AB000B2F1E04324BFB3F5001CDCF1FE5C0DD9BC
:100AC00001F0004C4FEAC0024CEA5070B2F1004F06
:100AD00040EB830008BF20F00100704711F0804F09
:100AE00021D113F13872BCBF01F00040704741F4CE
:100AF00080114FEA5252C2F11802C2F1200C10FAD2
:100B00000CF320FA02F018BF40F001004FEAC123B5
:100B10004FEAD32303FA0CFC40EA0C0023FA02F359
:100B20004FEA4303CCE77FEA625307D150EA01332F
:100B30001EBF4FF0FE4040F44000704701F00040FF
:100B400040F0FE4040F40000704700BF80F00040DD
:100B500002E000BF81F0004142001FBF5FEA410395
:100B600092EA030F7FEA226C7FEA236C6AD04FEA95
:100B70001262D2EB1363C1BFD218414048404140DA
:100B8000B8BF5B42192B88BF704710F0004F40F48C
:100B9000000020F07F4018BF404211F0004F41F4A8
:100BA000000121F07F4118BF494292EA030F3FD074
:100BB000A2F1010241FA03FC10EB0C00C3F1200387
:100BC00001FA03F100F0004302D5494260EB400016
:100BD000B0F5000F13D3B0F1807F06D340084FEA81
:100BE000310102F10102FE2A51D2B1F1004F40EB76
:100BF000C25008BF20F0010040EA030070474900DE
:100C000040EB0000013A28BFB0F5000FEDD2B0FA7A
:100C100080FCACF1080CB2EB0C0200FA0CF0AABF9D
:100C200000EBC25052421843BCBFD040184370473B
:100C300092F0000F81F4000106BF80F40000013241
:100C4000013BB5E74FEA41037FEA226C18BF7FEA18
:100C5000236C21D092EA030F04D092F0000F08BF5A
:100C60000846704790EA010F1CBF0020704712F041
:100C70007F4F04D1400028BF40F00040704712F180
:100C800000723CBF00F50000704700F0004343F0E5
:100C9000FE4040F4000070477FEA226216BF08461B
:100CA0007FEA23630146420206BF5FEA412390EADE
:100CB000010F40F4800070474FF0000304E000BFD4
:100CC00010F0004348BF40425FEA000C08BF704785
:100CD00043F0964301464FF000001CE050EA010249
:100CE00008BF70474FF000030AE000BF50EA01025E
:100CF00008BF704711F0004302D5404261EB41014B
:100D00005FEA010C02BF84460146002043F0B6436F
:100D100008BFA3F18053A3F50003BCFA8CF2083A94
:100D2000A3EBC25310DB01FA02FC634400FA02FC9D
:100D3000C2F12002BCF1004F20FA02F243EB0200A4
:100D400008BF20F00100704702F1200201FA02FC06
:100D5000C2F1200250EA4C0021FA02F243EB0200F9
:100D600008BF20EADC7070474FEA4002B2F1FE4F44
:100D70000FD34FF09E03B3EB12620DD94FEA00235D
:100D800043F0004310F0004F23FA02F018BF404236
:100D900070474FF00000704712F1610F01D142021D
:100DA00005D110F0004008BF6FF0004070474FF0D1
:100DB0000000704753B94AB9002908BF00281CBF7A
:100DC0004FF0FF314FF0FF3000F074B9ADF1080C77
:100DD0006DE904CE00F006F8DDF804E0DDE9022359
:100DE00004B070472DE9F047089E0D46044688463A
:100DF000002B4DD18A42944668D9B2FA82F252B1A0
:100E000001FA02F3C2F1200120FA01F10CFA02FC0E
:100E100041EA030894404FEA1C45210CB8FBF5FE5B
:100E20001FFA8CF705FB1E8341EA03430EFB07F113
:100E300099420BD91CEB03030EF1FF3080F01E81A9
:100E4000994240F21B81AEF1020E63445B1AA4B2D8
:100E5000B3FBF5F005FB103344EA034400FB07F74E
:100E6000A7420AD91CEB040400F1FF3380F008818B
:100E7000A74240F2058164440238E41B40EA0E4078
:100E800000211EB1D4400023C6E90043BDE8F0872D
:100E90008B4208D9002E00F0EE800021C6E9000543
:100EA0000846BDE8F087B3FA83F100294AD1AB4286
:100EB00002D3824200F2F980841A65EB0303012019
:100EC0009846002EE2D0C6E90048DFE702B9FFDE0F
:100ED000B2FA82F2002A40F09180A1EB0C054FEAB1
:100EE0001C471FFA8CFE0121B5FBF7F307FB1350DB
:100EF000250C45EA00450EFB03F0A84208D91CEB7F
:100F0000050503F1FF3802D2A84200F2CB80434628
:100F10002D1AA4B2B5FBF7F007FB105544EA0544BF
:100F20000EFB00FEA64508D91CEB040400F1FF35BA
:100F300002D2A64500F2BB802846A4EB0E0440EA8C
:100F400003409EE7C1F120078B4022FA07FC4CEAE0
:100F5000030C20FA07F405FA01F31C43FD404FEAA5
:100F60001C4900FA01F3B5FBF9F8200C1FFA8CFEBE
:100F700009FB185540EA054508FB0EF0A84202FAA5
:100F800001F20BD91CEB050508F1FF3A80F08880CF
:100F9000A84240F28580A8F1020865442D1AA4B247
:100FA000B5FBF9F009FB105544EA054500FB0EFEC0
:100FB000AE4508D91CEB050500F1FF346CD2AE45F7
:100FC0006AD90238654440EA0840A0FB0294A5EBC8
:100FD0000E05A542C846A64656D353D05EB1B3EB24
:100FE000080265EB0E0505FA07F722FA01F3CD407A
:100FF0001F43C6E900750021BDE8F087C2F1200358
:1010000020FA03F10CFA02FC25FA03F395400D4394
:101010004FEA1C471FFA8CFEB3FBF7F107FB1130B8
:101020002B0C43EA004301FB0EF0984204FA02F451
:1010300008D91CEB030301F1FF382FD298422DD9B8
:10104000023963441B1AADB2B3FBF7F007FB103350
:1010500045EA034500FB0EF3AB4208D91CEB05053E
:1010600000F1FF3816D2AB4214D902386544ED1AAC
:1010700040EA014138E73146304607E78646E5E673
:101080001846FAE64B45A9D2B9EB020864EB0C0E00
:101090000138A3E74046EAE7204694E74146D1E716
:1010A000D0467BE7023B654432E7084609E76444E3
:1010B000023842E7704700BF844641EA000313F05C
:1010C00003036DD1403A41D351F8043B40F8043B4F
:1010D00051F8043B40F8043B51F8043B40F8043B12
:1010E00051F8043B40F8043B51F8043B40F8043B02
:1010F00051F8043B40F8043B51F8043B40F8043BF2
:1011000051F8043B40F8043B51F8043B40F8043BE1
:1011100051F8043B40F8043B51F8043B40F8043BD1
:1011200051F8043B40F8043B51F8043B40F8043BC1
:1011300051F8043B40F8043B51F8043B40F8043BB1
:1011400051F8043B40F8043B403ABDD2303211D351
:1011500051F8043B40F8043B51F8043B40F8043B91
:1011600051F8043B40F8043B51F8043B40F8043B81
:10117000103AEDD20C3205D351F8043B40F8043B51
:10118000043AF9D2043208D0D2071CBF11F8013B4F
:1011900000F8013B01D30B8803806046704700BF15
:1011A000082A13D38B078DD010F003038AD0C3F124
:1011B0000403D21ADB071CBF11F8013B00F8013B06
:1011C00080D331F8023B20F8023B7BE7043AD9D3C5
:1011D000013A11F8013B00F8013BF9D20B7803709A
:1011E0004B7843708B788370604670470000000036
:1011F00000000000000000000000000000000000EF
:1012000090F800F06DE9024520F007016FF0000C46
:1012100010F0070491F820F040F049804FF00004EE
:101220006FF00700D1E9002391F840F000F10800C9
:1012300082FA4CF2A4FA8CF283FA4CF3A2FA8CF301
:101240004BBBD1E9022382FA4CF200F10800A4FA68
:101250008CF283FA4CF3A2FA8CF3E3B9D1E90423BC
:1012600082FA4CF200F10800A4FA8CF283FA4CF3F3
:10127000A2FA8CF37BB9D1E9062301F1200182FAAD
:101280004CF200F10800A4FA8CF283FA4CF3A2FAB3
:101290008CF3002BC6D0002A04BF04301A4612BAC1
:1012A000B2FA82F2FDE8024500EBD2007047D1E9C4
:1012B000002304F00305C4F100004FEAC50514F053
:1012C000040F91F840F00CFA05F562EA05021CBF24
:1012D00063EA050362464FF00004A9E7000000003E
:1012E00001F0FF01102A2BDB10F0070F08D010F8D7
:1012F000013B013A8B422DD010F0070F42B3F6D1DB
:10130000F0B441EA012141EA014122F007047FF0F3
:1013100000070023F0E80256083C85EA010586EA4A
:10132000010685FA47F5A3FA87F586FA47F6A5FA86
:1013300087F68EB9EED1F0BC01F0FF0102F0070292
:1013400032B110F8013B013A83EA010313B1F8D13D
:101350000020704701387047002D06BF354603381E
:10136000073815F0010F07D1013015F4807F02BF57
:10137000013015F4C03F0130F0BC0138704700BFA8
:101380004FEA410C7FEA6C5C02D150EA013C0AD181
:101390004FEA430C7FEA6C5C02D152EA033C02D173
:1013A0004FF0000070474FF0010070474FEA4102D4
:1013B00012F5001215D211D56FF47873B3EB6252A7
:1013C00012D94FEAC12343F0004343EA505311F0CE
:1013D000004F23FA02F018BF404270474FF0000060
:1013E000704750EA013005D111F0004008BF6FF09E
:1013F000004070474FF00000704700BF4A0011D214
:1014000012F5001211D20DD56FF47873B3EB62525E
:101410000ED44FEAC12343F0004343EA505323FA6A
:1014200002F070474FF00000704750EA013002D1DF
:101430004FF0FF3070474FF00000704738B5054659
:101440000C462846214600220023FFF707FB28B957
:1014500028462146BDE8384000F00AB8284604F185
:10146000004100F005F8404261EB410138BD00BF8A
:10147000D0B50C4B002206460F46FFF77DF8FFF76C
:10148000BDFF0446FEF7FEFF074B0022FFF774F88E
:1014900002460B4630463946FEF7B6FEFFF7AEFF72
:1014A0002146D0BD0000F03D0000F041F8B50446F3
:1014B0000E46478987810B784D7845EA032545819B
:1014C0008A78CB7843EA022303800B79487940EA93
:1014D000032000B2FFF7F4FB6060B3792376EF1BC3
:1014E000B7F5805F09DD2369013B2361236905EBC3
:1014F0004335E389ED1A6561F8BD17F5805FF5DACC
:10150000236901332361F1E7104B01221A7002684D
:101510000F4B9A4200D0704700B58BB001AB03AAC5
:10152000002100F0CDFF094B00221A709DF80C003D
:101530000138C0B2C0EBC00001A9064B03EB80002C
:10154000FFF7B4FF0BB05DF804FB00BF080B0020F1
:10155000006400400C0B002010B58AB01D481E4BE3
:1015600003600323436000238360C3604FF4C02201
:1015700002614FF4A0024261037643768376C3761C
:101580000377437700F02AFED8B90122089200239E
:101590000693079200930193029303930593049398
:1015A00009930C4C6946204600F0BEFE204600F030
:1015B00059FF48B90221074801F037F838B90AB095
:1015C00010BD00F0C3F8E0E700F0C0F8F2E700F06B
:1015D000BDF8F4E77C0B00200064004010B588B033
:1015E00000230393049305930693079302681C4B0F
:1015F0009A4201D008B010BD0024019403F5EA33EB
:101600001A6C42F000721A641A6C02F000720192B5
:10161000019A02941A6B42F008021A631B6B03F0E2
:1016200008030293029B032303930222049206936E
:101630000923079303A90B4801F004FA224601216C
:10164000132001F047F9132001F07CF92246012113
:10165000142001F03FF9142001F074F9CAE700BF2B
:1016600000640040000C024030B58DB000240794A7
:10167000089409940A940B940194284B1A6B42F035
:1016800010021A631A6B02F010020192019A02947E
:101690001A6B42F040021A631A6B02F04002029287
:1016A000029A03941A6B42F001021A631A6B02F059
:1016B00001020392039A04941A6B42F008021A631F
:1016C0001A6B02F008020492049A05941A6B42F015
:1016D00080021A631A6B02F080020592059A069442
:1016E0001A6B42F020021A631B6B03F0200306936F
:1016F000069B0B4D22464FF4FF71284601F0A0FADD
:101700004FF4FF73079301230893022309930A946C
:1017100007A9284601F096F90DB030BD0038024007
:101720000018024008B501228188006801F088FA9B
:1017300008BD08B500228188006801F081FA08BD63
:1017400008B58188006801F081FA08BD72B6FEE72D
:1017500000B595B03022002108A805F06DFA0023ED
:10176000039304930593069307930193204A116C06
:1017700041F080511164126C02F080520192019A82
:1017800002931C4B1A6842F440421A601B6803F42F
:1017900040430293029B012308934FF48033099343
:1017A00002230E934FF480020F9206221092A82279
:1017B000119212930723139308A802F089F898B99D
:1017C0000F23039302230493002305934FF4A053A4
:1017D00006934FF480530793052103A802F0C6FA3D
:1017E00020B915B05DF804FBFFF7B0FFFFF7AEFFBF
:1017F000003802400070004008B500F0AFFCFFF771
:10180000A7FFFFF731FF00F04DFA04F089FF00F069
:1018100037F8FFF7A1FE00F05DF900F065FB144C0E
:101820002046FFF786FF04F11000FFF782FF04F166
:101830002000FFF77EFF04F13000FFF77AFF04F18C
:101840000800FFF76FFF04F11800FFF76BFF04F1CA
:101850002800FFF767FF04F13800FFF763FF054832
:1018600002F0BAFB0449054800F050FBFEE700BF58
:1018700000000020040C0020E80501084C0C0020AA
:1018800008B50E480E4B03604FF48273436000238B
:101890008360C360036143614FF400728261302250
:1018A000C2610362436283620A23C36202F034FBB3
:1018B00000B908BDFFF74AFFFBE700BFA40B0020FB
:1018C0000050014000B589B00023039304930593B1
:1018D000069307930268154B9A4202D009B05DF84F
:1018E00004FB0021019103F568435A6C42F4801215
:1018F0005A645A6C02F480120192019A02911A6B96
:1019000042F020021A631B6B03F020030293029B38
:101910004FF4707303930223049303230693052368
:10192000079303A9024801F08DF8D7E70050014062
:101930000014024082B0002100910B4B5A6C42F41B
:1019400080425A645A6C02F480420092009A0191DB
:101950001A6C42F080521A641B6C03F0805301939E
:10196000019B02B0704700BF00380240FEE7FEE76F
:10197000FEE7FEE7FEE770477047704708B500F0E6
:1019800007FC08BD08B5024800F06DFE08BD00BFA9
:101990007C0B002008B5024800F065FE08BD00BFC2
:1019A0007C0B002008B5024802F03AFF08BD00BFDA
:1019B0004C0C002008B5024802F032FF08BD00BF01
:1019C000940C002008B5024802F04EFB08BD00BF91
:1019D000040C002008B5024801F071FC08BD00BFEE
:1019E000D825002008B5024802F01AFF08BD00BF44
:1019F000DC0C002008B5024802F012FF08BD00BF51
:101A0000240D002008B5024802F00AFF08BD00BFFF
:101A10006C0D00200120704708B505F0E3F816238F
:101A200003604FF0FF3008BD08B54FF0FF31FFF7FE
:101A3000F3FFFEE770B50C461646002506E0AFF34F
:101A40000080214601F8010B01350C46B542F6DB5A
:101A5000304670BD70B50C461646002504E014F8FB
:101A6000010BAFF300800135B542F8DB304670BDA5
:101A70004FF0FF3070474FF400534B600020704729
:101A8000012070470020704710B503460C4A0D49ED
:101A90000D48006840B10C4800680344521A934254
:101AA00006D8094A136010BD0748084C0460F2E7E5
:101AB00005F098F80C2303604FF0FF30F3E700BF08
:101AC0000000032000040000FC0B0020282D002053
:101AD0007047000000B583B00023009301930F48C6
:101AE0000F4A0260A7224260836040F6C312C260C0
:101AF000836102F0D5FB50B900230093019369463E
:101B0000064802F0F9FB28B903B05DF804FBFFF7C3
:101B10001DFEF1E7FFF71AFEF6E700BF040C0020F8
:101B20000010004002680E4B9A4200D0704700B58A
:101B300083B00022019203F50A33196C41F01001C1
:101B400019641B6C03F010030193019B02213620E2
:101B500000F0C0FE362000F0F5FE03B05DF804FB97
:101B6000001000400268494B9A4200D070472DE9AE
:101B7000F04F9FB000F030FA454C2388013303F05A
:101B8000010348BF5B422380424BB3F9002012920D
:101B9000B3F91C101391B3F938001490B3F95450F1
:101BA0001595B3F902601696B3F91E701797B3F93D
:101BB0003AC0CDF860C0B3F956E0CDF864E0B3F8B0
:101BC0000A80CDF86880B3F82690CDF86C90B3F811
:101BD00042A0CDF870A0B3F85EB0CDF874B09D8986
:101BE0001E8DB3F84470B3F86080D3F80490D3F836
:101BF00020A0D3F83CB0986DFFF7B6F81190584686
:101C0000FFF7B2F810905046FFF7AEF80F90484635
:101C1000FFF7AAF80E90CDF834800C970B960A9532
:101C2000DDF874B0CDF824B0DDF870A0CDF820A0B8
:101C3000DDF86C90CDF81C90DDF86880CDF8188048
:101C4000DDF864E0CDF814E0DDF860C0CDF810C038
:101C5000179F0397169E0296159D01951498009064
:101C6000139B129A0C490D4800F050F92388012B60
:101C700003D033B11FB0BDE8F08F0948FFF759FD1D
:101C8000F8E70748FFF74EFDF4E700BF00100040FB
:101C9000000C00200C0B0020180601084C0C002042
:101CA0000000002008B50A480A4B03604FF41653A1
:101CB000436000238360C36003610C22426183613F
:101CC000C36102F08CFC00B908BDFFF73FFDFBE7E4
:101CD0004C0C00200044004030B591B000230B9321
:101CE0000C930D930E930F930368764A93420FD093
:101CF000754A934238D0754A93425FD0744A9342F2
:101D000000F08780734A934200F0AF8011B030BD7D
:101D100000240194704B1A6C42F080421A641A6CD1
:101D200002F080420192019A02941A6B42F0100272
:101D30001A631B6B03F010030293029B4FF4C073F2
:101D40000B9302230C9303230E9308230F930BA9E9
:101D5000624800F077FE22460421522000F0BAFDCE
:101D6000522000F0EFFDD1E7002403945A4B1A6C87
:101D700042F000421A641A6C02F000420392039A85
:101D800004941A6B42F010021A631B6B03F01003E9
:101D90000493049B03230B9302220C920E930823BB
:101DA0000F930BA94D4800F04DFE2246052153200C
:101DB00000F090FD532000F0C5FDA7E70024059436
:101DC000454B1A6C42F400321A641A6C02F4003269
:101DD0000592059A06941A6B42F008021A631B6B6F
:101DE00003F008030693069B60230B9302230C93D6
:101DF00003230E9307230F930BA9394800F022FE0B
:101E000022460121262000F065FD262000F09AFDE3
:101E10007CE700240794304B1A6C42F480221A6449
:101E20001A6C02F480220792079A08941A6B42F007
:101E300008021A631B6B03F008030893089B4FF416
:101E400040730B9302250C9503230E9307230F93E6
:101E50000BA9234800F0F6FD22462946272000F072
:101E600039FD272000F06EFD50E7002409941A4B3D
:101E70005A6C42F020025A645A6C02F02002099215
:101E8000099A0A941A6B42F040021A631B6B03F022
:101E900040030A930A9B4FF484430B9302230C9351
:101EA00003250E9508230F930BA90E4800F0CAFDD9
:101EB00022462946472000F00DFD472000F042FD54
:101EC00024E700BF00780040007C00400044004050
:101ED0000048004000140140003802400010024059
:101EE000000C02400018024008B5012202490348D4
:101EF00002F0F5FD08BD00BF8C0E00204C0C002048
:101F000008B54FF6FF7302F09AFB08BD0EB430B56A
:101F100082B0044605AA52F8041B0192084D2846D7
:101F200006F0D4FA2846FFF76BF982B2294620461C
:101F3000FFF7E6FF02B0BDE8304003B0704700BFD6
:101F4000900E002038B502681E4B9A4200D038BD72
:101F500004461D4B93F8C930CBB91B4A92F8C820F0
:101F60005B2A05D001221949204602F0B8FDEEE7B0
:101F70001549002081F8CA00012081F8CA000A70C2
:101F8000034481F8C9301248FFF7DAFBEAE7012B76
:101F9000E8D10D4B93F8CA00421CD2B283F8CA2094
:101FA00093F8C81019545D29DCD11D46531C85F8DF
:101FB000CA300023AB540748FFF7C2FBFF2385F864
:101FC000C930CFE700440040C40D00208C0E002033
:101FD0001000002008000020144B93F8C930FF2B9C
:101FE00000D0704730B583B0114C104D04F10C0394
:101FF000019304F108030093231D22460D4928464E
:1020000004F06CFEB4F900200B4B5A80B4F90420A4
:10201000DA83B4F908205A87B4F90C20A3F85620C3
:10202000002385F8C93003B030BD00BFC40D0020C7
:10203000B40D0020980601080C0B002000238B42F1
:1020400039D210B504E0012A1BD001338B4231D2C2
:1020500010F803C0184A92F89021002AF3D1BCF17D
:10206000280FF2D1144C4FF0000E84F891E14FF09C
:10207000010E84F891E184F800C0724484F8902144
:10208000E3E70D4C94F891E10EF10102D2B284F82D
:10209000912104F80EC0BCF1290FD6D102F1010C38
:1020A00084F891C14FF0000C04F802C0FF2284F8BC
:1020B0009021CAE710BD7047580F0020DFF834D0D8
:1020C000FFF706FD0C480D490D4A002302E0D458E5
:1020D000C4500433C4188C42F9D30A4A0A4C002372
:1020E00001E013600432A242FBD304F081FDFFF74C
:1020F00083FB70470000032000000020EC0A002052
:10210000280D0108EC0A0020242D0020FEE7000025
:1021100010B504460E4B18784FF47A73B3FBF0F306
:102120000C4A1068B0FBF3F000F01AFC68B90F2CF1
:1021300001D901200AE0002221464FF0FF3000F0D3
:10214000C9FB054B1C60002000E0012010BD00BF52
:1021500044000020400000204800002008B50B4B40
:102160001A6842F400721A601A6842F480621A60B7
:102170001A6842F480721A60032000F099FB0F2065
:10218000FFF7C6FFFFF7D6FB002008BD003C02406A
:10219000034A1168034B1B780B441360704700BF60
:1021A000EC10002044000020014B1868704700BF6D
:1021B000EC10002038B50446FFF7F6FF0546B4F1F1
:1021C000FF3F02D0044B1B781C44FFF7EDFF401B80
:1021D000A042FAD338BD00BF44000020002800F020
:1021E000A18038B5044690F82030D3B12268136836
:1021F00043F001031360FFF7D7FF054623685A68D1
:1022000012F0010F10D1FFF7CFFF401B0A28F5D9BC
:10221000636A43F400336362052384F820300120AD
:1022200038BDFFF7DBF9E1E71A6822F002021A6015
:10223000FFF7BAFF054623685A6812F0020F0DD067
:10224000FFF7B2FF401B0A28F5D9636A43F4003355
:102250006362052384F820300120E1E7227E012A11
:102260003DD01A6822F080021A60637E012B3BD0B9
:102270002268136823F040031360A37E012B39D03A
:102280002268136823F020031360E37E012B37D00C
:102290002268136843F010031360237F012B35D0AD
:1022A0002268136823F008031360637F012B33D087
:1022B0002268136823F004031360A368E2681343E1
:1022C00022691343626913436268013A2168134328
:1022D000CB6100206062012384F82030A0E71A68F7
:1022E00042F080021A60C0E72268136843F040039E
:1022F0001360C2E72268136843F020031360C4E749
:102300002268136823F010031360C6E7226813687D
:1023100043F008031360C8E72268136843F004031E
:102320001360CAE70120704790F82030013BDBB210
:10233000012B05D9436A43F480234362012070478F
:1023400010B5474BD3F8002242F00102C3F8002237
:10235000D3F8002222F47C52C3F80022D3F80022E2
:10236000486A42EA0022C3F800224A6902F01F02CA
:10237000012000FA02F2D3F81C026FEA020C20EAF4
:102380000200C3F81C02CB69CBB9354BD3F80C0261
:102390000CEA0000C3F80C028C884869D1F80CE004
:1023A00044EA0E44483043F830408C68088840EADC
:1023B00004404C6904F1480E03EBCE035860CB692E
:1023C000012B1ED08B69002B35D12548D0F8043263
:1023D0000CEA0303C0F804320B699BBB2048D0F819
:1023E00014320CEA0303C0F814320B6A012B30D00C
:1023F0001B4AD2F8003223F00103C2F80032002059
:1024000010BD174BD3F80C021043C3F80C028C8894
:102410004869D1F800E044EA0E44483043F83040BF
:1024200088894C69D1F808E040EA0E40483403EB53
:10243000C4035860C6E70A48D0F804321343C0F812
:102440000432C9E70648D0F814321343C0F81432F6
:10245000CBE70349D1F81C321A43C1F81C22C7E765
:102460000064004070B5044690F82050EDB2012D94
:1024700006D0436A43F4002343620125284670BD19
:10248000022380F820300268136823F001031360F0
:10249000FFF78AFE064623685B6813F0010F0CD035
:1024A000FFF782FE831B0A2BF5D9636A43F40033DE
:1024B0006362052384F82030E0E700256562DDE7EC
:1024C00090F820C00CF1FF3C5FFA8CFCBCF1010FCE
:1024D00000F2A58030B451B90468E46814F0030F29
:1024E00010D1436A43F40013436201207EE0046884
:1024F000246914F0030F05D1436A43F400134362C7
:10250000012073E0056801F11B0424012C5904F03B
:1025100004049460002C6BD1056801F11B042401B4
:102520002C59640D1460046801F11B0C4FEA0C1C5B
:1025300054F80C4004F00204D4600468A444DCF8AD
:10254000045015F0080F5BD008241461056801F1F0
:102550001B0C05EB0C156D68C5F307259561046828
:1025600004EB0C146468240C5461026802EB011241
:10257000D2F8B8211A70026802EB0112D2F8B82121
:10258000C2F307225A70026802EB0112D2F8B82196
:10259000C2F307429A70026802EB0112D2F8B82126
:1025A000120EDA70026802EB0112D2F8BC211A7125
:1025B000026802EB0112D2F8BC21C2F307225A7161
:1025C000026802EB0112D2F8BC21C2F307429A71F1
:1025D000026802EB0112D2F8BC21120EDA71C1B905
:1025E0000268D36843F02003D360002030BC7047FA
:1025F000056801F11B0424012C59E408546092E79A
:1026000001F11B0504EB0514646804F00F04146168
:102610009CE70268136943F020031361E5E7436A0E
:1026200043F4802343620120704790F82030013B3F
:10263000DBB2012B05D9436A43F4802343620120B6
:102640007047026853691943516100207047704711
:1026500070477047704770477047704770477047C2
:102660007047704770472DE9F84F054603685C696D
:10267000D3F804809F68D3F80CB0D3F810A0D3F837
:10268000189014F001063BD017F0010616D0012275
:102690009A6017F0020F08D117F0040F0CD117F051
:1026A000080606D04FF4805608E0FFF7D0FF00265A
:1026B00004E0FFF7CFFF01E04FF4006617F4807FDE
:1026C0000DD02B684FF480729A6017F4007F40F0B1
:1026D000868017F4806F00F0868046F4005617F469
:1026E000803F0DD02B684FF480329A6017F4003F82
:1026F00040F0838017F4802F00F0838046F400467A
:1027000014F0080F07D01BF0100F04D046F4007629
:102710002B681022DA6014F0040F02D01BF0080FAF
:1027200079D114F0020F04D02B68DB6813F0030F8B
:1027300078D114F0400F07D01AF0100F04D046F4EF
:1027400080662B6810221A6114F0200F02D01AF054
:10275000080F6BD114F0100F04D02B681B6913F015
:10276000030F6AD114F4003F02D018F0100F68D1A3
:1027700014F4803F02D018F0080F69D114F4004F10
:102780007AD018F0040F74D014F4807F04D019F0BC
:10279000010F01D046F0010614F4007F04D019F0B7
:1027A000020F01D046F0020614F4806F04D019F035
:1027B000040F01D046F0040614F4006F59D019F04C
:1027C000700956D0B9F1400F65D058D8B9F1200F33
:1027D0005ED0B9F1300F42D146F0200644E02846E1
:1027E000FFF736FF7BE717F4006F02D046F4804610
:1027F00075E72846FFF72FFF71E72846FFF729FF07
:102800007EE717F4002F02D046F4803678E728469A
:10281000FFF722FF74E72B680822DA602846FFF7EB
:102820001CFF7EE72846FEF76FFE82E72B68082232
:102830001A612846FFF713FF8CE72846FFF70EFFC3
:1028400090E72B6810225A602846FFF709FF8FE7B0
:102850002B6808225A602846FFF703FF8EE7B9F17C
:10286000100F01D146F008062A68936923F070031F
:1028700093612B6804225A609EB9BDE8F88FB9F1C4
:10288000500F0BD0B9F1600FEED146F48076EBE734
:1028900046F01006E8E746F04006E5E746F0800619
:1028A000E2E76B6A1E436E622846FFF7DBFEE4E751
:1028B000074AD36823F4E0631B041B0C000200F4F6
:1028C000E060034343F0BF6343F40033D3607047D9
:1028D00000ED00E000B5194BDB68C3F30223C3F140
:1028E000070CBCF1040F28BF4FF0040C03F1040ED9
:1028F000BEF1060F18D9033B4FF0FF3E0EFA0CFC59
:1029000021EA0C0199400EFA03F322EA030319436A
:1029100000280BDB0901C9B200F1604000F56140FD
:1029200080F800135DF804FB0023E5E700F00F00DA
:102930000901C9B2024B1954F4E700BF00ED00E0F1
:1029400014ED00E0002807DB00F01F02400901231E
:102950009340024A42F82030704700BF00E100E097
:102960000138B0F1807F0BD24FF0E0235861054A67
:10297000F02182F823100020986107221A61704725
:102980000120704700ED00E070B50446866DFFF74A
:102990000BFC94F83530DBB2022B06D08023636544
:1029A000002384F83430012070BD05462268136886
:1029B00023F0160313602268536923F080035361E8
:1029C000236CE3B12268136823F0080313602268C4
:1029D000136823F00103136023681B6813F0010FD1
:1029E00011D0FFF7E1FB431B052BF5D920236365CD
:1029F000032084F83500002384F83430D4E7A36C36
:102A0000002BDFD1E3E7E26D3F239340B360012366
:102A100084F83530002084F83400C5E790F835306C
:102A2000DBB2022B03D080234365012070470523CE
:102A300080F835300268136823F00103136000202A
:102A40007047000000230F2B00F2F18070B582B0B8
:102A500061E085685E000324B44025EA0405CC6883
:102A6000B4402C438460456825EA02054C68C4F3F1
:102A700000129A402A4342605BE0DC08083450F8B8
:102A8000246003F0070295000F22AA4026EA020EF6
:102A90000A69AA4042EA0E0240F824205DE00922B9
:102AA00000E0002202FA0EF22A430234604D45F89B
:102AB0002420604A94686FEA0C0224EA0C054E68F0
:102AC00016F4801F01D04CEA04055A4CA560E46856
:102AD00002EA04054E6816F4001F01D04CEA040512
:102AE000544CE560646802EA04054E6816F4003F41
:102AF00001D04CEA04054F4C6560246822404D68C3
:102B000015F4803F01D04CEA04024A4C22600133A4
:102B10000F2B00F28A8001229A400C6804EA020C12
:102B200032EA0404F3D14C6804F00304013C012CA4
:102B30008FD94A6802F00302032A09D0C4685D00F5
:102B40000322AA4024EA02048A68AA402243C260FF
:102B50004A6802F00302022A8FD004684FEA430E4B
:102B6000032202FA0EF224EA02044A6802F0030287
:102B700002FA0EF2224302604A6812F4403FC6D0C5
:102B8000002201922C4A546C44F480445464526CE8
:102B900002F480420192019A9C08A51C244A52F832
:102BA000255003F003024FEA820E0F2202FA0EF2C2
:102BB00025EA0205214A90423FF473AF02F5806294
:102BC000904222D002F58062904220D002F58062CD
:102BD00090421ED002F5806290421CD002F58062C5
:102BE00090421AD002F58062904218D002F58062BD
:102BF000904216D002F58062904214D002F58062B5
:102C000090423FF44CAF0A224CE701224AE70222ED
:102C100048E7032246E7042244E7052242E706226A
:102C200040E707223EE708223CE702B070BD70474C
:102C300000380140003C01400038024000000240E2
:102C40000AB181617047090481617047436901EAF3
:102C5000030221EA030141EA0241816170472DE943
:102C6000F04383B0D0F8008001EBC10300EB830395
:102C70009A6A5B6A9A4254D807460C469B1A01EB43
:102C8000C10200EB8202D2699A4200D31A4602F1D5
:102C900003094FEA990915E006F103094FEA99097A
:102CA000BB7904EBC40507EB8505296A0093B3B231
:102CB000E2B2404602F05AFA2B6A33442B62AB6A06
:102CC0003344AB6208EB441303F510639B699BB27A
:102CD0004B4512D304EBC40207EB8202916A536A9C
:102CE00099420AD24BB15B1A04EBC40207EB820291
:102CF000D6699E42D0D31E46CEE704EBC40007EB54
:102D000080077A6ABB6A9A420FD804F00F04012345
:102D1000A340D8F8344824EA0304C8F83448002013
:102D200000E0012003B0BDE8F0830020FAE730B5F1
:102D300083B000287AD00446056890F89534C3B172
:102D4000032384F89534B5F1A04F17D0206801F023
:102D5000BFFF237C8DF80030231D0ECB206801F0CF
:102D6000F6FE70B1022384F895340125284603B09D
:102D700030BD80F8943403F0E1FDE1E70023A37156
:102D8000E4E70021206802F012FC024608B903467D
:102D900017E0022384F895340125E7E703EBC3012C
:102DA00004EB8101012048750B75CB850020087666
:102DB000C861086203EBC30104EB8101486201337F
:102DC000DBB220799842E9D816E002EBC20304EBAB
:102DD0008303002183F8551283F8542283F8581294
:102DE000C3F85C12C3F8601202EBC20304EB830366
:102DF000C3F864120132D2B29042E6D8237C8DF837
:102E00000030231D0ECB206801F0B8FF054620B12D
:102E1000022384F895340125A8E700236374012375
:102E200084F89534206802F080FB9FE701259DE738
:102E3000036890F89424012A1AD010B504460122A0
:102E400080F89424DA6812F0400F02D0427B012A05
:102E500009D0206801F036FF206802F058FB0020FE
:102E600084F8940410BD9A6B42F480329A63F0E7C0
:102E70000220704770B504460D460068066C00EBF2
:102E8000411303F530639A68A179012911D03849BB
:102E90008E4256D03DB905EBC50304EB8303D3F84E
:102EA0006432002B5ED0E9B2204603F091FD002091
:102EB00070BD12F0080F09D02E498E42F7D912F4D6
:102EC000004FF4D04FF400429A60F0E712F0200F68
:102ED00002D020229A60EAE712F0280FE7D12549B4
:102EE0008E4206D912F4004F03D04FF400429A608C
:102EF000DDE705EBC50204EB8202D2F874121B6910
:102F0000C3F31203CB1AC2F868327DB905EBC502D0
:102F100004EB8202D2F864226AB105EBC50204EB2D
:102F20008202D2F860120B44C2F86032E9B2204645
:102F300003F04EFDBBE704F29C42012102F078FB56
:102F4000F4E712F4004F03D04FF400429A60AEE76A
:102F500012F0200F01D020229A60E9B2204603F03F
:102F600037FDA4E704F29C42002102F061FB9AE7DE
:102F70000A31544F0A30544F38B5044603681D6C6B
:102F800003EB4113D3F8081B0E4A954207D903F50A
:102F9000306311F4004F02D04FF400429A60204693
:102FA00003F00EFD074B9D4202D9A379012B01D0FE
:102FB000002038BD04F29C420121206802F038FB59
:102FC000F6E700BF0A30544F90F89434012B0CD030
:102FD00010B50446012380F894344174006802F06F
:102FE00086FA002084F8940410BD0220704738B59A
:102FF00005468C4611F0800F2BD101F00F0E0EEB21
:10300000CE04A40004F514740444211D0EEBCE0E6E
:1030100000EB8E0E00208EF855020CF00F0C81F89C
:1030200000C0C2F30A028A600B714A780AB1A1F8A3
:103030001AC0022B1CD095F89434012B1BD001230D
:1030400085F89434286801F074FF002085F8940412
:1030500038BD01F00F0000EBC00189001031294498
:10306000043100EBC00005EB800001244475D4E777
:1030700000234B71DFE70220EAE710B504460A4659
:1030800011F0800F20D101F00F0000EBC0039B0076
:1030900003F514732344191D00EBC00004EB8000FA
:1030A000002380F8553202F00F020A7094F894342D
:1030B000012B18D0012384F89434206801F088FF94
:1030C000002084F8940410BD01F00F0000EBC00351
:1030D0009B0010332344191D00EBC00004EB80005B
:1030E00001234375DFE70220EDE710B5144601F038
:1030F0000F0C0CEBCC01890001F514710144043173
:103100000CEBCC0E00EB8E0ECEF86022CEF86432C3
:103110000023CEF868328EF855328EF854C2827988
:10312000012A04D0006802F039F8002010BDCEF862
:103130007042F7E701F00F0101EBC10100EB8101E3
:10314000D1F86802704710B5144601F00F0C0CEB73
:10315000CC0189001031014404310CEBCC0E00EBA2
:103160008E0ECEF82020CEF824300023CEF8283062
:1031700001238EF815308EF814C082799A4204D05B
:10318000006802F00BF8002010BDCEF83040F7E7E1
:1031900038B501F00F050279AA4238D304460B4630
:1031A00011F0800F1FD101EBC101890001F51471ED
:1031B0000144043103EBC30300EB8303002283F8D3
:1031C000552201238B700D7094F89434012B20D07C
:1031D000012384F89434206802F02EF985B1002090
:1031E00084F8940438BD05EBC50189001031014411
:1031F000043105EBC50300EB830301225A75E0E7B8
:1032000004F29C42A179206802F012FAE7E701205B
:10321000E8E70220E6E701F00F0302799A4230D393
:1032200010B5044611F0800F1ED103EBC3018900D5
:1032300001F514710144043103EBC30200EB820277
:10324000002082F8550200228A700B7094F89434A2
:10325000012B18D0012384F89434206802F019F966
:10326000002084F8940410BD03EBC30189001031E1
:103270000144043103EBC30200EB820201205075CC
:10328000E1E7012070470220EDE708B511F0800F5B
:103290000CD101F00F0101EBC101890001F514719E
:1032A00001440431006801F003FF08BD01F00F0183
:1032B00001EBC1018900103101440431F2E72DE92D
:1032C000F04F83B004460568284602F06CF910B14F
:1032D00003B0BDE8F08F0646206802F034F90028FC
:1032E000F6D005F50067BB68C3F30D23C4F8D434EA
:1032F000206802F028F910F0020F04D02268536908
:1033000003F002035361206802F01DF910F0100F62
:1033100013D02268936923F010039361D5F82080BD
:1033200008F00F09C8F34343022B4BD0062B6FD094
:103330002268936943F010039361206802F003F957
:1033400010F4002F76D1206802F0FDF810F4802FE1
:1033500040F0E080206802F0F6F80028C0F26181B9
:10336000206802F0F0F810F4006F09D0BB6813F089
:10337000010F40F06E812268536903F400635361CA
:10338000206802F0E0F810F4805F40F06681206869
:1033900002F0D9F810F4005F40F0B381206802F029
:1033A000D2F810F0080F40F0C481206802F0CBF88A
:1033B00010F0800F00F0D781AB6923F08003AB6180
:1033C0000126C0E147F6F07318EA030FB0D04FEAC8
:1033D000181B4FEAC903019309EBC90A04EB8A0AD7
:1033E000C8F30A12DAF86012284601F0FBFFCBF3AB
:1033F0000A0BDAF860325B44CAF86032019B4B4436
:1034000004EB8303D3F868325B44CAF868328FE771
:10341000082204F29C41284601F0E4FFC8F30A1890
:1034200009EBC90204EB8202D2F868324344C2F8C5
:1034300068327DE7206802F08AF88046B14635E0C0
:1034400005EB49130122C3F8082B49462046FFF734
:1034500011FD3CE005EB49130822C3F8082B49464F
:103460002046FFF789FD35E009EBC90304EB830330
:1034700093F85732012B41D005EB49130222C3F8D0
:10348000082B1AF0200F04D005EB49132022C3F8B3
:10349000082B1AF4005F05D005EB49134FF40052D6
:1034A000C3F8082B09F101094FEA5808B8F1000FD9
:1034B0003FF449AF18F0010FF4D05FFA89FB594689
:1034C000206802F054F8824610F0010FB8D11AF0CB
:1034D000080FBFD11AF0100F04D005EB49131022CA
:1034E000C3F8082B1AF0020FCBD06B6913F0800FD2
:1034F000BAD07B6843F480637B60B5E709EBC9030E
:1035000004EB8303002283F857225946204603F038
:10351000AFFAB1E7206802F022F88046B14625E014
:103520005946204603F060FA1AF0080F04D005EB64
:1035300049130822C3F808291AF0100F04D005EB2C
:1035400049131022C3F808291AF0400F04D005EBE4
:1035500049134022C3F808291AF0020F40D11AF08B
:10356000800F59D109F101094FEA5808B8F1000F4D
:103570003FF4F0AE18F0010FF4D05FFA89FB594622
:10358000206801F0FDFF824610F0010FCCD009F059
:103590000F03012101FA03F27B6B23EA02037B6331
:1035A00005EB4913C3F80819A3798B42B8D109EB8D
:1035B000C90304EB8303D9691A6A0A441A62B9F190
:1035C000000FADD109EBC90304EB83035B6A002B49
:1035D000A6D104F29C420121206802F029F89FE75D
:1035E0004946284601F07AFB09EBC90304EB830343
:1035F000DB7D012B05D005EB49130222C3F8082916
:10360000ADE709EBC90304EB83030022DA755946E1
:10361000204603F033FAEEE749462046FFF71FFB4A
:10362000A0E77B6823F001037B6094F8CC34012B86
:1036300008D0204603F016FA2268536903F00043CD
:1036400053618DE6002184F8CC14204600F03EF949
:10365000F2E7204603F0EEF98DE67B6823F00103E4
:103660007B601021206801F039FB1AE005EB46135E
:103670004FF67F31C3F80819D3F8002922F400125D
:10368000C3F80029C3F8081BD3F8002B22F400125A
:10369000C3F8002BD3F8002B42F00062C3F8002BD4
:1036A00001362379B342E1D8FB6943F00113FB6192
:1036B000E37BDBB1D7F8843043F00B03C7F88430E9
:1036C0007B6C43F00B037B64D5F8003823F4FE6376
:1036D000C5F8003804F29C42A179206801F0A8FFE7
:1036E0002268536903F48053536150E67B6943F4C5
:1036F000005343F02B037B613B6943F00B033B61B9
:10370000E2E7206801F084FF206801F001FCE0712D
:10371000266800F0DBFB0146E279304601F060FAF2
:10372000204603F072F92268536903F40053536191
:1037300034E6204603F063F92268536903F0080376
:10374000536132E601362379B3420CD906EBC60346
:1037500004EB830393F85732012BF3D1F1B22046E7
:10376000FFF793FDEEE7206801F0EDFE10F4801FF7
:1037700025D1206801F0E7FE10F4001F59D0012385
:1037800026E001362379B3421BD905EB4613D3F863
:10379000002906EBC60304EB83031B7E012BF0D14B
:1037A000002AEEDA06EBC60304EB83030122DA7586
:1037B00066F07F01C9B22046FFF767FDE1E7012609
:1037C000E0E72268536903F480135361D1E70133C2
:1037D00022799A4228D905EB4312D2F8001B03EB59
:1037E000C30204EB820292F85822012AEFD1002989
:1037F000EDDA01F48031D4F8D42402F001029142D0
:10380000E5D103EBC30204EB8202012182F85712D7
:10381000AA6942F08002AA616A6912F0800FD6D1CB
:103820007B6843F400737B602268536903F40013E0
:103830005361206801F087FE10F0804F10D120689E
:1038400001F081FE10F0040F3FF442AD23685D6883
:1038500015F0040F0DD1226853682B43536037E5F0
:10386000204603F011F92268536903F08043536145
:10387000E5E7204603F00EF9EDE710B40468606A4E
:1038800029B940EA0240A062002010BC70478C4673
:10389000A36A00EB1340002308E003F1400104EBAE
:1038A0008101496800EB11400133DBB20CF1FF31BB
:1038B0008B42F2D340EA02400CF13F0104EB81015C
:1038C0004860E1E7036859620020704770470000D4
:1038D000002800F0E08170B582B00446036813F060
:1038E000010F3BD09F4B9B6803F00C03042B2CD0A3
:1038F0009C4B9B6803F00C03082B21D06368B3F545
:10390000803F4FD0B3F5A02F52D0964B1A6822F4C7
:1039100080321A601A6822F480221A606368002BD1
:1039200050D0FEF741FC05468E4B1B6813F4003F58
:1039300014D1FEF739FC401B6428F5D90320B1E10E
:10394000884B5B6813F4800FD8D0864B1B6813F448
:10395000003F03D06368002B00F09F81236813F0C1
:10396000020F54D07F4B9B6813F00C0F3ED07D4B61
:103970009B6803F00C03082B33D0E368002B68D05E
:10398000794B01221A60FEF70FFC0546754B1B6848
:1039900013F0020F54D1FEF707FC401B0228F5D9A3
:1039A00003207FE16F4A136843F480331360B5E767
:1039B0006C4B1A6842F480221A601A6842F4803212
:1039C0001A60ABE7FEF7F0FB0546664B1B6813F485
:1039D000003FC3D0FEF7E8FB401B6428F5D9032065
:1039E00060E1604B5B6813F4800FC6D15D4B1B68D0
:1039F00013F0020F03D0E368012B40F05081594AC5
:103A0000136823F0F803216943EAC10313602368B4
:103A100013F0080F42D063696BB3534B0122C3F814
:103A2000802EFEF7C1FB05464E4B5B6F13F0020F75
:103A300034D1FEF7B9FB401B0228F5D9032031E150
:103A4000484A136823F0F803216943EAC10313606D
:103A5000DDE7454B00221A60FEF7A6FB0546414B09
:103A60001B6813F0020FD2D0FEF79EFB401B02280A
:103A7000F5D9032016E13C4B0022C3F8802EFEF757
:103A800093FB0546374B5B6F13F0020F06D0FEF732
:103A90008BFB401B0228F5D9032003E1236813F0B8
:103AA000040F77D02F4B1B6C13F0805F33D10023B2
:103AB00001932C4B1A6C42F080521A641B6C03F079
:103AC00080530193019B0125284B1B6813F4807FD1
:103AD00023D0A368012B34D0052B38D0214B1A6F8B
:103AE00022F001021A671A6F22F004021A67A36813
:103AF000002B3DD0FEF758FB06461A4B1B6F13F008
:103B0000020F46D1FEF750FB801B41F288339842EA
:103B1000F3D90320C6E00025D6E7144A136843F41E
:103B200080731360FEF740FB0646104B1B6813F4CE
:103B3000807FCED1FEF738FB801B0228F5D9032009
:103B4000B0E0084A136F43F001031367CFE7054B5A
:103B50001A6F42F004021A671A6F42F001021A67E4
:103B6000C5E700BF00380240000047420070004037
:103B7000FEF71AFB0646524B1B6F13F0020F08D0DC
:103B8000FEF712FB801B41F288339842F3D90320E1
:103B900088E0EDB9A369002B00F08380484A926861
:103BA00002F00C02082A51D0022B17D0454B0022FC
:103BB0001A66FEF7F9FA0446414B1B6813F0007FC2
:103BC00042D0FEF7F1FA001B0228F5D9032069E084
:103BD0003B4A136C23F080531364DBE7394B00221C
:103BE0001A66FEF7E1FA0546354B1B6813F0007FB5
:103BF00006D0FEF7D9FA401B0228F5D9032051E080
:103C0000E369226A1343626A43EA8213A26A520892
:103C1000013A43EA0243E26A43EA0263284A5360F4
:103C2000284B01221A66FEF7BFFA0446244B1B6894
:103C300013F0007F06D1FEF7B7FA001B0228F5D972
:103C400003202FE000202DE000202BE0012B2BD0C3
:103C50001B4B5B6803F48001E269914226D103F0BB
:103C60003F02216A8A4223D1616A47F6C0721A4034
:103C7000B2EB811F1ED103F44031A26A5208013A0F
:103C8000B1EB024F18D103F07063E26AB3EB026F3D
:103C900014D1002006E001207047012002E001203D
:103CA00000E0002002B070BD0120FBE70120F9E731
:103CB0000120F7E70120F5E70120F3E70120F1E714
:103CC000003802400000474208B5254B9B6803F0CE
:103CD0000C03042B3FD0082B3FD1214B5A6802F034
:103CE0003F025B6813F4800F12D01D4B5968C1F37B
:103CF00088111C480023A1FB0001FDF75BF8184B5D
:103D00005B68C3F3014301335B00B0FBF3F025E0D4
:103D1000134B5968C1F3881C4FEA4C11B1EB0C00EE
:103D20006EEB0E0E4FEA8E1343EA90638101091A7F
:103D300063EB0E03DB0043EA5173C90011EB0C0C7B
:103D400043F10003990200234FEA8C2041EA9C5181
:103D5000FDF730F8D3E7034800E0034808BD00BF93
:103D600000380240001BB7000024F400002800F0D7
:103D70009B8070B50D4604464F4B1B6803F00F0344
:103D80008B4208D2CBB24C4A1370136803F00F0376
:103D90008B4240F08B80236813F0020F17D013F092
:103DA000040F04D0454A936843F4E05393602368BA
:103DB00013F0080F04D0414A936843F460439360C2
:103DC0003E4A936823F0F003A1680B439360236895
:103DD00013F0010F32D06368012B21D09A1E012A03
:103DE00025D9364A126812F0020F61D033498A6829
:103DF00022F0030213438B60FEF7D6F906462F4BE1
:103E00009B6803F00C036268B3EB820F16D0FEF7D9
:103E1000CBF9801B41F288339842F0D9032042E06D
:103E2000264A126812F4003FE0D101203BE0234A09
:103E3000126812F0007FD9D1012034E01E4B1B68BC
:103E400003F00F03AB4207D9EAB21B4B1A701B6891
:103E500003F00F03AB422DD1236813F0040F06D0FB
:103E6000164A936823F4E053E1680B439360236898
:103E700013F0080F07D0114A936823F460432169B7
:103E800043EAC1039360FFF71FFF0C4B9B68C3F32A
:103E900003130B4AD35CD8400A4B18600A4B1868CE
:103EA000FEF736F9002070BD012070470120FAE7C7
:103EB0000120F8E70120F6E7003C0240003802400C
:103EC000000601084000002048000020014B18684F
:103ED000704700BF4000002008B5FFF7F7FF044B14
:103EE0009B68C3F38223034AD35CD84008BD00BF5C
:103EF000003802401006010808B5FFF7E7FF044B41
:103F00009B68C3F34233034AD35CD84008BD00BF6B
:103F1000003802401006010800285AD010B50446A7
:103F2000436A33B94368B3F5827F05D00023C36188
:103F300002E00023036143610023A36294F851303F
:103F4000002B40D0022384F851302268136823F0FC
:103F500040031360636803F48273A26802F40442AE
:103F60001343E26802F400621343226902F0020282
:103F70001343626902F001021343A26902F4007262
:103F80001343E26902F038021343226A02F080020E
:103F90001343A26A02F40052216813430B60638B3F
:103FA00003F00403626A02F01002216813434B60BD
:103FB0002268D36923F40063D36100206065012384
:103FC00084F8513010BD84F850302046FDF77AFC5B
:103FD000B8E701207047000090F83D30DBB2012BBC
:103FE00037D1022380F83D300268D36843F00103E3
:103FF000D3600368194A934220D0B3F1804F1DD09B
:10400000A2F57C42934219D002F58062934215D00A
:1040100002F58062934211D002F5784293420DD0AE
:1040200002F57052934209D0A2F59432934205D022
:104030001A6842F001021A60002070479A6802F084
:104040000702062A07D01A6842F001021A6000200F
:104050007047012070470020704700BF00000140FA
:10406000704770477047704770B504460368DE6854
:104070001D6915F0020F10D016F0020F0DD06FF071
:1040800002021A610123037703689B6913F0030F8F
:104090005ED0FFF7E6FF0023237715F0040F12D060
:1040A00016F0040F0FD023686FF004021A61022388
:1040B000237723689B6913F4407F4FD02046FFF796
:1040C000D0FF0023237715F0080F12D016F0080F49
:1040D0000FD023686FF008021A6104232377236846
:1040E000DB6913F0030F40D02046FFF7BAFF00232F
:1040F000237715F0100F12D016F0100F0FD0236891
:104100006FF010021A61082323772368DB6913F428
:10411000407F31D02046FFF7A4FF0023237715F01E
:10412000010F02D016F0010F2DD115F0800F02D033
:1041300016F0800F2FD115F0400F02D016F0400F6F
:1041400031D115F0200F02D016F0200F33D170BD01
:10415000FFF786FF2046FFF785FF9CE72046FFF725
:104160007FFF2046FFF77EFFABE72046FFF778FF93
:104170002046FFF777FFBAE72046FFF771FF20469A
:10418000FFF770FFC9E723686FF001021A6120464C
:10419000FDF7E8FCC9E723686FF080021A6120464A
:1041A00000F0F1F8C7E723686FF040021A6120467B
:1041B000FFF759FFC5E723686FF020021A61204618
:1041C00000F0E0F8C3E700000368344A904212D0E0
:1041D000B0F1804F0FD0A2F57C4290420BD002F597
:1041E0008062904207D002F58062904203D002F5CF
:1041F0007842904203D123F070034A681343274A60
:1042000090422AD0B0F1804F27D0A2F57C42904254
:1042100023D002F5806290421FD002F58062904266
:104220001BD002F57842904217D002F570529042AE
:1042300013D002F5806290420FD002F58062904266
:104240000BD0A2F59832904207D002F580629042DE
:1042500003D002F58062904203D123F44073CA6810
:10426000134323F080034A69134303608B68C362DE
:104270000B688362094B984203D003F58063984230
:1042800001D10B69036301234361036913F0010F3B
:1042900003D0036923F0010303617047000001406C
:1042A00040B310B5044690F83D30F3B1022384F8D2
:1042B0003D30214651F8040BFFF786FF012384F8B7
:1042C000463084F83E3084F83F3084F8403084F83B
:1042D000413084F8423084F8433084F8443084F824
:1042E000453084F83D30002010BD80F83C30FDF7AB
:1042F00019FCDBE70120704790F83C30012B3CD0E3
:1043000010B4012380F83C30022380F83D3003686C
:104310005A689C6822F0700C0A6842EA0C025A60E3
:104320000368174A93421AD0B3F1804F17D0A2F511
:104330007C42934213D002F5806293420FD002F583
:10434000806293420BD002F57842934207D002F587
:104350007052934203D0A2F59432934204D124F0D8
:1043600080044A6814439C60012380F83D30002398
:1043700080F83C30184610BC70470220704700BFE0
:104380000000014070477047026802F10C0353E8D7
:10439000003F23F490730C3242E800310029F3D13E
:1043A000026802F1140353E8003F23F001031432C2
:1043B00042E800310029F3D1036B012B05D0202303
:1043C00080F84230002303637047026802F10C0357
:1043D00053E8003F23F010030C3242E8003100297B
:1043E000F3D1ECE790F84130DBB2212B01D0022071
:1043F00070478368B3F5805F17D0036A5A1C026266
:104400001A7803685A60C38C9BB2013B9BB2C38489
:104410004BB90268D36823F08003D3600268D36885
:1044200043F04003D360002070470369002BE4D1C0
:10443000036A1B880268C3F308035360036A0233EC
:104440000362E0E738B504460268136923F4405379
:10445000C1680B43136183680269134342691343C4
:10446000C2691A430168CB6823F4164323F00C0396
:104470001343CB600268536923F4407381690B4393
:1044800053610368314A934206D002F58062934239
:1044900002D0FFF721FD01E0FFF72EFDE369B3F540
:1044A000004F29D00021031849411B1841F1000198
:1044B000C90041EA5371DB00181863684FEA8302B0
:1044C0004FEA937341F10001FCF774FC204DA5FB0A
:1044D00000325109642303FB11031B013233A5FB96
:1044E00003235B0903F0F00202EB011203F00F0358
:1044F000216813448B6038BD0023021843EB03018D
:10450000121841F10001C90041EA5271D20010189D
:1045100041F10001626892185B41FCF74BFC0C4DC5
:10452000A5FB00325109642303FB1103DB00323386
:10453000A5FB03235B095A0002F4F87202EB011297
:1045400003F00703216813448B60D4E70010014097
:104550001F85EB512DE9F04383B005460E46174603
:104560009946DDF828802C68246836EA04030CBFDD
:104570004FF0010C4FF0000CBC4528D1B8F1FF3FC3
:10458000F1D0FDF711FEA0EB0900404523D8B8F1AA
:10459000000F22D02B68DA6812F0040FE3D0802ECF
:1045A000E1D0402EDFD01A6812F0080FDBD00024D3
:1045B00001941A6801925B680193019B2846FFF7FA
:1045C000E3FE08236B6485F84040012000E00020F2
:1045D00003B0BDE8F0830320FAE70320F8E760B3F7
:1045E00010B5044690F8413013B3242384F84130C9
:1045F0002268D36823F40053D3602046FFF722FFDC
:104600002268136923F4904313612268536923F0ED
:104610002A0353612268D36843F40053D360002017
:104620006064202384F8413084F84230606310BD18
:1046300080F84030FDF750FBD7E7012070472DE9A7
:10464000F04182B01E4690F84130DBB2202B56D1AB
:1046500004460D469046002955D00AB901204FE086
:1046600000234364212380F84130FDF79DFD074678
:10467000A4F82480A4F82680A368B3F5805F02D054
:104680004FF0000814E023692BB34FF000080FE04F
:10469000202384F84130032032E038F8023B2268BE
:1046A000C3F308035360E28C92B2013A92B2E284FF
:1046B000E38C9BB293B100963B46002280212046BA
:1046C000FFF748FF0028E3D1002DE6D015F8012BB5
:1046D00023685A60E7E7A8460025E9E700963B46CD
:1046E000002240212046FFF735FF18B9202384F827
:1046F000413005E0202384F84130032000E002200F
:1047000002B0BDE8F0810120FAE7704708B5016802
:10471000CA6822F04002CA60202280F84120FFF7D8
:10472000F4FF002008BD704708B5806B0023C385E7
:10473000C384FFF7F8FF08BD704790F84230DBB242
:10474000222B69D18368B3F5805F4FD0826AB3F5BD
:10475000805F04D0002B56D10369002B53D103682E
:104760005B681370836A01338362C38D9BB2013B24
:104770009BB2C385002B51D100B583B00268D368CA
:1047800023F02003D3600268D36823F48073D360DE
:104790000268536923F001035361202380F84230FB
:1047A00000234363036B012B33D1002303630268AF
:1047B00002F10C0353E8003F23F010030C3242E8EF
:1047C00000310029F3D103681A6812F0100F06D0E7
:1047D000002201921A6801925B680193019B818D0E
:1047E000FFF7AAFF002003B05DF804FB0269002A6E
:1047F000ACD1826A03685B68C3F308031380836AE1
:1048000002338362B1E703685B6803F07F031370D0
:10481000A8E7FDF797FBE5E7022070470020704707
:1048200030B583B0044602681368D068516913F04C
:104830000F0505D113F0200F02D010F0200F19D171
:104840002DB111F0010119D110F4907F16D1216B17
:1048500001297DD013F0800F03D010F0800F40F0BD
:10486000198113F0400F03D010F0400F40F0168173
:1048700003B030BD2046FFF760FFF9E713F0010FEA
:1048800006D010F4807F03D0626C42F001026264B3
:1048900013F0040F04D019B1626C42F0020262649A
:1048A00013F0020F04D019B1626C42F0040262648A
:1048B00013F0080F07D010F0200F00D119B1626C6F
:1048C00042F008026264626C002AD1D013F0200F1B
:1048D00002D010F0200F29D123685B6903F0400358
:1048E000626C12F0080F00D163B32046FFF74CFD55
:1048F00023685B6913F0400F20D0226802F1140393
:1049000053E8003F23F04003143242E8003100290D
:10491000F3D1E36B73B1634A1A65E06BFEF77EF87F
:104920000028A5D0E06B036D9847A1E72046FFF76C
:1049300004FFD1E72046FFF7F6FE99E72046FFF790
:10494000F2FE95E72046FFF7EEFE002363648FE753
:1049500013F0100F3FF47EAF10F0100F3FF47AAF5A
:10496000002301931368019353680193019B5369DA
:1049700013F0400F52D0E26B13685B689BB2002BC0
:104980003FF476AFA18D99427FF672AFE385D3698C
:10499000B3F5807F37D0226802F10C0353E8003F63
:1049A00023F480730C3242E800310029F3D12268ED
:1049B00002F1140353E8003F23F00103143242E8EC
:1049C00000310029F3D1226802F1140353E8003FBB
:1049D00023F04003143242E800310029F3D12023B0
:1049E00084F8423000232363226802F10C0353E869
:1049F000003F23F010030C3242E800310029F3D1CC
:104A0000E06BFDF7C1FF02236363A18DE38D9BB2D1
:104A1000C91A89B22046FFF78FFE29E7A18DE38DE1
:104A20009BB2C91A89B2E38D9BB2002B3FF420AF31
:104A300000293FF41DAF226802F10C0353E8003F48
:104A400023F490730C3242E800300028F3D122683E
:104A500002F1140353E8003F23F00103143242E84B
:104A600000300028F3D1202384F842300023236350
:104A7000226802F10C0353E8003F23F010030C32CC
:104A800042E800300028F3D1022363632046FFF799
:104A900053FEEDE62046FFF7A5FCE9E62046FFF7CA
:104AA00035FEE5E62947000881628285C28500233C
:104AB0004364222380F84230036923B10268D3683B
:104AC00043F48073D3600268536943F00103536178
:104AD0000268D36843F02003D3600020704708B514
:104AE00090F84230DBB2202B08D149B10AB901203D
:104AF00008BD00230363FFF7D7FFF9E70220F7E7BC
:104B00000120F5E782B000230193019B013301935B
:104B1000019BB3F1706F15D80369002BF5DA002300
:104B20000193036943F001030361019B0133019386
:104B3000019BB3F1706F08D8036913F0010FF4D132
:104B4000002000E0032002B070470320FBE784B0A0
:104B500010B5044603A880E80E009DF81130012B23
:104B600021D1A36B23F48033A363E36823F484038C
:104B700023F04003E360E36823F44013E3609DF80F
:104B80001830012B0AD02046FFF7BCFF9DF80E30ED
:104B9000012B1CD0BDE8104004B07047E36843F41B
:104BA0008013E360EFE7E36843F04003E3602046EF
:104BB000FFF7A8FF9DF8153023B9A36B43F48033AA
:104BC000A363E3E7A36B23F48033A363DEE7A36867
:104BD00043F00603A360A36843F02003A360D9E772
:104BE000022A0AD00921C26822F47052C260C36846
:104BF00043EA8123C36000207047234B0B44234AC0
:104C000093422FD9224B0B44224A93422CD9A1F52F
:104C10007403A3F51053204A934227D9A1F183735B
:104C2000A3F5E7431D4A934222D31D4B0B441D4A73
:104C300093421FD91C4B0B441C4A93421CD31C4B60
:104C40000B441C4A934219D3A1F1B773A3F55853EF
:104C5000194A934214D3194B0B44194A934211D267
:104C60000721C0E70F21BEE70E21BCE70D21BAE7FF
:104C70000C21B8E70B21B6E70A21B4E70921B2E716
:104C80000821B0E70621AEE7405327FFFF340C00B0
:104C9000401E1BFF3F420F007F4F120020D6130023
:104CA00060B6E5FE5FE3160000D3CEFE40771B0042
:104CB000C05BB3FEC091210020753800E05459FE5E
:104CC000E09C4100836843F001038360002070474B
:104CD000836823F0010383600020704782B00023C3
:104CE0000193019B01330193019BB3F1706F15D8C0
:104CF0000369002BF5DA00230193890141F02001BB
:104D00000161019B01330193019BB3F1706F08D8DE
:104D1000036913F0200FF4D1002000E0032002B05B
:104D200070470320FBE782B000230193019B01330E
:104D30000193019BB3F1706F13D80369002BF5DA6F
:104D40000023019310230361019B01330193019B15
:104D5000B3F1706F08D8036913F0100FF4D100207D
:104D600000E0032002B070470320FBE7D0F80038D2
:104D70001943C0F8001800207047000084B0F8B54F
:104D8000044607A880E80E00002306E003F1400275
:104D900004EB82020021516001330E2BF6D99DF8FD
:104DA000266006BBD4F8043843F00203C4F8043884
:104DB000A36B43F40013A363A36B23F40023A36347
:104DC000A36B23F48023A3630023C4F8003E9DF863
:104DD0002130012B15D19DF81F306BB900212046E1
:104DE000FFF7C4FF11E0A36B23F40013A363A36BCD
:104DF00043F40023A363E7E701212046FFF7B6FF52
:104E000003E003212046FFF7B1FF10212046FFF702
:104E100065FF054600B101252046FFF784FF00B17C
:104E2000012504F5006C0023CCF81030CCF81430C8
:104E3000CCF81C300AE0CBB94FF00060C2F8000992
:104E400000220A614FF67F328A6001339DF81C1000
:104E5000994210D904EB431202F51061D2F800090F
:104E60000028E8DB0020C2F80009E9E74FF0904095
:104E7000C2F80009E4E700230AE0BBB14FF0904715
:104E8000C2F8007B002202614FF67F32826001335C
:104E9000994210D904EB431202F53060D2F8007B3E
:104EA000002FEADB0027C2F8007BEBE74FF000673A
:104EB000C2F8007BE6E7DCF8103023F48073CCF80E
:104EC00010300023A3616FF0804363619DF81E30B2
:104ED0001BB9A36943F01003A361A2690B4B1343F1
:104EE000A3619DF822301BB1A36943F00803A361BD
:104EF000012E04D02846BDE8F84004B07047A369ED
:104F000043F0804343F00403A361F3E700383C809F
:104F1000D0F8083813F0060307D0022B07D0062B71
:104F200001D00F20704702207047002070470220F8
:104F3000704710B591F800C04B78012B23D000F5D5
:104F4000006ED0F81C380CF00F040122A24043EA96
:104F50000243C0F81C3800EB4C10D0F8003B13F4AF
:104F6000004F0ED1D0F8003B8A68C2F30A020979DB
:104F700042EA8142134343F0805343F40043C0F8B4
:104F8000003B002010BDD0F81C280CF00F0E03FAD7
:104F90000EF39BB21343C0F81C3800EB4C10D0F852
:104FA000003913F4004FECD1D0F800398A68C2F30D
:104FB0000A02097942EA814242EA8C5C43EA0C0324
:104FC00043F0805343F40043C0F80039D9E70000B0
:104FD00030B40B784A78012A26D000EB4313D3F87B
:104FE000002B002A52DBD0F83C480A7802F00F026E
:104FF0004FF0010C0CFA02F224EA0242C0F83C28FD
:10500000D0F81C28097801F00F010CFA01FC22EA03
:105010000C42C0F81C28D3F8001B234A0A40C3F8EE
:10502000002B002030BC704700EB4313D3F800295D
:10503000002A1EDBD0F83C580A7802F00F02012447
:1050400004FA02F292B225EA0202C0F83C28D0F833
:105050001C28097801F00F018C40A4B222EA040454
:10506000C0F81C48D3F80019104A0A40C3F80029B8
:10507000D7E7D3F8002942F00062C3F80029D3F83B
:10508000002942F08042C3F80029D3E7D3F8002B6F
:1050900042F00062C3F8002BD3F8002B42F08042AC
:1050A000C3F8002B9FE700BF0078F3EF007833ECE4
:1050B00010B483B0024600230193487801280AD037
:1050C0000B7802EB4313D3F8000B00282CDB0020F5
:1050D00003B010BC70470B7802EB4313D3F80049C0
:1050E000002C01DB0020F3E7D3F8004944F0006412
:1050F000C3F800490B7802EB4313D3F8004944F09E
:105100008044C3F80049019B01330193019C42F2A2
:1051100010739C42DCD80B7802EB4313D3F80039B0
:10512000002BF0DB0020D3E7D3F8000B40F0006049
:10513000C3F8000B0B7802EB4313D3F8000B40F0DD
:105140008040C3F8000B019B01330193019842F2A8
:105150001073984208D80B7802EB4313D3F8003B46
:10516000002BF0DB0020B3E70120B1E710B59DF87C
:10517000084084B903334FEA930E4FF0000C08E067
:1051800000EB023303F5805351F8044B1C600CF123
:10519000010CF445F4D3002010BD0000F0B583B03D
:1051A0000C784B78012B2FD000EB441C0CF53063AE
:1051B0001D69ED0CED041D611D6925F0FF5525F4F9
:1051C000C0151D61002C40F0CF800C690CB18C68BB
:1051D0000C618C680C621D69C4F312042C431C61C1
:1051E0001C6944F400241C61012A00F0E0800B7962
:1051F000012B00F0E280DCF8003B43F00443CCF8E4
:10520000003B002003B0F0BD0B6983BB00EB4413EF
:10521000D3F8105925F0FF5525F4C015C3F81059DF
:10522000D3F8105945F40025C3F81059D3F8105994
:10523000ED0CED04C3F81059012A53D000EB4414CF
:10524000D4F8003943F00443C4F800390B79012B3A
:1052500071D00B69002BD4D0D0F834380A7802F022
:105260000F0101228A401343C0F83438C9E700EB2C
:10527000441303F510631D69ED0CED041D611D69F8
:1052800025F0FF5525F4C0151D6184B90E698D68A0
:10529000AE4200D90D611D6945F400251D611D69EF
:1052A0000E69C6F3120C45EA0C051D61C4E70D69D1
:1052B0008E683544013DB5FBF6F51E69484F07EA97
:1052C000C54C46EA0C061E610E79012EE7D11E6917
:1052D00026F0C0461E611E696D0705F0C0453543C6
:1052E0001D61DCE7CB691BB100EB4412C2F8143935
:1052F0000B79012B08D000EB4410D0F8003943F0B3
:105300000443C0F800397CE7D0F8083813F4807FF4
:1053100008D100EB4412D2F8003943F00053C2F830
:105320000039E8E700EB4412D2F8003943F080532B
:10533000C2F80039DFE7D0F8083813F4807F0CD1C9
:10534000D4F8003943F00053C4F8003900920B8AB6
:105350000A78C968FFF70AFF53E7D4F8003943F029
:105360008053C4F80039F1E70C6954B91C698D68A1
:10537000C5F312052C431C611C6944F400241C6114
:1053800032E78D682C44013CB4FBF5F4A4B204FB75
:1053900005F50D621D69124E06EAC4442C431C61DA
:1053A0001C690D6AC5F312052C431C611CE7CA6811
:1053B000002A3FF41CAF5A6119E7D0F8083813F4FB
:1053C000807F06D1DCF8003B43F00053CCF8003B73
:1053D00011E7DCF8003B43F08053CCF8003B0AE7D0
:1053E0000000F81F00B583B0844608464FEA920ECD
:1053F00002F00302002305E00CF58051096840F833
:10540000041B01337345F7D39AB10CF5805CDCF8CB
:10541000003001934FF0000C5FFA8CF3D900019B30
:10542000CB4000F8013B0CF1010C013A92B2002A8A
:10543000F2D103B05DF804FB0B784A78012A14D04E
:1054400000EB4310D0F8002B002A06DB2BB1D0F87C
:10545000003B23F08043C0F8003BD0F8003B43F40E
:105460000013C0F8003B0020704700EB4310D0F859
:105470000029002A06DB2BB1D0F8003923F0804345
:10548000C0F80039D0F8003943F40013C0F80039EF
:10549000E9E70B784A78012A0ED000EB4310D0F8E8
:1054A000003B23F40013C0F8003B0B79023BDBB256
:1054B000012B15D90020704700EB4310D0F80039BC
:1054C00023F40013C0F800390B79023BDBB2012B47
:1054D000F0D8D0F8003943F08053C0F80039E9E73C
:1054E000D0F8003B43F08053C0F8003BE2E7D0F82F
:1054F000003823F4FE63C0F80038D0F80038090102
:1055000001F4FE611943C0F8001800207047D0F87C
:10551000003E23F00303C0F8003ED0F8043823F027
:105520000203C0F8043800207047D0F8003E23F092
:105530000303C0F8003ED0F8043843F00203C0F87B
:105540000438002070474269806910407047D0F8E5
:10555000183800F50060C0691840000C7047D0F89A
:10556000183800F50060C069184080B2704700EB41
:105570004111D1F8082B00F50060406910407047D8
:1055800010B4D0F81048D0F8343801F00F02D340EE
:10559000DB01DBB2234300EB411000F510608068B3
:1055A000184010BC7047406900F00100704738B5E2
:1055B0000546C36823F0C043C360012913D019BB5B
:1055C000C36843F08043C36000240A20FCF7F2FD67
:1055D0000A342846FFF7E7FF08B1C72CF5D9C82CD5
:1055E00014D0002038BDC36843F00053C3600024CA
:1055F0000A20FCF7DFFD0A342846FFF7D4FF012814
:10560000EDD0C72CF4D9EAE70120EBE70120E9E768
:10561000D0F8003923F4FF6323F00703C0F8003902
:10562000D0F8043843F48073C0F804380020704781
:1056300010B4046C144B9C4203D9D0F8003B002BEF
:1056400016DB0024C0F8104BD0F8104B44F40024B3
:10565000C0F8104BD0F8104B44F01804C0F8104BB1
:10566000D0F8104B44F0C044C0F8104B012902D0D0
:10567000002010BC7047C0F8142BD0F8003B43F05A
:105680008023C0F8003BF3E70A30544F10B5D0F840
:10569000D43203F1B00250F822408CB100EB82000A
:1056A00043687BB194F80002FF280DD09B6894F802
:1056B000012221469847FF2384F80032002010BDC4
:1056C0000320FCE70020FAE70020F8E70A23038024
:1056D00000487047C8000020F8B506460F4F8221E9
:1056E000384600F024FC05460121384600F01FFC36
:1056F00004468121384600F01AFC0DB11022AA712F
:105700001CB1402222710022627118B14022027144
:1057100000224271432333800048F8BD84000020FA
:10572000F8B506460F4F8221384600F000FC0546CA
:105730000121384600F0FBFB04468121384600F089
:10574000F6FB0DB11022AA711CB140222271002279
:10575000627118B1402202710022427143233380EA
:105760000048F8BD84000020F8B506460F4F82219E
:10577000384600F0DCFB05460121384600F0D7FB37
:1057800004468121384600F0D2FB0DB11022AA71E7
:105790001CB1002222710222627118B10022027132
:1057A00002224271432333800048F8BD8400002068
:1057B00038B5D0F8D432B03350F8235095B1044600
:1057C00001F0B8F9C5F80C02D4F8D432B03304EBC8
:1057D00083046368DB6805F50371D5F80402984714
:1057E000002038BD0320FCE738B5D0F8C852D0F807
:1057F000D432B03350F8234084B301F00F0303EBED
:10580000830200EB820292694AB103EBC30C05EB01
:105810008C05ED69B2FBF5FC05FB1C2292B100235F
:10582000C4F81432D0F8D432B03300EB83004368AC
:105830001B69ABB10A4604F50471D4F80802984715
:10584000002038BD03EB830300EB830300249C613D
:105850002346224601F0B6F92046F2E70320F0E79E
:105860000020EEE7F0B583B0D0F8D43203F1B002F7
:1058700050F8227000228DF80720ADF80420002F88
:105880007BD004460D46097811F0600634D0202EF6
:105890006CD1EA882AB311F0800F07D16B7887F8B2
:1058A0000032EA883F2A13D8D2B212E0B03300EBBC
:1058B00083035B689B68394668789847EA88072ABB
:1058C00028BF07223946204600F0E8FE002651E0B6
:1058D000402287F801223946204600F0F4FE0026D7
:1058E00048E0B03300EB830463689B6800222946DC
:1058F0006878984700263DE06F780B2F31D8DFE8B5
:1059000007F006393030303030303030162690F81D
:105910009C32DBB2032B04D0294600F045FB032662
:1059200028E0022201A900F0B9FE3E4622E090F8EC
:105930009C32DBB2032B04D0294600F035FB032652
:1059400018E001220DF1070100F0A8FE12E090F826
:105950009C32DBB2032B0DD0294600F025FB032639
:1059600008E0294600F020FB032603E0294600F06A
:105970001BFB0326304603B0F0BD0326FAE738B51B
:105980000446812101F0FEF80025258701212046EB
:1059900001F0F8F8A4F878518221204601F0F2F8DD
:1059A000A4F84C50A4F84E50D4F8D43203F1B0020D
:1059B00054F822209AB1B03304EB83035B685B6830
:1059C0009847D4F8D432B03354F8230001F0BCF82F
:1059D000D4F8D432B03344F82350C4F8BC52002079
:1059E00038BD70B504464FF4077001F0A9F80028DF
:1059F00049D005464FF40772002101F01DF9D4F893
:105A0000D432B03344F82350C4F8BC52237C002B6A
:105A100041D14FF4007302228121204601F0A7F802
:105A2000012626874FF4007302223146204601F0FA
:105A30009EF8A4F878611023A4F84E3008230322BE
:105A40008221204601F093F80123A4F84C3000266F
:105A5000C5F80462D4F8D432B03304EB83035B6836
:105A60001B689847C5F81462C5F81862D5F8042277
:105A700062B3257C1DBB4FF400730121204601F069
:105A8000A9F8284670BDD4F8D432B033002244F8C7
:105A900023200225F5E7402302228121204601F040
:105AA00066F801262687402302223146204601F06F
:105AB0005EF8A4F878611023A4F84E30BEE74023C6
:105AC0000121204601F086F80025DAE70225D8E713
:105AD00039B1D0F8D432B03300EB830041600020FC
:105AE000704703207047D0F8D432B03350F82330D9
