:020000040800F2
:1000000000000320F93C0008F92E0008FB2E000830
:10001000FD2E0008FF2E0008012F00080000000040
:10002000000000000000000000000000032F000896
:10003000052F000800000000072F0008092F000806
:10004000493D0008493D0008493D0008493D000878
:10005000493D0008493D0008493D0008493D000868
:10006000493D0008493D0008493D0008493D000858
:10007000493D0008493D0008493D0008493D000848
:10008000493D0008493D0008493D0008493D000838
:10009000493D0008493D0008493D0008493D000828
:1000A000493D0008493D0008493D0008493D000818
:1000B000493D0008493D0008493D0008493D000808
:1000C000493D0008493D0008493D0008493D0008F8
:1000D000493D0008493D0008112F0008392F00084C
:1000E000493D0008493D0008493D0008493D0008D8
:1000F000493D0008493D0008493D0008493D0008C8
:10010000493D0008493D0008493D0008493D0008B7
:10011000493D0008493D0008493D0008493D0008A7
:10012000493D0008493D0008493D0008493D000897
:10013000493D0008493D0008493D0008493D000887
:10014000493D0008493D0008493D0008592F000875
:10015000493D0008493D0008493D0008692F000855
:10016000493D0008493D0008493D0008493D000857
:10017000493D0008493D0008493D000800000000D5
:10018000493D0008493D0008892F0008A92F0008B3
:10019000493D0008493D0008493D0008493D000827
:0C01A0000000000000000000493D0008C5
:1001C00010B5054C237833B9044B13B10448AFF391
:1001D00000800123237010BDF80A002000000000F9
:1001E000A8EB000808B5034B1BB103490348AFF364
:1001F000008008BD00000000FC0A0020A8EB0008F9
:1002000081F0004102E000BF83F0004330B54FEAC7
:1002100041044FEA430594EA050F08BF90EA020F34
:100220001FBF54EA000C55EA020C7FEA645C7FEAC7
:10023000655C00F0E2804FEA5454D4EB5555B8BFEA
:100240006D420CDD2C4480EA020281EA030382EA5B
:10025000000083EA010180EA020281EA0303362DED
:1002600088BF30BD11F0004F4FEA01314FF4801CC0
:100270004CEA113102D0404261EB410113F0004FD2
:100280004FEA03334CEA133302D0524263EB430389
:1002900094EA050F00F0A780A4F10104D5F1200E27
:1002A0000DDB02FA0EFC22FA05F2801841F1000182
:1002B00003FA0EF2801843FA05F359410EE0A5F156
:1002C00020050EF1200E012A03FA0EFC28BF4CF087
:1002D000020C43FA05F3C01851EBE37101F000453D
:1002E00007D54FF0000EDCF1000C7EEB00006EEB4A
:1002F0000101B1F5801F1BD3B1F5001F0CD34908D4
:100300005FEA30004FEA3C0C04F101044FEA44522A
:1003100012F5800F80F09A80BCF1004F08BF5FEAB1
:10032000500C50F1000041EB045141EA050130BD91
:100330005FEA4C0C404141EB0101013C28BFB1F5A3
:10034000801FE9D291F0000F04BF01460020B1FAEE
:1003500081F308BF2033A3F10B03B3F120020CDAC1
:100360000C3208DD02F1140CC2F10C0201FA0CF09F
:1003700021FA02F10CE002F11402D8BFC2F1200C04
:1003800001FA02F120FA0CFCDCBF41EA0C019040BA
:10039000E41AA2BF01EB0451294330BD6FEA040403
:1003A0001F3C1CDA0C340EDC04F11404C4F12002EE
:1003B00020FA04F001FA02F340EA030021FA04F300
:1003C00045EA030130BDC4F10C04C4F1200220FA57
:1003D00002F001FA04F340EA0300294630BD21FA95
:1003E00004F0294630BD94F0000F83F4801306BF5B
:1003F00081F480110134013D4EE77FEA645C18BF4F
:100400007FEA655C29D094EA050F08BF90EA020FE5
:1004100005D054EA000C04BF1946104630BD91EADD
:10042000030F1EBF0021002030BD5FEA545C05D1E0
:100430004000494128BF41F0004130BD14F580041F
:100440003CBF01F5801130BD01F0004545F0FE4193
:1004500041F470014FF0000030BD7FEA645C1ABFC8
:10046000194610467FEA655C1CBF0B46024650EAFF
:10047000013406BF52EA033591EA030F41F400212B
:1004800030BD00BF90F0000F04BF0021704730B5B1
:100490004FF4806404F132044FF000054FF0000186
:1004A00050E700BF90F0000F04BF0021704730B547
:1004B0004FF4806404F1320410F0004548BF40421C
:1004C0004FF000013EE700BF42004FEAE2014FEA71
:1004D00031014FEA02701FBF12F07F4393F07F4F4C
:1004E00081F06051704732F07F4208BF704793F04F
:1004F0007F4F04BF41F40021704730B54FF4607462
:1005000001F0004521F000411CE700BF50EA010264
:1005100008BF704730B54FF000050AE050EA01020D
:1005200008BF704730B511F0004502D5404261EB7D
:1005300041014FF4806404F132045FEA915C3FF4BE
:10054000D8AE4FF003025FEADC0C18BF03325FEA5B
:10055000DC0C18BF033202EBDC02C2F1200300FA0C
:1005600003FC20FA02F001FA03FE40EA0E0021FA31
:1005700002F11444BDE600BF70B54FF0FF0C4CF41F
:10058000E06C1CEA11541DBF1CEA135594EA0C0FD1
:1005900095EA0C0F00F0DEF82C4481EA030621EA0C
:1005A0004C5123EA4C5350EA013518BF52EA033547
:1005B00041F4801143F4801338D0A0FB02CE4FF0F9
:1005C0000005E1FB02E506F00042E0FB03E54FF029
:1005D0000006E1FB03569CF0000F18BF4EF0010E21
:1005E000A4F1FF04B6F5007F64F5407404D25FEA1D
:1005F0004E0E6D4146EB060642EAC62141EA5551D0
:100600004FEAC52040EA5E504FEACE2EB4F1FD0C11
:1006100088BFBCF5E06F1ED8BEF1004F08BF5FEA8F
:10062000500E50F1000041EB045170BD06F0004641
:1006300046EA010140EA020081EA0301B4EB5C04EE
:10064000C2BFD4EB0C0541EA045170BD41F48011E6
:100650004FF0000E013C00F3AB8014F1360FDEBF0B
:10066000002001F0004170BDC4F10004203C35DAE7
:100670000C341BDC04F11404C4F1200500FA05F36A
:1006800020FA04F001FA05F240EA020001F000420B
:1006900021F0004110EBD37021FA04F642EB060181
:1006A0005EEA430E08BF20EAD37070BDC4F10C04AB
:1006B000C4F1200500FA04F320FA05F001FA04F26F
:1006C00040EA020001F0004110EBD37041F100015B
:1006D0005EEA430E08BF20EAD37070BDC4F1200566
:1006E00000FA05F24EEA020E20FA04F301FA05F2CE
:1006F00043EA020321FA04F001F0004121FA04F276
:1007000020EA020000EBD3705EEA430E08BF20EA45
:10071000D37070BD94F0000F0FD101F0004640007F
:1007200041EB010111F4801F08BF013CF7D041EA01
:10073000060195F0000F18BF704703F00046520005
:1007400043EB030313F4801F08BF013DF7D043EAD6
:100750000603704794EA0C0F0CEA135518BF95EA8C
:100760000C0F0CD050EA410618BF52EA4306D1D113
:1007700081EA030101F000414FF0000070BD50EA32
:10078000410606BF1046194652EA430619D094EABC
:100790000C0F02D150EA013613D195EA0C0F05D1A6
:1007A00052EA03361CBF104619460AD181EA0301FA
:1007B00001F0004141F0FE4141F470014FF00000B2
:1007C00070BD41F0FE4141F4780170BD70B54FF04D
:1007D000FF0C4CF4E06C1CEA11541DBF1CEA1355CD
:1007E00094EA0C0F95EA0C0F00F0A7F8A4EB0504AF
:1007F00081EA030E52EA03354FEA013100F08880A6
:100800004FEA03334FF0805545EA131343EA12636E
:100810004FEA022245EA111545EA10654FEA002623
:100820000EF000419D4208BF964244F1FD0404F5DC
:10083000407402D25B084FEA3202B61A65EB030538
:100840005B084FEA32024FF480104FF4002CB6EBF5
:10085000020E75EB030E22BFB61A754640EA0C0075
:100860005B084FEA3202B6EB020E75EB030E22BFB5
:10087000B61A754640EA5C005B084FEA3202B6EBF6
:10088000020E75EB030E22BFB61A754640EA9C00B5
:100890005B084FEA3202B6EB020E75EB030E22BF85
:1008A000B61A754640EADC0055EA060E18D04FEA43
:1008B000051545EA16754FEA06164FEAC30343EAE3
:1008C00052734FEAC2025FEA1C1CC0D111F4801FB0
:1008D0000BD141EA00014FF000004FF0004CB6E7A9
:1008E00011F4801F04BF01430020B4F1FD0C88BF48
:1008F000BCF5E06F3FF6AFAEB5EB030C04BFB6EB53
:10090000020C5FEA500C50F1000041EB045170BD45
:100910000EF0004E4EEA113114EB5C04C2BFD4EB72
:100920000C0541EA045170BD41F480114FF0000EF6
:10093000013C90E645EA060E8DE60CEA135594EA72
:100940000C0F08BF95EA0C0F3FF43BAF94EA0C0F75
:100950000AD150EA01347FF434AF95EA0C0F7FF4EA
:1009600025AF104619462CE795EA0C0F06D152EA3E
:1009700003353FF4FDAE1046194622E750EA410622
:1009800018BF52EA43067FF4C5AE50EA41047FF433
:100990000DAF52EA43057FF4EBAE12E74FF0FF3C98
:1009A00006E000BF4FF0010C02E000BF4FF0010C69
:1009B0004DF804CD4FEA410C7FEA6C5C4FEA430CE2
:1009C00018BF7FEA6C5C1BD001B050EA410C0CBF31
:1009D00052EA430C91EA030F02BF90EA020F002093
:1009E000704710F1000F91EA030F58BF994208BFFA
:1009F00090422CBFD8176FEAE37040F001007047B7
:100A00004FEA410C7FEA6C5C02D150EA013C07D10D
:100A10004FEA430C7FEA6C5CD6D152EA033CD3D058
:100A20005DF8040B704700BF8446104662468C4652
:100A30001946634600E000BF01B5FFF7B7FF002885
:100A400048BF10F1000F01BD4DF808EDFFF7F4FFAE
:100A50000CBF012000205DF808FB00BF4DF808ED39
:100A6000FFF7EAFF34BF012000205DF808FB00BF5C
:100A70004DF808EDFFF7E0FF94BF012000205DF87E
:100A800008FB00BF4DF808EDFFF7CEFF94BF012033
:100A900000205DF808FB00BF4DF808EDFFF7C4FF2C
:100AA00034BF012000205DF808FB00BF4FEA41027F
:100AB000B2F1E04324BFB3F5001CDCF1FE5C0DD9BC
:100AC00001F0004C4FEAC0024CEA5070B2F1004F06
:100AD00040EB830008BF20F00100704711F0804F09
:100AE00021D113F13872BCBF01F00040704741F4CE
:100AF00080114FEA5252C2F11802C2F1200C10FAD2
:100B00000CF320FA02F018BF40F001004FEAC123B5
:100B10004FEAD32303FA0CFC40EA0C0023FA02F359
:100B20004FEA4303CCE77FEA625307D150EA01332F
:100B30001EBF4FF0FE4040F44000704701F00040FF
:100B400040F0FE4040F40000704700BF80F00040DD
:100B500002E000BF81F0004142001FBF5FEA410395
:100B600092EA030F7FEA226C7FEA236C6AD04FEA95
:100B70001262D2EB1363C1BFD218414048404140DA
:100B8000B8BF5B42192B88BF704710F0004F40F48C
:100B9000000020F07F4018BF404211F0004F41F4A8
:100BA000000121F07F4118BF494292EA030F3FD074
:100BB000A2F1010241FA03FC10EB0C00C3F1200387
:100BC00001FA03F100F0004302D5494260EB400016
:100BD000B0F5000F13D3B0F1807F06D340084FEA81
:100BE000310102F10102FE2A51D2B1F1004F40EB76
:100BF000C25008BF20F0010040EA030070474900DE
:100C000040EB0000013A28BFB0F5000FEDD2B0FA7A
:100C100080FCACF1080CB2EB0C0200FA0CF0AABF9D
:100C200000EBC25052421843BCBFD040184370473B
:100C300092F0000F81F4000106BF80F40000013241
:100C4000013BB5E74FEA41037FEA226C18BF7FEA18
:100C5000236C21D092EA030F04D092F0000F08BF5A
:100C60000846704790EA010F1CBF0020704712F041
:100C70007F4F04D1400028BF40F00040704712F180
:100C800000723CBF00F50000704700F0004343F0E5
:100C9000FE4040F4000070477FEA226216BF08461B
:100CA0007FEA23630146420206BF5FEA412390EADE
:100CB000010F40F4800070474FF0000304E000BFD4
:100CC00010F0004348BF40425FEA000C08BF704785
:100CD00043F0964301464FF000001CE050EA010249
:100CE00008BF70474FF000030AE000BF50EA01025E
:100CF00008BF704711F0004302D5404261EB41014B
:100D00005FEA010C02BF84460146002043F0B6436F
:100D100008BFA3F18053A3F50003BCFA8CF2083A94
:100D2000A3EBC25310DB01FA02FC634400FA02FC9D
:100D3000C2F12002BCF1004F20FA02F243EB0200A4
:100D400008BF20F00100704702F1200201FA02FC06
:100D5000C2F1200250EA4C0021FA02F243EB0200F9
:100D600008BF20EADC7070474FF0FF0C1CEAD0523D
:100D70001EBF1CEAD15392EA0C0F93EA0C0F6FD0FE
:100D80001A4480EA010C400218BF5FEA41211ED0DC
:100D90004FF0006343EA501043EA5111A0FB0131C8
:100DA0000CF00040B1F5000F3EBF490041EAD3719D
:100DB0005B0040EA010062F17F02FD2A1DD8B3F119
:100DC000004F40EBC25008BF20F00100704790F088
:100DD000000F0CF0004C08BF49024CEA502040EADA
:100DE00051207F3AC2BFD2F1FF0340EAC2507047A0
:100DF00040F400004FF00003013A5DDC12F1190FDE
:100E0000DCBF00F000407047C2F10002410021FA4F
:100E100002F1C2F1200200FA02FC5FEA310040F167
:100E2000000053EA4C0308BF20EADC70704792F0E0
:100E3000000F00F0004C02BF400010F4000F013A18
:100E4000F9D040EA0C0093F0000F01F0004C02BF13
:100E5000490011F4000F013BF9D041EA0C018FE782
:100E60000CEAD15392EA0C0F18BF93EA0C0F0AD088
:100E700030F0004C18BF31F0004CD8D180EA0100AE
:100E800000F00040704790F0000F17BF90F0004F47
:100E9000084691F0000F91F0004F14D092EA0C0F29
:100EA00001D142020FD193EA0C0F03D14B0218BFBC
:100EB000084608D180EA010000F0004040F0FE4002
:100EC00040F40000704740F0FE4040F4400070479E
:100ED0004FF0FF0C1CEAD0521EBF1CEAD15392EA1D
:100EE0000C0F93EA0C0F69D0A2EB030280EA010C0D
:100EF00049024FEA402037D04FF0805343EA1111A6
:100F000043EA10130CF000408B4238BF5B0042F103
:100F10007D024FF4000C8B4224BF5B1A40EA0C00A8
:100F2000B3EB510F24BFA3EB510340EA5C00B3EBDA
:100F3000910F24BFA3EB910340EA9C00B3EBD10FC8
:100F400024BFA3EBD10340EADC001B0118BF5FEA1A
:100F50001C1CE0D1FD2A3FF650AF8B4240EBC25043
:100F600008BF20F0010070470CF0004C4CEA502004
:100F70007F32C2BFD2F1FF0340EAC250704740F453
:100F800000004FF00003013A37E792F0000F00F045
:100F9000004C02BF400010F4000F013AF9D040EAC3
:100FA0000C0093F0000F01F0004C02BF490011F457
:100FB000000F013BF9D041EA0C0195E70CEAD1534F
:100FC00092EA0C0F08D142027FF47DAF93EA0C0F36
:100FD0007FF470AF084676E793EA0C0F04D14B021A
:100FE0003FF44CAF08466EE730F0004C18BF31F0CC
:100FF000004CCAD130F000427FF45CAF31F00043C6
:101000007FF43CAF5FE700BF4FF0FF3C06E000BF5E
:101010004FF0010C02E000BF4FF0010C4DF804CD81
:101020004FEA40024FEA41037FEA226C18BF7FEA91
:10103000236C11D001B052EA530C18BF90EA010F93
:1010400058BFB2EB030088BFC81738BF6FEAE17022
:1010500018BF40F0010070477FEA226C02D15FEABE
:10106000402C05D17FEA236CE4D15FEA412CE1D02A
:101070005DF8040B704700BF844608466146FFE7F1
:101080000FB5FFF7C9FF002848BF10F1000F0FBDD3
:101090004DF808EDFFF7F4FF0CBF012000205DF8CC
:1010A00008FB00BF4DF808EDFFF7EAFF34BF012051
:1010B00000205DF808FB00BF4DF808EDFFF7E0FFEA
:1010C00094BF012000205DF808FB00BF4DF808ED3B
:1010D000FFF7D2FF94BF012000205DF808FB00BF9E
:1010E0004DF808EDFFF7C8FF34BF012000205DF880
:1010F00008FB00BF53B94AB9002908BF00281CBF2C
:101100004FF0FF314FF0FF3000F074B9ADF1080C33
:101110006DE904CE00F006F8DDF804E0DDE9022315
:1011200004B070472DE9F047089E0D4604468846F6
:10113000002B4DD18A42944668D9B2FA82F252B15C
:1011400001FA02F3C2F1200120FA01F10CFA02FCCB
:1011500041EA030894404FEA1C45210CB8FBF5FE18
:101160001FFA8CF705FB1E8341EA03430EFB07F1D0
:1011700099420BD91CEB03030EF1FF3080F01E8166
:10118000994240F21B81AEF1020E63445B1AA4B295
:10119000B3FBF5F005FB103344EA034400FB07F70B
:1011A000A7420AD91CEB040400F1FF3380F0088148
:1011B000A74240F2058164440238E41B40EA0E4035
:1011C00000211EB1D4400023C6E90043BDE8F087EA
:1011D0008B4208D9002E00F0EE800021C6E9000500
:1011E0000846BDE8F087B3FA83F100294AD1AB4243
:1011F00002D3824200F2F980841A65EB03030120D6
:101200009846002EE2D0C6E90048DFE702B9FFDECB
:10121000B2FA82F2002A40F09180A1EB0C054FEA6D
:101220001C471FFA8CFE0121B5FBF7F307FB135097
:10123000250C45EA00450EFB03F0A84208D91CEB3B
:10124000050503F1FF3802D2A84200F2CB804346E5
:101250002D1AA4B2B5FBF7F007FB105544EA05447C
:101260000EFB00FEA64508D91CEB040400F1FF3577
:1012700002D2A64500F2BB802846A4EB0E0440EA49
:1012800003409EE7C1F120078B4022FA07FC4CEA9D
:10129000030C20FA07F405FA01F31C43FD404FEA62
:1012A0001C4900FA01F3B5FBF9F8200C1FFA8CFE7B
:1012B00009FB185540EA054508FB0EF0A84202FA62
:1012C00001F20BD91CEB050508F1FF3A80F088808C
:1012D000A84240F28580A8F1020865442D1AA4B204
:1012E000B5FBF9F009FB105544EA054500FB0EFE7D
:1012F000AE4508D91CEB050500F1FF346CD2AE45B4
:101300006AD90238654440EA0840A0FB0294A5EB84
:101310000E05A542C846A64656D353D05EB1B3EBE0
:10132000080265EB0E0505FA07F722FA01F3CD4036
:101330001F43C6E900750021BDE8F087C2F1200314
:1013400020FA03F10CFA02FC25FA03F395400D4351
:101350004FEA1C471FFA8CFEB3FBF7F107FB113075
:101360002B0C43EA004301FB0EF0984204FA02F40E
:1013700008D91CEB030301F1FF382FD298422DD975
:10138000023963441B1AADB2B3FBF7F007FB10330D
:1013900045EA034500FB0EF3AB4208D91CEB0505FB
:1013A00000F1FF3816D2AB4214D902386544ED1A69
:1013B00040EA014138E73146304607E78646E5E630
:1013C0001846FAE64B45A9D2B9EB020864EB0C0EBD
:1013D0000138A3E74046EAE7204694E74146D1E7D3
:1013E000D0467BE7023B654432E7084609E76444A0
:1013F000023842E7704700BF844641EA000313F019
:1014000003036DD1403A41D351F8043B40F8043B0B
:1014100051F8043B40F8043B51F8043B40F8043BCE
:1014200051F8043B40F8043B51F8043B40F8043BBE
:1014300051F8043B40F8043B51F8043B40F8043BAE
:1014400051F8043B40F8043B51F8043B40F8043B9E
:1014500051F8043B40F8043B51F8043B40F8043B8E
:1014600051F8043B40F8043B51F8043B40F8043B7E
:1014700051F8043B40F8043B51F8043B40F8043B6E
:1014800051F8043B40F8043B403ABDD2303211D30E
:1014900051F8043B40F8043B51F8043B40F8043B4E
:1014A00051F8043B40F8043B51F8043B40F8043B3E
:1014B000103AEDD20C3205D351F8043B40F8043B0E
:1014C000043AF9D2043208D0D2071CBF11F8013B0C
:1014D00000F8013B01D30B8803806046704700BFD2
:1014E000082A13D38B078DD010F003038AD0C3F1E1
:1014F0000403D21ADB071CBF11F8013B00F8013BC3
:1015000080D331F8023B20F8023B7BE7043AD9D381
:10151000013A11F8013B00F8013BF9D20B78037056
:101520004B7843708B7883706046704700000000F2
:1015300000000000000000000000000000000000AB
:10154000A2EB0300704700BF02780B78012A28BF86
:101550009A42F5D16DE9044540EA0104CDE90267FC
:101560006FF0000C4FEA447212B380EA010414F0E9
:10157000070F6AD100F0070420F0070004F003050C
:1015800021F007014FEAC505F0E8042314F0040F29
:10159000F1E804670CFA05F462EA040266EA04065C
:1015A0000AD063EA0403624667EA0407664603E07A
:1015B000F0E80423F1E8046782FA4CF582EA0604B5
:1015C000A4FA8CF46CBB83FA4CF583EA0705A5FA00
:1015D0008CF595B950E9022351E9026782FA4CF57E
:1015E00082EA0604A4FA8CF483FA4CF583EA070530
:1015F000A5FA8CF52543DBD09CB92DBAB5FA85F454
:1016000024F0070427FA04F1DDE9026723FA04F362
:1016100003F0FF0001F0FF01FDE80445A0EB01002D
:10162000704724BAB4FA84F424F0070426FA04F1CB
:10163000DDE9026722FA04F202F0FF0001F0FF0187
:10164000FDE80445A0EB0100704714F0030F3CD106
:1016500010F0030428D150F8082B51F8083B82FA07
:101660004CF582EA0305A5FA8CF55DB950F8042C17
:1016700051F8043C82FA4CF582EA0305A5FA8CF590
:10168000002DE8D02DBAB5FA85F424F0070423FA2A
:1016900004F122FA04F202F0FF0001F0FF01FDE87C
:1016A0000445A0EB010070474FEAC40420F003009A
:1016B00050F8082B21F0030151F8083B0CFA04F410
:1016C00062EA040263EA0403C9E710F003041AD0D3
:1016D000A1EB040120F00300E40750F8042B06D02E
:1016E0000FD28B785FFAA2F4E41A06D12BB1CB7833
:1016F0005FFAB2F4E41A00D11BB920465DF8104B32
:10170000704701F1040150F8042BCC0721F00301CC
:1017100051F8043B48D824D222F07F4482FA4CF599
:1017200094EA1325A5FA8CF50AD165B951F8043B62
:1017300084EA0204B4EB036F0ED150F8042BEBE7FC
:101740004FEA132355E035F07F454DD10878FDE889
:101750000445C0F1000070474FEA126203F0FF0336
:1017600047E002EA1C4482FA4CF594EA1345A5FAD4
:101770008CF50AD165B951F8043B84EA0204B4EB54
:10178000034F0CD150F8042BEBE74FEA134330E042
:1017900015EA1C4528D10B884FEA124229E04FEA8E
:1017A000124203EA1C4324E002F0FF0482FA4CF5E3
:1017B00094EA1365A5FA8CF50AD165B951F8043B92
:1017C00084EA0204B4EB032F09D150F8042BEBE7B1
:1017D0004FEA13630DE015F0FF0F05D10B684FEAD8
:1017E000122223F07F4304E04FF00000FDE804459F
:1017F000704712BA1BBA82FA4CF482EA0304A4FAC4
:101800008CF5B5FA85F402FA04F203FA04F34FEA10
:101810001260FDE80445A0EB136070470000000073
:1018200000000000000000000000000000000000B8
:1018300000000000000000000000000000000000A8
:1018400090F800F06DE9024520F007016FF0000C00
:1018500010F0070491F820F040F049804FF00004A8
:101860006FF00700D1E9002391F840F000F1080083
:1018700082FA4CF2A4FA8CF283FA4CF3A2FA8CF3BB
:101880004BBBD1E9022382FA4CF200F10800A4FA22
:101890008CF283FA4CF3A2FA8CF3E3B9D1E9042376
:1018A00082FA4CF200F10800A4FA8CF283FA4CF3AD
:1018B000A2FA8CF37BB9D1E9062301F1200182FA67
:1018C0004CF200F10800A4FA8CF283FA4CF3A2FA6D
:1018D0008CF3002BC6D0002A04BF04301A4612BA7B
:1018E000B2FA82F2FDE8024500EBD2007047D1E97E
:1018F000002304F00305C4F100004FEAC50514F00D
:10190000040F91F840F00CFA05F562EA05021CBFDD
:1019100063EA050362464FF00004A9E700000000F7
:1019200001F0FF01102A2BDB10F0070F08D010F890
:10193000013B013A8B422DD010F0070F42B3F6D194
:10194000F0B441EA012141EA014122F007047FF0AD
:1019500000070023F0E80256083C85EA010586EA04
:10196000010685FA47F5A3FA87F586FA47F6A5FA40
:1019700087F68EB9EED1F0BC01F0FF0102F007024C
:1019800032B110F8013B013A83EA010313B1F8D1F7
:101990000020704701387047002D06BF35460338D8
:1019A000073815F0010F07D1013015F4807F02BF11
:1019B000013015F4C03F0130F0BC0138704700BF62
:1019C0004FEA410C7FEA6C5C02D150EA013C0AD13B
:1019D0004FEA430C7FEA6C5C02D152EA033C02D12D
:1019E0004FF0000070474FF0010070474FEA41028E
:1019F00012F5001215D211D56FF47873B3EB625261
:101A000012D94FEAC12343F0004343EA505311F087
:101A1000004F23FA02F018BF404270474FF0000019
:101A2000704750EA013005D111F0004008BF6FF057
:101A3000004070474FF00000704700BF30B58DB0D8
:101A400000240794089409940A940B940194284B59
:101A50001A6B42F010021A631A6B02F01002019224
:101A6000019A02941A6B42F040021A631A6B02F058
:101A700040020292029A03941A6B42F001021A6326
:101A80001A6B02F001020392039A04941A6B42F05B
:101A900008021A631A6B02F008020492049A059471
:101AA0001A6B42F080021A631A6B02F080020592F0
:101AB000059A06941A6B42F020021A631B6B03F01E
:101AC00020030693069B0B4D22464FF4FF712846D8
:101AD00002F06AFB4FF4FF7307930123089302237C
:101AE00009930A9407A9284602F060FA0DB030BDA8
:101AF000003802400018024008B5012281880068C1
:101B000002F052FB08BD08B500228188006802F08F
:101B10004BFB08BD72B6FEE700B595B03022002140
:101B200008A806F04FFB0023039304930593069344
:101B300007930193204A116C41F080511164126C9B
:101B400002F080520192019A02931C4A136823F416
:101B5000404343F480431360136803F4404302930B
:101B6000029B012308934FF48033099302230E93C1
:101B70004FF480020F920622109248221192129383
:101B80000323139308A803F04FF980B90F2303939D
:101B900002210491002305934FF48052069207938B
:101BA00003A803F08FFB20B915B05DF804FBFFF725
:101BB000B1FFFFF7AFFF00BF0038024000700040E8
:101BC0002DE9884802F0E8F8FFF7A6FFFFF736FF97
:101BD00001F05AFA01F072FA01F08AFA01F0A2FA61
:101BE00001F0BAFA06F062F801F010F901F0D6FB44
:101BF00000F026FB00F074FB274C2046FFF783FF24
:101C000004F110073846FFF77EFF04F12006304646
:101C1000FFF779FF04F130052846FFF774FF04F160
:101C2000080B5846FFF768FF04F1180A5046FFF703
:101C300063FF04F128094846FFF75EFF04F1380806
:101C40004046FFF759FF4FF47A7002F0D1F858463A
:101C5000FFF759FF5046FFF756FF4846FFF753FF7F
:101C60004046FFF750FF2046FFF746FF3846FFF794
:101C700043FF3046FFF740FF2846FFF73DFF074888
:101C800002F01AF8064801F051FC01F069FC01F07D
:101C9000BDFB01F0B3F8F8E700000020701300204E
:101CA000C0EB000810B504464FF07C51FFF75CF81C
:101CB00001462346094CA4EB63042046FFF754F881
:101CC00001462046FFF750F801464FF07F50FEF7DF
:101CD00041FF01462046FFF747F810BDDF59375F47
:101CE0002DE9F04383B004460E46144F00224021F4
:101CF000384602F059FA04F07F04114D2C70DFF8D9
:101D00004480114C4FF03709CDF800900123424632
:101D10002946204603F0B5FC2E70CDF80090012333
:101D200042462946204603F0ACFC012240213846B9
:101D300002F03AFA002003B0BDE8F083001402403C
:101D4000C90B0020C80B0020CC0B002038B505467D
:101D50000C4600212A20FFF7C3FF022002F048F8BA
:101D600029462920FFF7BCFF022002F041F8214656
:101D70006420FFF7B5FF022002F03AF881212A2003
:101D8000FFF7AEFF0A2002F033F838BD70B5044605
:101D90000E46154601462820FFF7A2FF022002F05A
:101DA00027F80A212920FFF79BFF022002F020F8E4
:101DB00001216420FFF794FF022002F019F844F09B
:101DC00080012520FFF78CFF022002F011F8314638
:101DD0002620FFF785FF022002F00AF803213420B5
:101DE000FFF77EFF022002F003F803216720FFF7D0
:101DF00077FF022001F0FCFF81212A20FFF770FF0E
:101E0000062001F0F5FF45F080012720FFF768FF6D
:101E1000022001F0EDFF70BD2DE9F04182B00446D3
:101E2000134E00224021304602F0BEF9114D64F0FD
:101E30007F042C70104C114F4FF03708CDF8008004
:101E4000012322462946384603F01BFCCDF80080CA
:101E5000012322462946384603F013FC0122402183
:101E6000304602F0A1F9207802B0BDE8F08100BF51
:101E700000140240C90B0020C80B0020CC0B00202E
:101E800010B501463220FFF72BFF0A2001F0B0FF0A
:101E900080213420FFF724FF0A2001F0A9FF35201C
:101EA000FFF7BAFF044600213420FFF719FF0A208C
:101EB00001F09EFF204610BD2DE9F04383B004469B
:101EC0000D461646144F00224021384602F06CF9A8
:101ED00044F0800011490870DFF8448088F8000061
:101EE000104C4FF03709CDF8009001230E4A2046E0
:101EF00003F0C7FBCDF8009033462A464146204602
:101F000003F0BFFB01224021384602F04DF90020CA
:101F100003B0BDE8F08300BF00140240C90B0020ED
:101F200044000020CC0B0020C80B002010B530214D
:101F30006A20FFF7D5FE0A2001F05AFF0D21242068
:101F4000FFF7CEFE0A2001F053FF0E212820FFF7F5
:101F5000C7FE0A2001F04CFF8E213120FFF7C0FEA2
:101F60000A2001F045FF01210B20FFF7EFFE0A20B8
:101F700001F03EFF0020FFF783FF102802D001246C
:101F8000204610BD01210B20FFF7E0FE0A2001F0E2
:101F90002FFF00210A20FFF7D9FE0A20FFF770FF6C
:101FA000002841D10A2001F023FF00210B20FFF778
:101FB000CDFE0B20FFF764FF0446B8BB0A2001F0FA
:101FC00017FF24214120FFF7C1FE4120FFF758FFF2
:101FD000242801D00424D3E70A2001F009FFC021FE
:101FE0004220FFF7B3FE4220FFF74AFFC02801D08E
:101FF0000524C5E70A2001F0FBFE00212A20FFF797
:102000006FFE0A2001F0F4FE00213420FFF768FE85
:102010000A2001F0EDFE062203210E20FFF7B6FE96
:10202000642001F0E5FEABE70224A9E70324A7E75B
:1020300008B5014606224920FFF73EFF08BD000013
:1020400038B5354D0E2229463B20FFF735FF2A785B
:102050006B7843EA0223314C2380AA78EB7843EA79
:10206000022363802A796B7943EA0223A380AA7949
:10207000EB7943EA0223A3812A7A6B7A43EA0223AB
:10208000628B9B1AE381AA7AEB7A43EA0223A28B42
:102090009B1A23822A7B6B7B43EA0223E28B9B1AE7
:1020A00063821F4D2846FFF7C3FF2868C4F8060067
:1020B000AB8863811B4D94E8070085E80700B4F9FD
:1020C0000C00FEF7FDFD1849FEF702FF1749FEF769
:1020D00043FDE860B4F90E00FEF7F2FD1449FEF787
:1020E000F7FE1449FEF7F4FE2861B4F91000FEF77C
:1020F000E7FD0F49FEF7ECFE0E49FEF7E9FE6861C9
:10210000B4F91200FEF7DCFD0949FEF7E1FE0949CA
:10211000FEF7DEFEA86138BD480B0020580B0020FA
:102120003C0B0020780B00205CEFA6430000A84188
:102130006F1283413333654208B5C10001F0F801E5
:102140001B20FFF7CDFD08BD08B5C10001F0F80167
:102150001C20FFF7C5FD08BD38B5002534E0354C1F
:102160000E2221463B20FFF7A7FE2378627842EA41
:102170000322314B998A0A449A82A178E27842EA92
:102180000122D98A0A44DA822179627942EA01225B
:10219000198B0A441A83217A627A42EA0122598B06
:1021A0000A445A83A17AE27A42EA0122998B0A44CC
:1021B0009A83217B627B42EA0122D98B0A44DA832B
:1021C000052001F015FE0135B5F5967FC7DB1A4BEA
:1021D000B3F91410194A82FB0140C917C1EB601111
:1021E0009982B3F9161082FB0140C917C1EB601147
:1021F000D982B3F9181082FB0140C917C1EB6011F5
:102200001983B3F91A1082FB0140C917C1EB6011A1
:102210005983B3F91C1082FB0140C917C1EB60114F
:102220009983B3F91E1082FB0102C917C1EB621238
:10223000DA8338BD480B0020580B0020B5814E1BB7
:1022400010B586B0642001F0D3FD7520FFF7E4FDE2
:10225000224B187000240194029403940494059472
:1022600048F26B03ADF8043040F26B33ADF8063042
:102270006C23ADF8083040F21A43ADF80A3041F64D
:102280001B03ADF80C3041F21C03ADF80E3040F2E8
:102290001D23ADF8103042F26A03ADF812300DE0A4
:1022A00006AB03EB440313F8131C13F8140CFFF7ED
:1022B00017FD012001F09CFD0134E4B2092CEFD997
:1022C0000320FFF739FF0220FFF73EFFFFF72EFE46
:1022D000FFF742FF002006B010BD00BF380B002002
:1022E000D0B56E4BB3F90600B3F9084000282CDBDB
:1022F00000285DDB002840F39A80002C40F3978093
:10230000FEF7D0F806460F462046FEF7CBF8024609
:102310000B4630463946FEF759FA84460C460022F1
:102320005F4B604624F00041FEF7ACFB002872D002
:102330005C4B5D4A1A605D4B5D4A1A605D4B5E4ABC
:102340001A605E4B5E4A1A6075E0002CD0DAFEF728
:10235000A9F806460F462046FEF7A4F802460B46AB
:1023600030463946FEF732FA06460C4600224C4B00
:10237000304624F00041FEF785FB60B1494B504ADE
:102380001A604A4B4C4A1A604A4B4E4A1A604B4BF1
:102390004D4A1A604FE0434B4C4A1A60434B4C4A3B
:1023A0001A60444B4B4A1A60444B4B4A1A6042E055
:1023B000002C9FDDFEF776F806460F462046FEF716
:1023C00071F802460B4630463946FEF7FFF90646DD
:1023D0000C460022324B304624F00041FEF752FBFF
:1023E00060B1304B3D4A1A60304B334A1A60314B72
:1023F0002F4A1A60314B3A4A1A601CE0294B374A7F
:102400001A602A4B374A1A602A4B374A1A602B4BFC
:10241000364A1A600FE0364B224A1360234A32498B
:102420001160244A2F491160244A136003E00028F8
:1024300001DD002C00DBD0BDFEF734F806460F4668
:102440002046FEF72FF802460B4630463946FEF787
:10245000BDF906460C460022114B304624F00041DF
:10246000FEF710FB60B10F4B224A1A600F4B224A55
:102470001A60104B104A1A60104B204A1A60DAE7B3
:10248000084B1C4A1A60094B124A1A60094B1C4A35
:102490001A600A4B1B4A1A60CDE700BF780B002078
:1024A0000000F03F4000002052499D3ABC0B002044
:1024B000355E7ABFC00B0020A8C64BBEC40B0020FF
:1024C0000AD7A3BBBE9F7A3F4ED111BC6F1203BC8B
:1024D0007B140EBFE17A543F6F1203BB0AD7A33BB4
:1024E000A69B443C68910DBFE17A54BF99BB16BBD3
:1024F00099BB163B0AD7233B355E7A3F6F12033CEC
:10250000295C0FBFBC74933B2DE9F04F8FB0AB4CEF
:1025100020682168FEF728FC08902068A84E3168E2
:10252000FEF722FC03902068A64D2968FEF71CFCEC
:1025300004902068A44C2168FEF716FC81463068A0
:102540003168FEF711FC059030682968FEF70CFC35
:10255000804630682168FEF707FC069028682968E5
:10256000FEF702FC019028682168FEF7FDFB07904A
:1025700020682168FEF7F8FB0290944D2A69944B7D
:102580001A606A69934B1A60AA69934B1A60B5F98D
:102590000000FEF795FB914F3860B5F90200FEF799
:1025A0008FFBDFF83CA2CAF80000B5F90400FEF783
:1025B00087FB8C4B1860B5F90600FEF781FBDFF84E
:1025C00028B2CBF80000B5F90800FEF779FB874C7C
:1025D0002060B5F90A00FEF773FB854D286001F015
:1025E00001FC844E30603068834F3B68C01AFEF7B0
:1025F00063FB8249FEF76CFC009033683B60774FC9
:1026000038683968FEF7B0FB0646DAF80000DAF8F9
:102610000010FEF7A9FB01463046FEF79DFA06467C
:10262000704B18681968FEF79FFB01463046FEF7AD
:1026300093FAFFF737FB064638683146FEF794FBFE
:102640003860DAF800003146FEF78EFBCAF8000069
:10265000644A174610683146FEF786FB3860DBF89F
:102660000000DBF80010FEF77FFB064620682168BB
:10267000FEF77AFB01463046FEF76EFA06462868FA
:102680002968FEF771FB01463046FEF765FAFFF751
:1026900009FB0646DBF800003146FEF765FBCBF888
:1026A000000020683146FEF75FFB20602868314655
:1026B000FEF75AFB2860DBF800000146FEF74CFAF3
:1026C000064601994FF07C50FEF744FA0299FEF756
:1026D00041FA099001463046FEF746FB064620685F
:1026E0000146FEF739FA074649464046FEF732FAF8
:1026F0000A9001463846FEF737FB01463046FEF7A2
:102700002BFA064628680146FEF726FA0746069980
:102710000498FEF721FA0B9001463846FEF724FB99
:1027200001463046FEF718FA0C90DBF8000001462F
:10273000FEF712FA064641464846FEF70DFA0146F4
:102740003046FEF711FB064620680146FEF704FA04
:10275000074605994FF07C50FEF7FCF90D90029961
:10276000FEF7F8F901463846FEF7FEFA0146304614
:10277000FEF7F2F9064628680146FEF7EDF907462E
:1027800003990798FEF7E6F901463846FEF7ECFA9A
:1027900001463046FEF7E0F98146DBF800000146CD
:1027A000FEF7DAF9064604990698FEF7D3F90746CC
:1027B00001463046FEF7D8FA804621E0400000206E
:1027C000BC0B0020C00B0020C40B0020780B0020A5
:1027D0002C0B0020300B0020340B0020140B0020A9
:1027E000180B00201C0B0020AC0B0020B00B0020AD
:1027F000B40B0020B80B0020440B00200000FA446A
:1028000020680146FEF7A8F9049007990398FEF79F
:10281000A3F9064601460498FEF7A6FA014640468B
:10282000FEF79AF9804628680146FEF795F903906D
:1028300001990D98FEF78EF9069001460398FEF770
:1028400093FA01464046FEF787F98046DDF830C02E
:1028500061466046FEF788FA039049464846FEF70F
:1028600083FA01460398FEF777F9FDF72DFE0BF08A
:1028700009FCFEF71BF9814639463846FEF76CF92C
:10288000039031463046FEF767F9049005990898A1
:10289000FEF760F90199FEF75DF90299FEF75CF920
:1028A000019049464846FEF757F981460146099886
:1028B000FEF75AFA029041464046FEF74DF980462F
:1028C00001463846FEF750FA01460298FEF744F9F1
:1028D000074649460A98FEF747FA029041463046B5
:1028E000FEF742FA01460298FEF736F906464946D7
:1028F0000B98FEF739FA814641460698FEF734FAFE
:1029000001464846FEF728F98046DAF800000199AA
:10291000FEF72AFA8146B44A10680499FEF724FAB1
:1029200001464846FEF716F9814620684146FEF703
:102930001BFA029028683146FEF716FA0146029803
:10294000FEF708F901464846FEF706F98146A64A11
:1029500010680399FEF708FA0290A44B18680199D1
:10296000FEF702FA01460298FEF7F4F80190286893
:102970003946FEF7F9F90546DBF800004146FEF757
:10298000F3F901462846FEF7E5F801460198FEF7FF
:10299000E3F80546954B18680499FEF7E5F980467B
:1029A000DAF800000399FEF7DFF901464046FEF72A
:1029B000D1F88046DBF800003146FEF7D5F906462F
:1029C00020683946FEF7D0F901463046FEF7C2F8D6
:1029D00001464046FEF7C0F8044600214846FEF78F
:1029E00057FB00285BD100212846FEF751FB002849
:1029F00055D100212046FEF74BFB00284FD17C49E2
:102A00004846FEF7B1F9009E3146FEF7ADF9DFF812
:102A1000E4A1DAF80010FEF79FF8CAF80000744944
:102A20002846FEF7A1F93146FEF79EF9724F396844
:102A3000FEF792F838606E492046FEF795F9314668
:102A4000FEF792F96D4E3168FEF786F83060494620
:102A50004846FEF781F8DFF8A881D8F80010FEF7A5
:102A60007BF8DAF80010FEF777F8C8F8000029467E
:102A70002846FEF771F8634D2968FEF76DF839684E
:102A8000FEF76AF8286021462046FEF765F85E4C9E
:102A90002168FEF761F83168FEF75EF820605B4F51
:102AA000386800F10040DFF85891D9F80010FEF7BF
:102AB0005BF90446564D2868DFF848A1DAF80010A3
:102AC000FEF752F901462046FEF744F80646514CFF
:102AD0002068DFF834B1DBF80010FEF745F9014655
:102AE0003046FEF737F80099FEF73EF9DFF8288107
:102AF000D8F80010FEF730F80190D8F80000D9F8A7
:102B00000010FEF731F906462868DBF80010FEF7E2
:102B10002BF901463046FEF71FF806462068DAF822
:102B20000010FEF721F901463046FEF713F8009930
:102B3000FEF71AF93968FEF70FF80290D8F800008E
:102B4000DAF80010FEF710F906463868DBF80010D6
:102B5000FEF70AF901463046FDF7FCFF06462068FD
:102B6000D9F80010FEF700F901463046FDF7F4FFF2
:102B70000099FEF7F9F82968FDF7EEFF0646D8F848
:102B80000000DBF80010FEF7EFF883463868DAF84B
:102B90000010FEF7E9F801465846FDF7DDFF8246D2
:102BA0002868D9F80010FEF7DFF801465046FDF717
:102BB000D1FF0099FEF7D8F82168FDF7CDFF8246D6
:102BC000019B19461846FEF7CFF88146DDF808B09C
:102BD00059465846FEF7C8F801464846FDF7BCFF7F
:102BE000814631461AE000BF1C0B0020140B002068
:102BF0000AD7233C200B0020240B0020280B0020A8
:102C00002C0B0020300B0020340B0020BC0B0020CC
:102C1000C00B0020C40B0020400000203046FEF70F
:102C2000A3F801464846FDF797FF814651465046B6
:102C3000FEF79AF801464846FDF78EFFFFF732F897
:102C4000814601460198FEF78FF8C8F80000494612
:102C50005846FEF789F8386049463046FEF784F852
:102C6000286049465046FEF77FF820600FB0BDE867
:102C7000F08F00BF000000002DE9F0475A4D286892
:102C80000146FDF769FF594C2168FEF76DF80746CC
:102C9000DFF85CA1DAF800000146FDF75DFF554E54
:102CA0003168FEF761F801463846FDF755FF0746E3
:102CB00020684FF04041FEF757F82168FEF754F8BE
:102CC000804630680146FDF747FF3168FEF74CF853
:102CD00001464046FDF73EFF4FF07E51FDF73CFFB9
:102CE000FDF7F2FB804689463846FDF7EDFB42468C
:102CF0004B460BF0C5F93AA3D3E9002301F1004993
:102D00004946FDF739FCFDF7D1FE3B4F3863286893
:102D10004FF04041FEF728F83168FEF725F880466D
:102D2000DAF800000146FDF717FF2168FEF71CF8EE
:102D300001464046FDF710FFFDF7C6FB0BF078F9A2
:102D400027A3D3E9002301F100494946FDF714FC0C
:102D5000FDF7ACFEF86220680146FDF7FDFE316824
:102D6000FEF702F80646DAF800000146FDF7F4FE29
:102D70002968FDF7F9FF01463046FDF7EDFE0646EE
:102D800028684FF04041FDF7EFFF2968FDF7ECFFA1
:102D9000054620680146FDF7DFFE2168FDF7E4FFE8
:102DA00001462846FDF7D6FE4FF07E51FDF7D4FED2
:102DB000FDF78AFB04460D463046FDF785FB2246AB
:102DC0002B460BF05DF906A3D3E90023FDF7D4FBF6
:102DD000FDF76CFEB862BDE8F08700BFAFF300807E
:102DE0006666666666A64C40BC0B0020C00B0020E1
:102DF00040000020C40B0020780B002008B5FFF72E
:102E00001FF9FFF781FBFFF737FF08BD08B50E4834
:102E10000E4B03604FF48273436000238360C360F2
:102E2000036143614FF4007282613022C261036228
:102E3000436283620A23C36202F0C4FB00B908BD87
:102E4000FEF768FEFBE700BFCC0B002000500140FE
:102E500000B589B000230393049305930693079369
:102E60000268154B9A4202D009B05DF804FB0021BC
:102E7000019103F568435A6C42F480125A645A6C0B
:102E800002F480120192019A02911A6B42F0200220
:102E90001A631B6B03F020030293029B4FF47073C1
:102EA000039302230493032306930523079303A9A3
:102EB000024801F07BF8D7E70050014000140240BF
:102EC00082B0002100910B4B5A6C42F480425A644C
:102ED0005A6C02F480420092009A01911A6C42F0FE
:102EE00080521A641B6C03F080530193019B02B063
:102EF000704700BF00380240FEE7FEE7FEE7FEE74E
:102F0000FEE770477047704708B500F05FFF08BDE7
:102F100038B5074D284602F02DFF064C14F8640F13
:102F200000F0E8FC01222146284603F082F838BD73
:102F3000280C0020900D002010B5054C204602F012
:102F400019FF01220349204603F073F810BD00BFAA
:102F5000700C00205C0E002008B5024801F05BFCFC
:102F600008BD00BF8828002010B5054C204602F09F
:102F700001FF01220349204603F05BF810BD00BFAA
:102F8000B80C0020C40E002010B5054C204602F0FD
:102F9000F1FE01220349204603F04BF810BD00BFAB
:102FA000000D00202C0F002010B5054C204602F02B
:102FB000E1FE01220349204603F03BF810BD00BFAB
:102FC000480D0020940F00200120704708B505F03F
:102FD000CFF8162303604FF0FF3008BD08B54FF05F
:102FE000FF31FFF7F3FFFEE770B50C4616460025EC
:102FF00006E0AFF30080214601F8010B01350C46D5
:10300000B542F6DB304670BD70B50C46164600255D
:1030100004E014F8010BAFF300800135B542F8DB92
:10302000304670BD4FF0FF3070474FF400534B6097
:1030300000207047012070470020704710B50346FC
:103040000C4A0D490D48006840B10C480068034423
:10305000521A934206D8094A136010BD0748084C1B
:103060000460F2E705F084F80C2303604FF0FF30B2
:10307000F3E700BF0000032000040000240C002040
:10308000D82F00207047000008B50A480A4B03609B
:103090004FF4E133436000238360C36003610C227B
:1030A00042618361C36102F042FD00B908BDFEF7D1
:1030B00031FDFBE7000D00200078004008B50A480C
:1030C0000A4B03604FF4E133436000238360C36025
:1030D00003610C2242618361C36102F028FD00B9E3
:1030E00008BDFEF717FDFBE7480D0020007C0040FF
:1030F00008B50A480A4B03604FF416534360002397
:103100008360C36003610C2242618361C36102F08A
:103110000EFD00B908BDFEF7FDFCFBE7280C002002
:103120000044004008B50A480A4B03604FF4E133FD
:10313000436000238360C36003610C2242618361AA
:10314000C36102F0F4FC00B908BDFEF7E3FCFBE745
:10315000700C00200048004008B50A480A4B036084
:103160004FF4E133436000238360C36003610C22AA
:1031700042618361C36102F0DAFC00B908BDFEF769
:10318000C9FCFBE7B80C00200014014030B591B039
:1031900000230B930C930D930E930F930368764AC1
:1031A00093420FD0754A934238D0754A93425FD00C
:1031B000744A934200F08780734A934200F0AF80D4
:1031C00011B030BD00240194704B1A6C42F0804263
:1031D0001A641A6C02F080420192019A02941A6BEE
:1031E00042F010021A631B6B03F010030293029B60
:1031F0004FF4C0730B9302230C9303230E93082305
:103200000F930BA9624800F0D1FE22460421522000
:1032100000F014FE522000F049FED1E70024039490
:103220005A4B1A6C42F000421A641A6C02F00042C7
:103230000392039A04941A6B42F010021A631B6BF8
:1032400003F010030493049B03230B9302220C92BC
:103250000E9308230F930BA94D4800F0A7FE2246BA
:103260000521532000F0EAFD532000F01FFEA7E7E0
:1032700000240594454B1A6C42F400321A641A6C0F
:1032800002F400320592059A06941A6B42F0080285
:103290001A631B6B03F008030693069B60230B93D2
:1032A00002230C9303230E9307230F930BA9394892
:1032B00000F07CFE22460121262000F0BFFD2620E2
:1032C00000F0F4FD7CE700240794304B1A6C42F4C4
:1032D00080221A641A6C02F480220792079A0894DA
:1032E0001A6B42F008021A631B6B03F00803089381
:1032F000089B4FF440730B9302250C9503230E9308
:1033000007230F930BA9234800F050FE22462946BD
:10331000272000F093FD272000F0C8FD50E700248F
:1033200009941A4B5A6C42F020025A645A6C02F00B
:1033300020020992099A0A941A6B42F040021A6319
:103340001B6B03F040030A930A9B4FF484430B93D7
:1033500002230C9303250E9508230F930BA90E4807
:1033600000F024FE22462946472000F067FD472052
:1033700000F09CFD24E700BF00780040007C004086
:103380000044004000480040001401400038024062
:1033900000100240000C02400018024008B5012253
:1033A0000C490D4802F045FE01220C490C4802F080
:1033B00040FE01220B490C4802F03BFE01220B4962
:1033C0000B4802F036FE01220A490B4802F031FE9A
:1033D00008BD00BFF40D0020280C00205C0E00206A
:1033E000700C0020C40E0020B80C00202C0F002010
:1033F000000D0020940F0020480D002008B54FF666
:10340000FF73202202F0C3FB08BD0000194B93F8A4
:103410006530FF2B14D0184B93F86530FF2B14D078
:10342000164B93F86530FF2B14D0154B93F865308D
:10343000FF2B14D0134B93F86530FF2B14D070473B
:103440000C4B002283F86520E5E70B4B002283F844
:103450006520E5E7094B002283F86520E5E7084B86
:10346000002283F86520E5E7064B002283F86520FB
:10347000E5E700BF900D0020F80D0020600E002051
:10348000C80E0020300F002000238B423AD210B526
:1034900005E0012A1CD00133DBB28B4231D210F897
:1034A00003C0194A92F89021002AF2D1BCF1280FEA
:1034B000F1D1154C4FF0000E84F891E14FF0010E60
:1034C00084F891E184F800C0724484F89021E2E726
:1034D0000D4C94F891E10EF10102D2B284F89121E1
:1034E00004F80EC0BCF1290FD5D102F1010C84F80B
:1034F00091C14FF0000C04F802C0FF2284F8902123
:10350000C9E710BD704700BF980F002010B50A46EC
:10351000054C0146204603F090FD204603F0A7FD30
:10352000012000F065FC10BDA41300200FB410B5FD
:1035300082B004AA52F8041B0192084C204604F001
:1035400093FE2046FEF77CF901462046FFF7DEFF9A
:1035500002B0BDE8104004B0704700BF601000200A
:10356000274B93F89031FF2B00D07047F0B585B012
:10357000234CC8212046FFF7C9FF22492046FDF70A
:10358000E3FF50B120491E48FDF7DEFFE8B11C4BB8
:10359000002283F8902105B0F0BD1C4BDE6A1F6B42
:1035A000986AFCF791FF04460D463846FCF78CFFFD
:1035B000CDE902013046FCF787FFCDE90001224644
:1035C0002B461348FFF7B2FFE1E7124C204600F00C
:1035D00019F9E669276AA069FCF776FF04460D46EB
:1035E0003846FCF771FFCDE902013046FCF76CFF6D
:1035F000CDE9000122462B460548FFF797FFC6E7B5
:10360000980F0020F0EB000824EC0008780B002055
:10361000F8EB00087013002000238B4240D210B456
:1036200008E0204C227842F0010222700130013380
:103630008B4233D2A0F13602092A29D801A454F8CA
:1036400022F000BF233600089136000891360008AA
:103650006D3600089136000891360008793600086A
:103660009136000891360008853600080D4C227806
:1036700042F002022270D9E70A4C227842F0080296
:103680002270D3E7074C227842F004022270CDE783
:10369000044C227842F080022270C7E710BC7047C9
:1036A000704700BF6012002010B54FF0000C4FF0C3
:1036B000FF0E72460BE010F80C305340064AD25C05
:1036C00082EA0E02054C14F803E00CF1010C61458E
:1036D000F1DC4EEA022010BD54EC000854ED000865
:1036E00084460020034604E01CF803201044C0B2C6
:1036F00001338B42F8D3704708B50146024B586A34
:10370000FFF77CFE08BD00BF7013002008B500F075
:103710006FFB08BD2DE9F0418F1D50380F2822D8CE
:10372000DFE800F00E082353292F34393E434821A7
:103730002121214D012403254FF04008342603E0C8
:1037400000240425A0463026032A44D055B16A003F
:10375000294800EB4600FDF74FFE284B1B68294621
:1037600030469847D4BBBDE8F08100240425A0462C
:1037700037260322E8E700240425A0463A26032240
:10378000E2E700240425A0464126DDE700240425C5
:10379000A0464526D8E700240425A0464926D3E7BD
:1037A00000240425A0464D26CEE700240425A0468B
:1037B0005126C9E700240425A0465526C4E7104B2E
:1037C0001E6800240425A046BEE7012403254FF00F
:1037D0002E083D26B8E715460024B8E762003946B2
:1037E000054800EB4800FDF707FE044B1B68214627
:1037F00040469847B7E700BF40110020381100202D
:1038000068130020314B1B78002B5BD1704704F10B
:1038100034032F4E36F91300FDF752FA2D49FDF708
:1038200057FB4FF08341FDF79FFA45F8240004F160
:10383000370336F91300FDF743FA2649FDF748FB35
:103840002549FDF791FAA31C05EB8303586004F1A9
:103850003D0336F91300FDF733FA1E49FDF738FB37
:103860001E49FDF781FAA31D45F823000134022CFF
:10387000CDDD164B1B7813F0010F04D0134A1378DB
:1038800003F0FE031370114B1B7813F0020F04D0EA
:103890000E4A137803F0FD0313700C4B1B7813F0E2
:1038A000040F04D0094A137803F0FB031370074B8D
:1038B0001B7813F0080F04D0044A137803F0F703C1
:1038C000137070BD70B505460024D0E7601200206B
:1038D00040110020004CFF460000FA440000344331
:1038E00018B1034A1060002070476FF00500704760
:1038F0003C110020F0B583B0544B1E68002E00F040
:103900009E80534B1D68691C1960524B5855524B91
:103910001B68062B00F28E80DFE803F004458989DE
:10392000044589004B4B1B78552B12D10A2940F2D4
:103930008180484C0A212046FFF7D2FEA37A8342B9
:103940000FD0434B1D6020462A46611CFDF754FDF5
:1039500075E03F4B1D603F482A46411CFDF74CFD7A
:103960006DE03C4BD9789A7842EA0122ADF800200C
:1039700059791A7942EA0122ADF80220D9799A7967
:1039800042EA0122ADF80420597A1A7A42EA012269
:10399000ADF80620042269465878FFF7BBFE2C4B91
:1039A00000221A6046E0022944D92A4B5B78032B97
:1039B00026D1284B9F787B1D994240D38A1E254BE8
:1039C0009C5C40EA042491B21846FFF76DFE8442E5
:1039D0001ED179080D460023AB4221D25A00D01CDB
:1039E0001C4C14F800C00432A05C1C4A12681A4433
:1039F00040EA0C201A4C24F8120001339BB2EBE78A
:103A0000134B1D6013482A46411CFDF7F5FC16E0D8
:103A10000F4B1D600F482A46411CFDF7EDFC0EE0E0
:103A20000E4B1868B0470A4B00221A6002E0084BA0
:103A300000221A60064B1B68B3F5807F01D003B0EB
:103A4000F0BD034B00221A60F9E700BF38110020D7
:103A50006C130020641200206413002068130020FF
:103A60004011002018B1034A1060002070476FF029
:103A7000050070473811002043188F2B00F29C80FE
:103A800070B582B004460D465C4B1B68062B00F2F5
:103A90009680DFE803F00422496394224900042958
:103AA00000F29080564B1B68002B00F08E80FF22A6
:103AB0008DF80020AA228DF8012027228DF80220FF
:103AC0008DF80300020A8DF8042005216846984706
:103AD0004C4B1C60002002B070BD494B1E68002E8C
:103AE00076D08BB25B009BB2FB2B74D8464B1B7815
:103AF0008DF8003003238DF80130030A8DF8023071
:103B00008DF803000B0A8DF804308DF8051006219E
:103B10006846FFF7C9FD030A8DF806308DF80700E7
:103B200008216846B047D3E7032957D8374B1B68AD
:103B3000002B56D0FF228DF80020AA228DF80120FC
:103B400027228DF802208DF80300020A8DF8042048
:103B5000052269462C4800789847B9E72C4B1E6827
:103B6000002E41D08BB25B009BB2B3F5807F3ED874
:103B7000254A10784000274AE1B200F0FE00B04725
:103B80000128A5D1244B1E68A6B300230EE05A00DD
:103B90000132204911F802C011F81320181942EA25
:103BA0000C221E4921F8102001339BB2AB42EED308
:103BB00029462046B0478BE76FF0050070476FF04D
:103BC000050088E76FF0050085E76FF0040082E7E5
:103BD0006FF004007FE76FF003007CE76FF00500F3
:103BE00079E76FF0040076E76FF0040073E76FF099
:103BF000030070E76FF004006DE700BF641300205E
:103C00003C11002068130020580000202C110020D7
:103C100034110020641200203811002040110020CF
:103C200070B50126092E1DDCFFF762FA0F4B996A69
:103C300001226431586A02F0FCF902240C4D002381
:103C40002B7003213420FFF717FF642000F0D0F819
:103C50002B781BB9013CF1D10136E3E70548FFF7AA
:103C600065FC02E00448FFF761FC70BD70130020A2
:103C7000601200202CEC00083CEC0008062807D855
:103C8000054B1860054B19700020054B18607047F4
:103C90006FF00500704700BF64130020580000203B
:103CA0006C13002018B1034A1060002070476FF0B9
:103CB000050070473011002008B50A4B43620A4BDB
:103CC000836250210020FFF7D9FF0848FFF708FE64
:103CD0000748FFF7C7FE0748FFF7E4FFFFF7A0FF1D
:103CE00008BD00BF280C0020900D0020F936000808
:103CF000193600080D370008DFF834D0FFF7C2F995
:103D00000C480D490D4A002302E0D458C450043336
:103D1000C4188C42F9D30A4A0A4C002301E013600C
:103D20000432A242FBD304F029FAFDF749FF7047A1
:103D30000000032000000020F80A00201CF3000807
:103D4000F80A0020D42F0020FEE7000010B504463A
:103D50000E4B18784FF47A73B3FBF0F30C4A1068EB
:103D6000B0FBF3F000F0B0F868B90F2C01D90120D6
:103D70000AE0002221464FF0FF3000F05FF8054BCB
:103D80001C60002000E0012010BD00BF5900002091
:103D9000540000205C00002008B50B4B1A6842F468
:103DA00000721A601A6842F480621A601A6842F45B
:103DB00080721A60032000F02FF80F20FFF7C6FF73
:103DC000FFF77EF8002008BD003C0240034A11685E
:103DD000034B1B780B441360704700BF9C130020FB
:103DE00059000020014B1868704700BF9C13002049
:103DF00038B50446FFF7F6FF0546B4F1FF3F02D0A1
:103E0000044B1B781C44FFF7EDFF401BA042FAD384
:103E100038BD00BF59000020074AD36823F4E0638F
:103E20001B041B0C000200F4E060034343F0BF637B
:103E300043F40033D360704700ED00E000B5194B48
:103E4000DB68C3F30223C3F1070CBCF1040F28BFE6
:103E50004FF0040C03F1040EBEF1060F18D9033B1A
:103E60004FF0FF3E0EFA0CFC21EA0C0199400EFACD
:103E700003F322EA0303194300280BDB0901C9B24B
:103E800000F1604000F5614080F800135DF804FB2C
:103E90000023E5E700F00F000901C9B2024B1954F5
:103EA000F4E700BF00ED00E014ED00E0002807DBC0
:103EB00000F01F02400901239340024A42F82030DB
:103EC000704700BF00E100E00138B0F1807F0BD205
:103ED0004FF0E0235861054AF02182F823100020BA
:103EE000986107221A6170470120704700ED00E0D9
:103EF00070B50446866DFFF775FF94F83530DBB278
:103F0000022B06D080236365002384F8343001201F
:103F100070BD05462268136823F0160313602268FB
:103F2000536923F080035361236CE3B12268136863
:103F300023F0080313602268136823F00103136061
:103F400023681B6813F0010F11D0FFF74BFF431BD1
:103F5000052BF5D920236365032084F83500002361
:103F600084F83430D4E7A36C002BDFD1E3E7E26DB3
:103F70003F239340B360012384F83530002084F858
:103F80003400C5E790F83530DBB2022B03D0802334
:103F9000436501207047052380F8353002681368B7
:103FA00023F00103136000207047000000230F2B53
:103FB00000F2F18070B582B061E085685E00032494
:103FC000B44025EA0405CC68B4402C4384604568BD
:103FD00025EA02054C68C4F300129A402A43426065
:103FE0005BE0DC08083450F8246003F00702950019
:103FF0000F22AA4026EA020E0A69AA4042EA0E02ED
:1040000040F824205DE0092200E0002202FA0EF2CE
:104010002A430234604D45F82420604A94686FEAD0
:104020000C0224EA0C054E6816F4801F01D04CEAFD
:1040300004055A4CA560E46802EA04054E6816F4CB
:10404000001F01D04CEA0405544CE560646802EAA4
:1040500004054E6816F4003F01D04CEA04054F4CAD
:104060006560246822404D6815F4803F01D04CEA19
:1040700004024A4C226001330F2B00F28A80012295
:104080009A400C6804EA020C32EA0404F3D14C684A
:1040900004F00304013C012C8FD94A6802F00302AA
:1040A000032A09D0C4685D000322AA4024EA02045E
:1040B0008A68AA402243C2604A6802F00302022AC8
:1040C0008FD004684FEA430E032202FA0EF224EA6C
:1040D00002044A6802F0030202FA0EF2224302606E
:1040E0004A6812F4403FC6D0002201922C4A546C18
:1040F00044F480445464526C02F480420192019A68
:104100009C08A51C244A52F8255003F003024FEAEC
:10411000820E0F2202FA0EF225EA0205214A90428F
:104120003FF473AF02F58062904222D002F58062C4
:10413000904220D002F5806290421ED002F580624B
:1041400090421CD002F5806290421AD002F5806243
:10415000904218D002F58062904216D002F580623B
:10416000904214D002F5806290423FF44CAF0A2294
:104170004CE701224AE7022248E7032246E70422ED
:1041800044E7052242E7062240E707223EE70822ED
:104190003CE702B070BD704700380140003C014070
:1041A00000380240000002400AB1816170470904F2
:1041B000816170472DE9F04383B0D0F8008001EBB6
:1041C000C10300EB83039A6A5B6A9A4254D807469C
:1041D0000C469B1A01EBC10200EB8202D2699A42A3
:1041E00000D31A4602F103094FEA990915E006F1D6
:1041F00003094FEA9909BB7904EBC40507EB850570
:10420000296A0093B3B2E2B2404602F059FA2B6A2F
:1042100033442B62AB6A3344AB6208EB441303F5BF
:1042200010639B699BB24B4512D304EBC40207EBAE
:104230008202916A536A99420AD24BB15B1A04EB2B
:10424000C40207EB8202D6699E42D0D31E46CEE757
:1042500004EBC40007EB80077A6ABB6A9A420FD866
:1042600004F00F040123A340D8F8344824EA0304DF
:10427000C8F83448002000E0012003B0BDE8F08316
:104280000020FAE730B583B000287AD004460568EC
:1042900090F89534C3B1032384F89534B5F1A04F59
:1042A00017D0206801F0BEFF237C8DF80030231D5D
:1042B0000ECB206801F0F5FE70B1022384F895342E
:1042C0000125284603B030BD80F8943403F0FCFD8E
:1042D000E1E70023A371E4E70021206802F011FC6C
:1042E000024608B9034617E0022384F895340125F5
:1042F000E7E703EBC30104EB8101012048750B756F
:10430000CB8500200876C861086203EBC30104EB8B
:10431000810148620133DBB220799842E9D816E086
:1043200002EBC20304EB8303002183F8551283F8E8
:10433000542283F85812C3F85C12C3F8601202EBDF
:10434000C20304EB8303C3F864120132D2B2904279
:10435000E6D8237C8DF80030231D0ECB206801F0B9
:10436000B7FF054620B1022384F895340125A8E75C
:1043700000236374012384F89534206802F07FFBE6
:104380009FE701259DE7036890F89424012A1AD03D
:1043900010B50446012280F89424DA6812F0400F28
:1043A00002D0427B012A09D0206801F035FF206845
:1043B00002F057FB002084F8940410BD9A6B42F47D
:1043C00080329A63F0E702207047000070B504461F
:1043D0000D460068066C00EB411303F530639A68E4
:1043E000A179012911D038498E4256D03DB905EB4B
:1043F000C50304EB8303D3F86432002B5ED0E9B22B
:10440000204603F0ABFD002070BD12F0080F09D06C
:104410002E498E42F7D912F4004FF4D04FF40042E7
:104420009A60F0E712F0200F02D020229A60EAE7AB
:1044300012F0280FE7D125498E4206D912F4004F19
:1044400003D04FF400429A60DDE705EBC50204EBB0
:104450008202D2F874121B69C3F31203CB1AC2F89A
:1044600068327DB905EBC50204EB8202D2F8642202
:104470006AB105EBC50204EB8202D2F860120B446C
:10448000C2F86032E9B2204603F068FDBBE704F2EF
:104490009C42012102F076FBF4E712F4004F03D0B6
:1044A0004FF400429A60AEE712F0200F01D02022B4
:1044B0009A60E9B2204603F051FDA4E704F29C4261
:1044C000002102F05FFB9AE70A31544F0A30544F43
:1044D00038B5044603681D6C03EB4113D3F8081B81
:1044E0000E4A954207D903F5306311F4004F02D00C
:1044F0004FF400429A60204603F028FD074B9D428E
:1045000002D9A379012B01D0002038BD04F29C42CE
:104510000121206802F036FBF6E700BF0A30544F55
:1045200090F89434012B0CD010B50446012380F888
:1045300094344174006802F084FA002084F89404F2
:1045400010BD0220704738B505468C4611F0800F2B
:104550002BD101F00F0E0EEBCE04A40004F5147461
:104560000444211D0EEBCE0E00EB8E0E00208EF8C3
:1045700055020CF00F0C81F800C0C2F30A028A60E9
:104580000B714A780AB1A1F81AC0022B1CD095F819
:104590009434012B1BD0012385F89434286801F052
:1045A00072FF002085F8940438BD01F00F0000EB85
:1045B000C001890010312944043100EBC00005EB33
:1045C000800001244475D4E700234B71DFE702200B
:1045D000EAE710B504460A4611F0800F20D101F039
:1045E0000F0000EBC0039B0003F514732344191D57
:1045F00000EBC00004EB8000002380F8553202F08D
:104600000F020A7094F89434012B18D0012384F817
:104610009434206801F086FF002084F8940410BDD3
:1046200001F00F0000EBC0039B0010332344191D61
:1046300000EBC00004EB800001234375DFE702209C
:10464000EDE710B5144601F00F0C0CEBCC0189001E
:1046500001F51471014404310CEBCC0E00EB8E0E0D
:10466000CEF86022CEF864320023CEF868328EF89D
:1046700055328EF854C28279012A04D0006802F0C3
:1046800037F8002010BDCEF87042F7E701F00F01B7
:1046900001EBC10100EB8101D1F86802704710B550
:1046A000144601F00F0C0CEBCC01890010310144D1
:1046B00004310CEBCC0E00EB8E0ECEF82020CEF8A1
:1046C00024300023CEF8283001238EF815308EF8E0
:1046D00014C082799A4204D0006802F009F80020E0
:1046E00010BDCEF83040F7E738B501F00F0502797C
:1046F000AA4238D304460B4611F0800F1FD101EBBC
:10470000C101890001F514710144043103EBC303B5
:1047100000EB8303002283F8552201238B700D7078
:1047200094F89434012B20D0012384F89434206829
:1047300002F02CF985B1002084F8940438BD05EB13
:10474000C501890010310144043105EBC50300EBBC
:10475000830301225A75E0E704F29C42A1792068A4
:1047600002F010FAE7E70120E8E70220E6E701F0AF
:104770000F0302799A4230D310B5044611F0800F2E
:104780001ED103EBC301890001F51471014404310A
:1047900003EBC30200EB8202002082F855020022E4
:1047A0008A700B7094F89434012B18D0012384F88C
:1047B0009434206802F017F9002084F8940410BDA6
:1047C00003EBC301890010310144043103EBC30240
:1047D00000EB820201205075E1E7012070470220C2
:1047E000EDE708B511F0800F0CD101F00F0101EBDE
:1047F000C101890001F5147101440431006801F020
:1048000001FF08BD01F00F0101EBC101890010316A
:1048100001440431F2E72DE9F04F83B00446056806
:10482000284602F06AF910B103B0BDE8F08F0646E1
:10483000206802F032F90028F6D005F50067BB6861
:10484000C3F30D23C4F8D434206802F026F910F025
:10485000020F04D02268536903F0020353612068F9
:1048600002F01BF910F0100F13D02268936923F0A7
:1048700010039361D5F8208008F00F09C8F3434373
:10488000022B4BD0062B6FD02268936943F01003A4
:104890009361206802F001F910F4002F76D12068AE
:1048A00002F0FBF810F4802F40F0E080206802F066
:1048B000F4F80028C0F26181206802F0EEF810F4EC
:1048C000006F09D0BB6813F0010F40F06E812268C1
:1048D000536903F400635361206802F0DEF810F4BA
:1048E000805F40F06681206802F0D7F810F4005F26
:1048F00040F0B381206802F0D0F810F0080F40F0CB
:10490000C481206802F0C9F810F0800F00F0D78150
:10491000AB6923F08003AB610126C0E147F6F07379
:1049200018EA030FB0D04FEA181B4FEAC9030193EE
:1049300009EBC90A04EB8A0AC8F30A12DAF8601212
:10494000284601F0F9FFCBF30A0BDAF860325B443A
:10495000CAF86032019B4B4404EB8303D3F86832FE
:104960005B44CAF868328FE7082204F29C4128466B
:1049700001F0E2FFC8F30A1809EBC90204EB820256
:10498000D2F868324344C2F868327DE7206802F00A
:1049900088F88046B14635E005EB49130122C3F89B
:1049A000082B49462046FFF711FD3CE005EB491373
:1049B0000822C3F8082B49462046FFF789FD35E059
:1049C00009EBC90304EB830393F85732012B41D061
:1049D00005EB49130222C3F8082B1AF0200F04D06C
:1049E00005EB49132022C3F8082B1AF4005F05D009
:1049F00005EB49134FF40052C3F8082B09F10109E4
:104A00004FEA5808B8F1000F3FF449AF18F0010F12
:104A1000F4D05FFA89FB5946206802F052F88246CA
:104A200010F0010FB8D11AF0080FBFD11AF0100F13
:104A300004D005EB49131022C3F8082B1AF0020F1B
:104A4000CBD06B6913F0800FBAD07B6843F48063DE
:104A50007B60B5E709EBC90304EB8303002283F80D
:104A600057225946204603F0C9FAB1E7206802F000
:104A700020F88046B14625E05946204603F07AFAF0
:104A80001AF0080F04D005EB49130822C3F80829CF
:104A90001AF0100F04D005EB49131022C3F80829AF
:104AA0001AF0400F04D005EB49134022C3F808293F
:104AB0001AF0020F40D11AF0800F59D109F1010903
:104AC0004FEA5808B8F1000F3FF4F0AE18F0010FAC
:104AD000F4D05FFA89FB5946206801F0FBFF82465B
:104AE00010F0010FCCD009F00F03012101FA03F2FD
:104AF0007B6B23EA02037B6305EB4913C3F80819B8
:104B0000A3798B42B8D109EBC90304EB8303D969BC
:104B10001A6A0A441A62B9F1000FADD109EBC90350
:104B200004EB83035B6A002BA6D104F29C420121B3
:104B3000206802F027F89FE74946284601F078FBF5
:104B400009EBC90304EB8303DB7D012B05D005EBE7
:104B500049130222C3F80829ADE709EBC90304EBA6
:104B600083030022DA755946204603F04DFAEEE73A
:104B700049462046FFF71EFBA0E77B6823F00103B0
:104B80007B6094F8CC34012B08D0204603F030FA37
:104B90002268536903F0004353618DE6002184F8D5
:104BA000CC14204600F03EF9F2E7204603F008FA64
:104BB0008DE67B6823F001037B601021206801F003
:104BC00037FB1AE005EB46134FF67F31C3F808199F
:104BD000D3F8002922F40012C3F80029C3F8081BF7
:104BE000D3F8002B22F40012C3F8002BD3F8002BCB
:104BF00042F00062C3F8002B01362379B342E1D8BA
:104C0000FB6943F00113FB61E37BDBB1D7F8843030
:104C100043F00B03C7F884307B6C43F00B037B64D9
:104C2000D5F8003823F4FE63C5F8003804F29C423E
:104C3000A179206801F0A6FF2268536903F480532C
:104C4000536150E67B6943F4005343F02B037B61CF
:104C50003B6943F00B033B61E2E7206801F082FF10
:104C6000206801F0FFFBE071266800F0DBFB0146E5
:104C7000E279304601F05EFA204603F08CF92268B2
:104C8000536903F40053536134E6204603F07DF981
:104C90002268536903F00803536132E60136237931
:104CA000B3420CD906EBC60304EB830393F85732E7
:104CB000012BF3D1F1B22046FFF793FDEEE7206818
:104CC00001F0EBFE10F4801F25D1206801F0E5FE15
:104CD00010F4001F59D0012326E001362379B34296
:104CE0001BD905EB4613D3F8002906EBC60304EBEA
:104CF00083031B7E012BF0D1002AEEDA06EBC603FC
:104D000004EB83030122DA7566F07F01C9B2204605
:104D1000FFF767FDE1E70126E0E72268536903F446
:104D200080135361D1E7013322799A4228D905EBE8
:104D30004312D2F8001B03EBC30204EB820292F889
:104D40005822012AEFD10029EDDA01F48031D4F89C
:104D5000D42402F001029142E5D103EBC30204EB3B
:104D60008202012182F85712AA6942F08002AA61E8
:104D70006A6912F0800FD6D17B6843F400737B60C0
:104D80002268536903F400135361206801F085FE23
:104D900010F0804F10D1206801F07FFE10F0040F5A
:104DA0003FF442AD23685D6815F0040F0DD1226811
:104DB00053682B43536037E5204603F02BF92268F4
:104DC000536903F080435361E5E7204603F028F977
:104DD000EDE710B40468606A29B940EA0240A062B5
:104DE000002010BC70478C46A36A00EB13400023E0
:104DF00008E003F1400104EB8101496800EB114038
:104E00000133DBB20CF1FF318B42F2D340EA0240B6
:104E10000CF13F0104EB81014860E1E7036859624E
:104E20000020704770470000002800F0E08170B556
:104E300082B00446036813F0010F3BD09F4B9B6880
:104E400003F00C03042B2CD09C4B9B6803F00C0349
:104E5000082B21D06368B3F5803F4FD0B3F5A02F66
:104E600052D0964B1A6822F480321A601A6822F4E3
:104E700080221A606368002B50D0FEF7B3FF05460E
:104E80008E4B1B6813F4003F14D1FEF7ABFF401BA1
:104E90006428F5D90320B1E1884B5B6813F4800FD7
:104EA000D8D0864B1B6813F4003F03D06368002BF7
:104EB00000F09F81236813F0020F54D07F4B9B6852
:104EC00013F00C0F3ED07D4B9B6803F00C03082BB6
:104ED00033D0E368002B68D0794B01221A60FEF7CB
:104EE00081FF0546754B1B6813F0020F54D1FEF786
:104EF00079FF401B0228F5D903207FE16F4A136830
:104F000043F480331360B5E76C4B1A6842F4802297
:104F10001A601A6842F480321A60ABE7FEF762FF4B
:104F20000546664B1B6813F4003FC3D0FEF75AFFDB
:104F3000401B6428F5D9032060E1604B5B6813F4E3
:104F4000800FC6D15D4B1B6813F0020F03D0E368DE
:104F5000012B40F05081594A136823F0F80321696E
:104F600043EAC1031360236813F0080F42D063695A
:104F70006BB3534B0122C3F8802EFEF733FF054677
:104F80004E4B5B6F13F0020F34D1FEF72BFF401B2B
:104F90000228F5D9032031E1484A136823F0F803C9
:104FA000216943EAC1031360DDE7454B00221A6023
:104FB000FEF718FF0546414B1B6813F0020FD2D0D5
:104FC000FEF710FF401B0228F5D9032016E13C4BE9
:104FD0000022C3F8802EFEF705FF0546374B5B6FB6
:104FE00013F0020F06D0FEF7FDFE401B0228F5D994
:104FF000032003E1236813F0040F77D02F4B1B6CC1
:1050000013F0805F33D1002301932C4B1A6C42F0D4
:1050100080521A641B6C03F080530193019B01259D
:10502000284B1B6813F4807F23D0A368012B34D056
:10503000052B38D0214B1A6F22F001021A671A6F24
:1050400022F004021A67A368002B3DD0FEF7CAFEC7
:1050500006461A4B1B6F13F0020F46D1FEF7C2FE35
:10506000801B41F288339842F3D90320C6E0002523
:10507000D6E7144A136843F480731360FEF7B2FE58
:105080000646104B1B6813F4807FCED1FEF7AAFEB4
:10509000801B0228F5D90320B0E0084A136F43F0C3
:1050A00001031367CFE7054B1A6F42F004021A673A
:1050B0001A6F42F001021A67C5E700BF00380240CC
:1050C0000000474200700040FEF78CFE0646524B3F
:1050D0001B6F13F0020F08D0FEF784FE801B41F215
:1050E00088339842F3D9032088E0EDB9A369002BF7
:1050F00000F08380484A926802F00C02082A51D0DE
:10510000022B17D0454B00221A66FEF76BFE0446B1
:10511000414B1B6813F0007F42D0FEF763FE001B7B
:105120000228F5D9032069E03B4A136C23F0805331
:105130001364DBE7394B00221A66FEF753FE05467F
:10514000354B1B6813F0007F06D0FEF74BFE401B6B
:105150000228F5D9032051E0E369226A1343626A09
:1051600043EA8213A26A5208013A43EA0243E26A1E
:1051700043EA0263284A5360284B01221A66FEF76D
:1051800031FE0446244B1B6813F0007F06D1FEF766
:1051900029FE001B0228F5D903202FE000202DE076
:1051A00000202BE0012B2BD01B4B5B6803F480010C
:1051B000E269914226D103F03F02216A8A4223D15B
:1051C000616A47F6C0721A40B2EB811F1ED103F428
:1051D0004031A26A5208013AB1EB024F18D103F0F4
:1051E0007063E26AB3EB026F14D1002006E0012085
:1051F0007047012002E0012000E0002002B070BDF5
:105200000120FBE70120F9E70120F7E70120F5E79E
:105210000120F3E70120F1E7003802400000474297
:1052200008B5254B9B6803F00C03042B3FD0082BDB
:105230003FD1214B5A6802F03F025B6813F4800FA4
:1052400012D01D4B5968C1F388111C480023A1FBE3
:105250000001FBF74FFF184B5B68C3F301430133B9
:105260005B00B0FBF3F025E0134B5968C1F3881CD9
:105270004FEA4C11B1EB0C006EEB0E0E4FEA8E13A1
:1052800043EA90638101091A63EB0E03DB0043EAF2
:105290005173C90011EB0C0C43F100039902002378
:1052A0004FEA8C2041EA9C51FBF724FFD3E70348E7
:1052B00000E0034808BD00BF00380240001BB700F3
:1052C0000024F400002800F09B8070B50D460446D1
:1052D0004F4B1B6803F00F038B4208D2CBB24C4AF2
:1052E0001370136803F00F038B4240F08B80236828
:1052F00013F0020F17D013F0040F04D0454A93683F
:1053000043F4E0539360236813F0080F04D0414A3C
:10531000936843F4604393603E4A936823F0F0033C
:10532000A1680B439360236813F0010F32D06368C8
:10533000012B21D09A1E012A25D9364A126812F073
:10534000020F61D033498A6822F0030213438B6055
:10535000FEF748FD06462F4B9B6803F00C0362687E
:10536000B3EB820F16D0FEF73DFD801B41F2883370
:105370009842F0D9032042E0264A126812F4003F16
:10538000E0D101203BE0234A126812F0007FD9D11E
:10539000012034E01E4B1B6803F00F03AB4207D91A
:1053A000EAB21B4B1A701B6803F00F03AB422DD1FE
:1053B000236813F0040F06D0164A936823F4E053D1
:1053C000E1680B439360236813F0080F07D0114A7C
:1053D000936823F46043216943EAC1039360FFF7B4
:1053E0001FFF0C4B9B68C3F303130B4AD35CD840DD
:1053F0000A4B18600A4B1868FEF7A8FC002070BD25
:10540000012070470120FAE70120F8E70120F6E7C4
:10541000003C024000380240D8EB00085400002055
:105420005C000020014B1868704700BF540000204A
:1054300008B5FFF7F7FF044B9B68C3F38223034AC9
:10544000D35CD84008BD00BF00380240E8EB00083C
:1054500008B5FFF7E7FF044B9B68C3F34233034AE9
:10546000D35CD84008BD00BF00380240E8EB00081C
:105470002DE9F04782B00546884617461E46FEF7DE
:10548000B1FC0A9B1B1A03EB0609FEF7ABFC824634
:105490002B4B1B68C3F3CB3309FB03F301932B683E
:1054A0009C6838EA04030CBF4FF0010C4FF0000C6D
:1054B000BC4540D0B6F1FF3FF1D0FEF793FCA0EB26
:1054C0000A0048450AD2B9F1000F07D0019A02B18B
:1054D0004A46019B013B01939146E0E72A685368E5
:1054E00023F0E00353606B68B3F5827F0BD0AB6AA7
:1054F000B3F5005F14D0012385F85130002385F8FF
:105500005030032018E0AB68B3F5004F02D0B3F57C
:10551000806FECD12A68136823F040031360E6E73C
:105520002A68136823F4005313602A68136843F44D
:1055300000531360DFE7002002B0BDE8F08700BF32
:105540005400002070B584B004460D461646009203
:105550000B4601220221FFF78BFFD0B9174B1B68C6
:10556000174AA2FB03235B0D4FF47A7202FB03F38D
:1055700003936368B3F5827F11D0039B3BB1039B18
:10558000013B039323689B6813F0800FF5D104B0AF
:1055900070BD636D43F0200363650320F7E7009659
:1055A0002B46002280212046FFF762FF0028EED024
:1055B000636D43F0200363650320E8E75400002097
:1055C000819F5E1600285AD010B50446436A33B94D
:1055D0004368B3F5827F05D00023C36102E0002356
:1055E000036143610023A36294F85130002B40D043
:1055F000022384F851302268136823F040031360BB
:10560000636803F48273A26802F404421343E268FD
:1056100002F400621343226902F00202134362693A
:1056200002F001021343A26902F400721343E2691B
:1056300002F038021343226A02F080021343A26A86
:1056400002F40052216813430B60638B03F00403E0
:10565000626A02F01002216813434B602268D3692A
:1056600023F40063D36100206065012384F8513086
:1056700010BD84F850302046FDF7EAFBB8E7012062
:1056800070472DE9F04383B00446884691461F4693
:105690000A9DFEF7A7FB064694F85130DBB262681C
:1056A000012B0AD0B2F5827F40F00581A268002A62
:1056B00040F00581042B40F00481B8F1000F00F0A8
:1056C0000281B9F1000F00F00081002F00F0FF808F
:1056D00094F85030012B00F0FC80012384F8503006
:1056E00094F85130DBB2042B02D0052384F85130FA
:1056F00000236365C4F83890E787A787C4F8308033
:10570000E786A7862364636423681A6812F0400F53
:1057100003D11A6842F040021A60E368B3F5006FE3
:1057200011D063680BB1012F0BD1226B2368127863
:105730001A73236B01332363E38E9BB2013B9BB24D
:10574000E386012771E063680BB1012F0BD1226B57
:1057500023681288DA60236B02332363E38E9BB2E3
:10576000013B9BB2E38601271BE023689A6812F095
:10577000010F0ED0E28F92B25AB1DA68A36B1A8091
:10578000A36B0233A363E38F9BB2013B9BB2E3871E
:105790000127FEF727FB801BA84202D3B5F1FF3F8C
:1057A0001ED1E38E9BB21BB9E38F9BB2002B62D05C
:1057B00023689A6812F0020FD7D0E28E92B2002AC4
:1057C000D3D0002FD1D0226B1288DA60236B023342
:1057D0002363E38E9BB2013B9BB2E3860027C4E7C1
:1057E000012384F85130002384F85030032063E013
:1057F00023689A6812F0010F0ED0E28F92B25AB16C
:10580000DA68A36B1A70A36B0133A363E38F9BB2B7
:10581000013B9BB2E3870127FEF7E4FA831BAB420F
:1058200002D3B5F1FF3F1ED1EDB1E38E9BB213B9A8
:10583000E38F9BB2FBB123689A6812F0020FD7D0B6
:10584000E28E92B2002AD3D0002FD1D0226B1278F0
:105850001A73236B01332363E38E9BB2013B9BB22C
:10586000E3860027C4E7012384F85130002384F83D
:105870005030032020E0324629462046FFF762FEE2
:1058800090B9A36833B901932368DA6801929B68E1
:105890000193019B012384F85130002384F8503098
:1058A000636D4BB1012007E020236365002384F87A
:1058B0005030012000E0022003B0BDE8F083022058
:1058C000FAE70220F8E70120F6E70120F4E70120DB
:1058D000F2E70220F0E7026802F10C0353E8003F10
:1058E00023F490730C3242E800310029F3D10268AE
:1058F00002F1140353E8003F23F00103143242E89D
:1059000000310029F3D1036B012B05D0202380F84F
:105910004230002303637047026802F10C0353E82E
:10592000003F23F010030C3242E800310029F3D18C
:10593000ECE790F84130DBB2212B01D00220704718
:105940008368B3F5805F17D0036A5A1C02621A7825
:1059500003685A60C38C9BB2013B9BB2C3844BB9B2
:105960000268D36823F08003D3600268D36843F0F1
:105970004003D360002070470369002BE4D1036A21
:105980001B880268C3F308035360036A023303628F
:10599000E0E7000038B504460268136923F4405379
:1059A000C1680B431361836802691343426913435F
:1059B000C2691A430168CB6823F4164323F00C0331
:1059C0001343CB600268536923F4407381690B432E
:1059D00053610368314A934206D002F580629342D4
:1059E00002D0FFF725FD01E0FFF732FDE369B3F5D3
:1059F000004F29D00021031849411B1841F1000133
:105A0000C90041EA5371DB00181863684FEA83024A
:105A10004FEA937341F10001FBF76CFB204DA5FBAE
:105A200000325109642303FB11031B013233A5FB30
:105A300003235B0903F0F00202EB011203F00F03F2
:105A4000216813448B6038BD0023021843EB030127
:105A5000121841F10001C90041EA5271D200101838
:105A600041F10001626892185B41FBF743FB0C4D6A
:105A7000A5FB00325109642303FB1103DB00323321
:105A8000A5FB03235B095A0002F4F87202EB011232
:105A900003F00703216813448B60D4E70010014032
:105AA0001F85EB512DE9F04383B005460E4617469E
:105AB0009946DDF828802C68246836EA04030CBF78
:105AC0004FF0010C4FF0000CBC4528D1B8F1FF3F5E
:105AD000F1D0FEF787F9A0EB0900404523D8B8F1D3
:105AE000000F22D02B68DA6812F0040FE3D0802E6A
