:020000040800F2
:1000000000000320353C0008193200081B320008AC
:100010001D3200081F3200082132000800000000D5
:100020000000000000000000000000002332000873
:10003000253200080000000027320008293200089D
:10004000853C0008853C0008853C0008853C00088C
:10005000853C0008853C0008853C0008853C00087C
:10006000853C0008853C0008853C0008853C00086C
:10007000853C0008853C0008853C0008853C00085C
:10008000853C0008853C0008853C000831320008AA
:1000900041320008853C0008853C0008853C00088A
:1000A000853C0008853C0008853C0008853C00082C
:1000B000853C0008853C0008853C0008853C00081C
:1000C000853C0008853C0008853C0008853C00080C
:1000D000853C0008853C0008513200087932000850
:1000E000853C0008853C0008853C0008853C0008EC
:1000F000853C0008853C0008853C0008853C0008DC
:10010000853C0008853C0008853C0008853C0008CB
:10011000853C0008853C0008853C0008853C0008BB
:10012000853C0008853C0008853C0008853C0008AB
:10013000853C0008853C0008853C0008853C00089B
:10014000853C0008853C0008853C00089932000881
:10015000853C0008853C0008853C0008A932000861
:10016000853C0008853C0008853C0008853C00086B
:10017000853C0008853C0008853C00080000000024
:10018000853C0008853C0008C9320008E9320008B7
:10019000853C0008853C0008853C0008853C00083B
:0C01A0000000000000000000853C00088A
:1001C00010B5054C237833B9044B13B10448AFF391
:1001D00000800123237010BDFC0A002000000000F5
:1001E0006C2C010808B5034B1BB103490348AFF35E
:1001F000008008BD00000000000B00206C2C0108EE
:1002000081F0004102E000BF83F0004330B54FEAC7
:1002100041044FEA430594EA050F08BF90EA020F34
:100220001FBF54EA000C55EA020C7FEA645C7FEAC7
:10023000655C00F0E2804FEA5454D4EB5555B8BFEA
:100240006D420CDD2C4480EA020281EA030382EA5B
:10025000000083EA010180EA020281EA0303362DED
:1002600088BF30BD11F0004F4FEA01314FF4801CC0
:100270004CEA113102D0404261EB410113F0004FD2
:100280004FEA03334CEA133302D0524263EB430389
:1002900094EA050F00F0A780A4F10104D5F1200E27
:1002A0000DDB02FA0EFC22FA05F2801841F1000182
:1002B00003FA0EF2801843FA05F359410EE0A5F156
:1002C00020050EF1200E012A03FA0EFC28BF4CF087
:1002D000020C43FA05F3C01851EBE37101F000453D
:1002E00007D54FF0000EDCF1000C7EEB00006EEB4A
:1002F0000101B1F5801F1BD3B1F5001F0CD34908D4
:100300005FEA30004FEA3C0C04F101044FEA44522A
:1003100012F5800F80F09A80BCF1004F08BF5FEAB1
:10032000500C50F1000041EB045141EA050130BD91
:100330005FEA4C0C404141EB0101013C28BFB1F5A3
:10034000801FE9D291F0000F04BF01460020B1FAEE
:1003500081F308BF2033A3F10B03B3F120020CDAC1
:100360000C3208DD02F1140CC2F10C0201FA0CF09F
:1003700021FA02F10CE002F11402D8BFC2F1200C04
:1003800001FA02F120FA0CFCDCBF41EA0C019040BA
:10039000E41AA2BF01EB0451294330BD6FEA040403
:1003A0001F3C1CDA0C340EDC04F11404C4F12002EE
:1003B00020FA04F001FA02F340EA030021FA04F300
:1003C00045EA030130BDC4F10C04C4F1200220FA57
:1003D00002F001FA04F340EA0300294630BD21FA95
:1003E00004F0294630BD94F0000F83F4801306BF5B
:1003F00081F480110134013D4EE77FEA645C18BF4F
:100400007FEA655C29D094EA050F08BF90EA020FE5
:1004100005D054EA000C04BF1946104630BD91EADD
:10042000030F1EBF0021002030BD5FEA545C05D1E0
:100430004000494128BF41F0004130BD14F580041F
:100440003CBF01F5801130BD01F0004545F0FE4193
:1004500041F470014FF0000030BD7FEA645C1ABFC8
:10046000194610467FEA655C1CBF0B46024650EAFF
:10047000013406BF52EA033591EA030F41F400212B
:1004800030BD00BF90F0000F04BF0021704730B5B1
:100490004FF4806404F132044FF000054FF0000186
:1004A00050E700BF90F0000F04BF0021704730B547
:1004B0004FF4806404F1320410F0004548BF40421C
:1004C0004FF000013EE700BF42004FEAE2014FEA71
:1004D00031014FEA02701FBF12F07F4393F07F4F4C
:1004E00081F06051704732F07F4208BF704793F04F
:1004F0007F4F04BF41F40021704730B54FF4607462
:1005000001F0004521F000411CE700BF50EA010264
:1005100008BF704730B54FF000050AE050EA01020D
:1005200008BF704730B511F0004502D5404261EB7D
:1005300041014FF4806404F132045FEA915C3FF4BE
:10054000D8AE4FF003025FEADC0C18BF03325FEA5B
:10055000DC0C18BF033202EBDC02C2F1200300FA0C
:1005600003FC20FA02F001FA03FE40EA0E0021FA31
:1005700002F11444BDE600BF70B54FF0FF0C4CF41F
:10058000E06C1CEA11541DBF1CEA135594EA0C0FD1
:1005900095EA0C0F00F0DEF82C4481EA030621EA0C
:1005A0004C5123EA4C5350EA013518BF52EA033547
:1005B00041F4801143F4801338D0A0FB02CE4FF0F9
:1005C0000005E1FB02E506F00042E0FB03E54FF029
:1005D0000006E1FB03569CF0000F18BF4EF0010E21
:1005E000A4F1FF04B6F5007F64F5407404D25FEA1D
:1005F0004E0E6D4146EB060642EAC62141EA5551D0
:100600004FEAC52040EA5E504FEACE2EB4F1FD0C11
:1006100088BFBCF5E06F1ED8BEF1004F08BF5FEA8F
:10062000500E50F1000041EB045170BD06F0004641
:1006300046EA010140EA020081EA0301B4EB5C04EE
:10064000C2BFD4EB0C0541EA045170BD41F48011E6
:100650004FF0000E013C00F3AB8014F1360FDEBF0B
:10066000002001F0004170BDC4F10004203C35DAE7
:100670000C341BDC04F11404C4F1200500FA05F36A
:1006800020FA04F001FA05F240EA020001F000420B
:1006900021F0004110EBD37021FA04F642EB060181
:1006A0005EEA430E08BF20EAD37070BDC4F10C04AB
:1006B000C4F1200500FA04F320FA05F001FA04F26F
:1006C00040EA020001F0004110EBD37041F100015B
:1006D0005EEA430E08BF20EAD37070BDC4F1200566
:1006E00000FA05F24EEA020E20FA04F301FA05F2CE
:1006F00043EA020321FA04F001F0004121FA04F276
:1007000020EA020000EBD3705EEA430E08BF20EA45
:10071000D37070BD94F0000F0FD101F0004640007F
:1007200041EB010111F4801F08BF013CF7D041EA01
:10073000060195F0000F18BF704703F00046520005
:1007400043EB030313F4801F08BF013DF7D043EAD6
:100750000603704794EA0C0F0CEA135518BF95EA8C
:100760000C0F0CD050EA410618BF52EA4306D1D113
:1007700081EA030101F000414FF0000070BD50EA32
:10078000410606BF1046194652EA430619D094EABC
:100790000C0F02D150EA013613D195EA0C0F05D1A6
:1007A00052EA03361CBF104619460AD181EA0301FA
:1007B00001F0004141F0FE4141F470014FF00000B2
:1007C00070BD41F0FE4141F4780170BD70B54FF04D
:1007D000FF0C4CF4E06C1CEA11541DBF1CEA1355CD
:1007E00094EA0C0F95EA0C0F00F0A7F8A4EB0504AF
:1007F00081EA030E52EA03354FEA013100F08880A6
:100800004FEA03334FF0805545EA131343EA12636E
:100810004FEA022245EA111545EA10654FEA002623
:100820000EF000419D4208BF964244F1FD0404F5DC
:10083000407402D25B084FEA3202B61A65EB030538
:100840005B084FEA32024FF480104FF4002CB6EBF5
:10085000020E75EB030E22BFB61A754640EA0C0075
:100860005B084FEA3202B6EB020E75EB030E22BFB5
:10087000B61A754640EA5C005B084FEA3202B6EBF6
:10088000020E75EB030E22BFB61A754640EA9C00B5
:100890005B084FEA3202B6EB020E75EB030E22BF85
:1008A000B61A754640EADC0055EA060E18D04FEA43
:1008B000051545EA16754FEA06164FEAC30343EAE3
:1008C00052734FEAC2025FEA1C1CC0D111F4801FB0
:1008D0000BD141EA00014FF000004FF0004CB6E7A9
:1008E00011F4801F04BF01430020B4F1FD0C88BF48
:1008F000BCF5E06F3FF6AFAEB5EB030C04BFB6EB53
:10090000020C5FEA500C50F1000041EB045170BD45
:100910000EF0004E4EEA113114EB5C04C2BFD4EB72
:100920000C0541EA045170BD41F480114FF0000EF6
:10093000013C90E645EA060E8DE60CEA135594EA72
:100940000C0F08BF95EA0C0F3FF43BAF94EA0C0F75
:100950000AD150EA01347FF434AF95EA0C0F7FF4EA
:1009600025AF104619462CE795EA0C0F06D152EA3E
:1009700003353FF4FDAE1046194622E750EA410622
:1009800018BF52EA43067FF4C5AE50EA41047FF433
:100990000DAF52EA43057FF4EBAE12E74FF0FF3C98
:1009A00006E000BF4FF0010C02E000BF4FF0010C69
:1009B0004DF804CD4FEA410C7FEA6C5C4FEA430CE2
:1009C00018BF7FEA6C5C1BD001B050EA410C0CBF31
:1009D00052EA430C91EA030F02BF90EA020F002093
:1009E000704710F1000F91EA030F58BF994208BFFA
:1009F00090422CBFD8176FEAE37040F001007047B7
:100A00004FEA410C7FEA6C5C02D150EA013C07D10D
:100A10004FEA430C7FEA6C5CD6D152EA033CD3D058
:100A20005DF8040B704700BF8446104662468C4652
:100A30001946634600E000BF01B5FFF7B7FF002885
:100A400048BF10F1000F01BD4DF808EDFFF7F4FFAE
:100A50000CBF012000205DF808FB00BF4DF808ED39
:100A6000FFF7EAFF34BF012000205DF808FB00BF5C
:100A70004DF808EDFFF7E0FF94BF012000205DF87E
:100A800008FB00BF4DF808EDFFF7CEFF94BF012033
:100A900000205DF808FB00BF4DF808EDFFF7C4FF2C
:100AA00034BF012000205DF808FB00BF4FEA41027F
:100AB000B2F1E04324BFB3F5001CDCF1FE5C0DD9BC
:100AC00001F0004C4FEAC0024CEA5070B2F1004F06
:100AD00040EB830008BF20F00100704711F0804F09
:100AE00021D113F13872BCBF01F00040704741F4CE
:100AF00080114FEA5252C2F11802C2F1200C10FAD2
:100B00000CF320FA02F018BF40F001004FEAC123B5
:100B10004FEAD32303FA0CFC40EA0C0023FA02F359
:100B20004FEA4303CCE77FEA625307D150EA01332F
:100B30001EBF4FF0FE4040F44000704701F00040FF
:100B400040F0FE4040F40000704700BF80F00040DD
:100B500002E000BF81F0004142001FBF5FEA410395
:100B600092EA030F7FEA226C7FEA236C6AD04FEA95
:100B70001262D2EB1363C1BFD218414048404140DA
:100B8000B8BF5B42192B88BF704710F0004F40F48C
:100B9000000020F07F4018BF404211F0004F41F4A8
:100BA000000121F07F4118BF494292EA030F3FD074
:100BB000A2F1010241FA03FC10EB0C00C3F1200387
:100BC00001FA03F100F0004302D5494260EB400016
:100BD000B0F5000F13D3B0F1807F06D340084FEA81
:100BE000310102F10102FE2A51D2B1F1004F40EB76
:100BF000C25008BF20F0010040EA030070474900DE
:100C000040EB0000013A28BFB0F5000FEDD2B0FA7A
:100C100080FCACF1080CB2EB0C0200FA0CF0AABF9D
:100C200000EBC25052421843BCBFD040184370473B
:100C300092F0000F81F4000106BF80F40000013241
:100C4000013BB5E74FEA41037FEA226C18BF7FEA18
:100C5000236C21D092EA030F04D092F0000F08BF5A
:100C60000846704790EA010F1CBF0020704712F041
:100C70007F4F04D1400028BF40F00040704712F180
:100C800000723CBF00F50000704700F0004343F0E5
:100C9000FE4040F4000070477FEA226216BF08461B
:100CA0007FEA23630146420206BF5FEA412390EADE
:100CB000010F40F4800070474FF0000304E000BFD4
:100CC00010F0004348BF40425FEA000C08BF704785
:100CD00043F0964301464FF000001CE050EA010249
:100CE00008BF70474FF000030AE000BF50EA01025E
:100CF00008BF704711F0004302D5404261EB41014B
:100D00005FEA010C02BF84460146002043F0B6436F
:100D100008BFA3F18053A3F50003BCFA8CF2083A94
:100D2000A3EBC25310DB01FA02FC634400FA02FC9D
:100D3000C2F12002BCF1004F20FA02F243EB0200A4
:100D400008BF20F00100704702F1200201FA02FC06
:100D5000C2F1200250EA4C0021FA02F243EB0200F9
:100D600008BF20EADC7070474FF0FF0C1CEAD0523D
:100D70001EBF1CEAD15392EA0C0F93EA0C0F6FD0FE
:100D80001A4480EA010C400218BF5FEA41211ED0DC
:100D90004FF0006343EA501043EA5111A0FB0131C8
:100DA0000CF00040B1F5000F3EBF490041EAD3719D
:100DB0005B0040EA010062F17F02FD2A1DD8B3F119
:100DC000004F40EBC25008BF20F00100704790F088
:100DD000000F0CF0004C08BF49024CEA502040EADA
:100DE00051207F3AC2BFD2F1FF0340EAC2507047A0
:100DF00040F400004FF00003013A5DDC12F1190FDE
:100E0000DCBF00F000407047C2F10002410021FA4F
:100E100002F1C2F1200200FA02FC5FEA310040F167
:100E2000000053EA4C0308BF20EADC70704792F0E0
:100E3000000F00F0004C02BF400010F4000F013A18
:100E4000F9D040EA0C0093F0000F01F0004C02BF13
:100E5000490011F4000F013BF9D041EA0C018FE782
:100E60000CEAD15392EA0C0F18BF93EA0C0F0AD088
:100E700030F0004C18BF31F0004CD8D180EA0100AE
:100E800000F00040704790F0000F17BF90F0004F47
:100E9000084691F0000F91F0004F14D092EA0C0F29
:100EA00001D142020FD193EA0C0F03D14B0218BFBC
:100EB000084608D180EA010000F0004040F0FE4002
:100EC00040F40000704740F0FE4040F4400070479E
:100ED0004FF0FF0C1CEAD0521EBF1CEAD15392EA1D
:100EE0000C0F93EA0C0F69D0A2EB030280EA010C0D
:100EF00049024FEA402037D04FF0805343EA1111A6
:100F000043EA10130CF000408B4238BF5B0042F103
:100F10007D024FF4000C8B4224BF5B1A40EA0C00A8
:100F2000B3EB510F24BFA3EB510340EA5C00B3EBDA
:100F3000910F24BFA3EB910340EA9C00B3EBD10FC8
:100F400024BFA3EBD10340EADC001B0118BF5FEA1A
:100F50001C1CE0D1FD2A3FF650AF8B4240EBC25043
:100F600008BF20F0010070470CF0004C4CEA502004
:100F70007F32C2BFD2F1FF0340EAC250704740F453
:100F800000004FF00003013A37E792F0000F00F045
:100F9000004C02BF400010F4000F013AF9D040EAC3
:100FA0000C0093F0000F01F0004C02BF490011F457
:100FB000000F013BF9D041EA0C0195E70CEAD1534F
:100FC00092EA0C0F08D142027FF47DAF93EA0C0F36
:100FD0007FF470AF084676E793EA0C0F04D14B021A
:100FE0003FF44CAF08466EE730F0004C18BF31F0CC
:100FF000004CCAD130F000427FF45CAF31F00043C6
:101000007FF43CAF5FE700BF4FF0FF3C06E000BF5E
:101010004FF0010C02E000BF4FF0010C4DF804CD81
:101020004FEA40024FEA41037FEA226C18BF7FEA91
:10103000236C11D001B052EA530C18BF90EA010F93
:1010400058BFB2EB030088BFC81738BF6FEAE17022
:1010500018BF40F0010070477FEA226C02D15FEABE
:10106000402C05D17FEA236CE4D15FEA412CE1D02A
:101070005DF8040B704700BF844608466146FFE7F1
:101080000FB5FFF7C9FF002848BF10F1000F0FBDD3
:101090004DF808EDFFF7F4FF0CBF012000205DF8CC
:1010A00008FB00BF4DF808EDFFF7EAFF34BF012051
:1010B00000205DF808FB00BF4DF808EDFFF7E0FFEA
:1010C00094BF012000205DF808FB00BF4DF808ED3B
:1010D000FFF7D2FF94BF012000205DF808FB00BF9E
:1010E0004DF808EDFFF7C8FF34BF012000205DF880
:1010F00008FB00BF53B94AB9002908BF00281CBF2C
:101100004FF0FF314FF0FF3000F074B9ADF1080C33
:101110006DE904CE00F006F8DDF804E0DDE9022315
:1011200004B070472DE9F047089E0D4604468846F6
:10113000002B4DD18A42944668D9B2FA82F252B15C
:1011400001FA02F3C2F1200120FA01F10CFA02FCCB
:1011500041EA030894404FEA1C45210CB8FBF5FE18
:101160001FFA8CF705FB1E8341EA03430EFB07F1D0
:1011700099420BD91CEB03030EF1FF3080F01E8166
:10118000994240F21B81AEF1020E63445B1AA4B295
:10119000B3FBF5F005FB103344EA034400FB07F70B
:1011A000A7420AD91CEB040400F1FF3380F0088148
:1011B000A74240F2058164440238E41B40EA0E4035
:1011C00000211EB1D4400023C6E90043BDE8F087EA
:1011D0008B4208D9002E00F0EE800021C6E9000500
:1011E0000846BDE8F087B3FA83F100294AD1AB4243
:1011F00002D3824200F2F980841A65EB03030120D6
:101200009846002EE2D0C6E90048DFE702B9FFDECB
:10121000B2FA82F2002A40F09180A1EB0C054FEA6D
:101220001C471FFA8CFE0121B5FBF7F307FB135097
:10123000250C45EA00450EFB03F0A84208D91CEB3B
:10124000050503F1FF3802D2A84200F2CB804346E5
:101250002D1AA4B2B5FBF7F007FB105544EA05447C
:101260000EFB00FEA64508D91CEB040400F1FF3577
:1012700002D2A64500F2BB802846A4EB0E0440EA49
:1012800003409EE7C1F120078B4022FA07FC4CEA9D
:10129000030C20FA07F405FA01F31C43FD404FEA62
:1012A0001C4900FA01F3B5FBF9F8200C1FFA8CFE7B
:1012B00009FB185540EA054508FB0EF0A84202FA62
:1012C00001F20BD91CEB050508F1FF3A80F088808C
:1012D000A84240F28580A8F1020865442D1AA4B204
:1012E000B5FBF9F009FB105544EA054500FB0EFE7D
:1012F000AE4508D91CEB050500F1FF346CD2AE45B4
:101300006AD90238654440EA0840A0FB0294A5EB84
:101310000E05A542C846A64656D353D05EB1B3EBE0
:10132000080265EB0E0505FA07F722FA01F3CD4036
:101330001F43C6E900750021BDE8F087C2F1200314
:1013400020FA03F10CFA02FC25FA03F395400D4351
:101350004FEA1C471FFA8CFEB3FBF7F107FB113075
:101360002B0C43EA004301FB0EF0984204FA02F40E
:1013700008D91CEB030301F1FF382FD298422DD975
:10138000023963441B1AADB2B3FBF7F007FB10330D
:1013900045EA034500FB0EF3AB4208D91CEB0505FB
:1013A00000F1FF3816D2AB4214D902386544ED1A69
:1013B00040EA014138E73146304607E78646E5E630
:1013C0001846FAE64B45A9D2B9EB020864EB0C0EBD
:1013D0000138A3E74046EAE7204694E74146D1E7D3
:1013E000D0467BE7023B654432E7084609E76444A0
:1013F000023842E7704700BF844641EA000313F019
:1014000003036DD1403A41D351F8043B40F8043B0B
:1014100051F8043B40F8043B51F8043B40F8043BCE
:1014200051F8043B40F8043B51F8043B40F8043BBE
:1014300051F8043B40F8043B51F8043B40F8043BAE
:1014400051F8043B40F8043B51F8043B40F8043B9E
:1014500051F8043B40F8043B51F8043B40F8043B8E
:1014600051F8043B40F8043B51F8043B40F8043B7E
:1014700051F8043B40F8043B51F8043B40F8043B6E
:1014800051F8043B40F8043B403ABDD2303211D30E
:1014900051F8043B40F8043B51F8043B40F8043B4E
:1014A00051F8043B40F8043B51F8043B40F8043B3E
:1014B000103AEDD20C3205D351F8043B40F8043B0E
:1014C000043AF9D2043208D0D2071CBF11F8013B0C
:1014D00000F8013B01D30B8803806046704700BFD2
:1014E000082A13D38B078DD010F003038AD0C3F1E1
:1014F0000403D21ADB071CBF11F8013B00F8013BC3
:1015000080D331F8023B20F8023B7BE7043AD9D381
:10151000013A11F8013B00F8013BF9D20B78037056
:101520004B7843708B7883706046704700000000F2
:1015300000000000000000000000000000000000AB
:10154000A2EB0300704700BF02780B78012A28BF86
:101550009A42F5D16DE9044540EA0104CDE90267FC
:101560006FF0000C4FEA447212B380EA010414F0E9
:10157000070F6AD100F0070420F0070004F003050C
:1015800021F007014FEAC505F0E8042314F0040F29
:10159000F1E804670CFA05F462EA040266EA04065C
:1015A0000AD063EA0403624667EA0407664603E07A
:1015B000F0E80423F1E8046782FA4CF582EA0604B5
:1015C000A4FA8CF46CBB83FA4CF583EA0705A5FA00
:1015D0008CF595B950E9022351E9026782FA4CF57E
:1015E00082EA0604A4FA8CF483FA4CF583EA070530
:1015F000A5FA8CF52543DBD09CB92DBAB5FA85F454
:1016000024F0070427FA04F1DDE9026723FA04F362
:1016100003F0FF0001F0FF01FDE80445A0EB01002D
:10162000704724BAB4FA84F424F0070426FA04F1CB
:10163000DDE9026722FA04F202F0FF0001F0FF0187
:10164000FDE80445A0EB0100704714F0030F3CD106
:1016500010F0030428D150F8082B51F8083B82FA07
:101660004CF582EA0305A5FA8CF55DB950F8042C17
:1016700051F8043C82FA4CF582EA0305A5FA8CF590
:10168000002DE8D02DBAB5FA85F424F0070423FA2A
:1016900004F122FA04F202F0FF0001F0FF01FDE87C
:1016A0000445A0EB010070474FEAC40420F003009A
:1016B00050F8082B21F0030151F8083B0CFA04F410
:1016C00062EA040263EA0403C9E710F003041AD0D3
:1016D000A1EB040120F00300E40750F8042B06D02E
:1016E0000FD28B785FFAA2F4E41A06D12BB1CB7833
:1016F0005FFAB2F4E41A00D11BB920465DF8104B32
:10170000704701F1040150F8042BCC0721F00301CC
:1017100051F8043B48D824D222F07F4482FA4CF599
:1017200094EA1325A5FA8CF50AD165B951F8043B62
:1017300084EA0204B4EB036F0ED150F8042BEBE7FC
:101740004FEA132355E035F07F454DD10878FDE889
:101750000445C0F1000070474FEA126203F0FF0336
:1017600047E002EA1C4482FA4CF594EA1345A5FAD4
:101770008CF50AD165B951F8043B84EA0204B4EB54
:10178000034F0CD150F8042BEBE74FEA134330E042
:1017900015EA1C4528D10B884FEA124229E04FEA8E
:1017A000124203EA1C4324E002F0FF0482FA4CF5E3
:1017B00094EA1365A5FA8CF50AD165B951F8043B92
:1017C00084EA0204B4EB032F09D150F8042BEBE7B1
:1017D0004FEA13630DE015F0FF0F05D10B684FEAD8
:1017E000122223F07F4304E04FF00000FDE804459F
:1017F000704712BA1BBA82FA4CF482EA0304A4FAC4
:101800008CF5B5FA85F402FA04F203FA04F34FEA10
:101810001260FDE80445A0EB136070470000000073
:1018200000000000000000000000000000000000B8
:1018300000000000000000000000000000000000A8
:1018400090F800F06DE9024520F007016FF0000C00
:1018500010F0070491F820F040F049804FF00004A8
:101860006FF00700D1E9002391F840F000F1080083
:1018700082FA4CF2A4FA8CF283FA4CF3A2FA8CF3BB
:101880004BBBD1E9022382FA4CF200F10800A4FA22
:101890008CF283FA4CF3A2FA8CF3E3B9D1E9042376
:1018A00082FA4CF200F10800A4FA8CF283FA4CF3AD
:1018B000A2FA8CF37BB9D1E9062301F1200182FA67
:1018C0004CF200F10800A4FA8CF283FA4CF3A2FA6D
:1018D0008CF3002BC6D0002A04BF04301A4612BA7B
:1018E000B2FA82F2FDE8024500EBD2007047D1E97E
:1018F000002304F00305C4F100004FEAC50514F00D
:10190000040F91F840F00CFA05F562EA05021CBFDD
:1019100063EA050362464FF00004A9E700000000F7
:1019200001F0FF01102A2BDB10F0070F08D010F890
:10193000013B013A8B422DD010F0070F42B3F6D194
:10194000F0B441EA012141EA014122F007047FF0AD
:1019500000070023F0E80256083C85EA010586EA04
:10196000010685FA47F5A3FA87F586FA47F6A5FA40
:1019700087F68EB9EED1F0BC01F0FF0102F007024C
:1019800032B110F8013B013A83EA010313B1F8D1F7
:101990000020704701387047002D06BF35460338D8
:1019A000073815F0010F07D1013015F4807F02BF11
:1019B000013015F4C03F0130F0BC0138704700BF62
:1019C0004FEA410C7FEA6C5C02D150EA013C0AD13B
:1019D0004FEA430C7FEA6C5C02D152EA033C02D12D
:1019E0004FF0000070474FF0010070474FEA41028E
:1019F00012F5001215D211D56FF47873B3EB625261
:101A000012D94FEAC12343F0004343EA505311F087
:101A1000004F23FA02F018BF404270474FF0000019
:101A2000704750EA013005D111F0004008BF6FF057
:101A3000004070474FF00000704700BF4A0011D2CD
:101A400012F5001211D20DD56FF47873B3EB625218
:101A50000ED44FEAC12343F0004343EA505323FA24
:101A600002F070474FF00000704750EA013002D199
:101A70004FF0FF3070474FF00000704738B5054613
:101A80000C462846214600220023FEF7E7FF28B92E
:101A900028462146BDE8384000F00AB8284604F13F
:101AA000004100F005F8404261EB410138BD00BF44
:101AB000D0B50C4B002206460F46FEF75DFDFFF742
:101AC000BDFF0446FEF7DEFC074B0022FEF754FD87
:101AD00002460B4630463946FEF796FBFFF7AEFF4F
:101AE0002146D0BD0000F03D0000F04100B5B0F946
:101AF00000C0A0F808C00A784B7843EA02230380AC
:101B00008A78120212B291F803E042EA0E02428091
:101B10000A79120212B291F805E042EA0E028280BE
:101B20008A798271A3EB0C0CBCF5805F08DDC2687A
:101B3000013AC260C26803EB423303615DF804FB03
:101B40001CF5805FF6DAC2680132C260F2E700007D
:101B5000104B01221A7002680F4B9A4200D0704756
:101B600000B58BB001AB03AA002102F0DAFA094BF1
:101B700000221A709DF80C000138C0B200EB800002
:101B800001A9064B03EB8000FFF7B0FF0BB05DF837
:101B900004FB00BF180B0020006400403C0B002039
:101BA00010B582B08E4694460F494FF400720A6019
:101BB00000228A60CA6008220A610C4A041214706A
:101BC00050704FEA2E20907082F803E04FEA2C20EC
:101BD000107182F805C018129071D37101AB0448DE
:101BE00002F02AFA02B010BD240B00201C0B0020CA
:101BF000D40B0020A8B1A2B10170116841605168F6
:101C000081609268C2600361009B4361002383632B
:101C1000436303630362C362836243624364036496
:101C2000C363704710B58AB01D481E4B0360032381
:101C3000436000238360C3604FF4C02202614FF40D
:101C4000A0024261037643768376C37603774377B7
:101C500002F080F8D8B90122089200230693079277
:101C600000930193029303930593049309930C4CFF
:101C70006946204602F014F9204602F0AFF948B94F
:101C80000221074802F002FB38B90AB010BD00F08B
:101C9000BDF8E0E700F0BAF8F2E700F0B7F8F4E7D3
:101CA000D40B00200064004010B588B000230393DB
:101CB000049305930693079302681C4B9A4201D044
:101CC00008B010BD0024019403F5EA331A6C42F009
:101CD00000721A641A6C02F000720192019A029466
:101CE0001A6B42F008021A631B6B03F0080302939D
:101CF000029B032303930222049206930923079372
:101D000003A90B4802F0D0FC22460121132002F067
:101D100013FC132002F048FC22460121142002F09B
:101D20000BFC142002F040FCCAE700BF0064004036
:101D3000000C024030B58DB000240794089409943B
:101D40000A940B940194284B1A6B42F010021A6308
:101D50001A6B02F010020192019A02941A6B42F07F
:101D600040021A631A6B02F040020292029A039434
:101D70001A6B42F001021A631A6B02F0010203921D
:101D8000039A04941A6B42F008021A631A6B02F069
:101D900008020492049A05941A6B42F080021A63B6
:101DA0001A6B02F080020592059A06941A6B42F0B3
:101DB00020021A631B6B03F020030693069B0B4D56
:101DC00022464FF4FF71284602F06CFD4FF4FF737A
:101DD000079301230893022309930A9407A928462D
:101DE00002F062FC0DB030BD003802400018024025
:101DF00008B501228188006802F054FD08BD08B5CD
:101E000000228188006802F04DFD08BD72B6FEE731
:101E100000B595B03022002108A806F0A5FC0023EB
:101E2000039304930593069307930193204A116C3F
:101E300041F080511164126C02F080520192019ABB
:101E400002931C4B1A6842F440421A601B6803F468
:101E500040430293029B012308934FF4803309937C
:101E600002230E934FF480020F9206221092A822B2
:101E7000119212930723139308A803F053FB98B908
:101E80000F23039302230493002305934FF4A053DD
:101E900006934FF480530793052103A803F090FDA8
:101EA00020B915B05DF804FBFFF7B0FFFFF7AEFFF8
:101EB00000380240007000402DE9F04F87B001F07B
:101EC00009FFFFF7A5FFFFF735FF01F07DFA01F0ED
:101ED00095FA01F0ADFA01F0C5FA01F0DDFA06F06D
:101EE000B7F901F023F9FFF79DFE01F0F7FB00F0D1
:101EF00037FB00F085FB2E4C2046FFF780FF04F1F6
:101F000010073846FFF77BFF04F120063046FFF745
:101F100076FF04F130052846FFF771FF04F1080B46
:101F20005846FFF765FF04F1180A5046FFF760FFB7
:101F300004F128094846FFF75BFF04F138084046E2
:101F4000FFF756FF4FF47A7001F0F0FE5846FFF7A6
:101F500056FF5046FFF753FF4846FFF750FF4046F5
:101F6000FFF74DFF2046FFF743FF3846FFF740FFDE
:101F70003046FFF73DFF2846FFF73AFF0D4801F0D6
:101F80006BFC0D4B03AC93E8070084E807000B4B98
:101F900000934FF08D43224600210948FFF72AFEA7
:101FA00001F074FC01F0CAFB01F0B8F8F8E700BFDB
:101FB00000000020942C0108882C01080000C84271
:101FC0008C0B002010B504464FF07C51FEF7CCFE80
:101FD00001462346094CA4EB63042046FEF7C4FEE9
:101FE00001462046FEF7C0FE01464FF07F50FEF747
:101FF000B1FD01462046FEF7B7FE10BDDF59375F41
:102000002DE9F04383B004460E46144F00224021D0
:10201000384602F047FC04F07F04114D2C70DFF8C5
:102020004480114C4FF03709CDF80090012342460F
:102030002946204603F0A3FE2E70CDF80090012320
:1020400042462946204603F09AFE012240213846A6
:1020500002F028FC002003B0BDE8F0830014024029
:10206000B10C0020B00C0020B40C002038B505469F
:102070000C4600212A20FFF7C3FF022001F056FE84
:1020800029462920FFF7BCFF022001F04FFE214620
:102090006420FFF7B5FF022001F048FE81212A20CD
:1020A000FFF7AEFF0A2001F041FE38BD70B50446CF
:1020B0000E46154601462820FFF7A2FF022001F038
:1020C00035FE0A212920FFF79BFF022001F02EFE9A
:1020D00001216420FFF794FF022001F027FE44F065
:1020E00080012520FFF78CFF022001F01FFE314602
:1020F0002620FFF785FF022001F018FE032134207F
:10210000FFF77EFF022001F011FE03216720FFF799
:1021100077FF022001F00AFE81212A20FFF770FFDD
:10212000062001F003FE45F080012720FFF768FF3D
:10213000022001F0FBFD70BD2DE9F04182B00446A4
:10214000134E00224021304602F0ACFB114D64F0EA
:102150007F042C70104C114F4FF03708CDF80080E1
:10216000012322462946384603F009FECDF80080B7
:10217000012322462946384603F001FE0122402170
:10218000304602F08FFB207802B0BDE8F08100BF3E
:1021900000140240B10C0020B00C0020B40C002050
:1021A00010B501463220FFF72BFF0A2001F0BEFDDB
:1021B00080213420FFF724FF0A2001F0B7FD3520ED
:1021C000FFF7BAFF044600213420FFF719FF0A2069
:1021D00001F0ACFD204610BD2DE9F04383B004466C
:1021E0000D461646144F00224021384602F05AFB95
:1021F00044F0800011490870DFF8448088F800003E
:10220000104C4FF03709CDF8009001230E4A2046BC
:1022100003F0B5FDCDF8009033462A4641462046EE
:1022200003F0ADFD01224021384602F03BFB0020C7
:1022300003B0BDE8F08300BF00140240B10C0020E1
:1022400044000020B40C0020B00C002010B5302158
:102250006A20FFF7D5FE0A2001F068FD0D21242039
:10226000FFF7CEFE0A2001F061FD0E212820FFF7C6
:10227000C7FE0A2001F05AFD8E213120FFF7C0FE73
:102280000A2001F053FD01210B20FFF7EFFE0A2089
:1022900001F04CFD0020FFF783FF102802D001243D
:1022A000204610BD01210B20FFF7E0FE0A2001F0BF
:1022B0003DFD00210A20FFF7D9FE0A20FFF770FF3D
:1022C000002841D10A2001F031FD00210B20FFF749
:1022D000CDFE0B20FFF764FF0446B8BB0A2001F0D7
:1022E00025FD24214120FFF7C1FE4120FFF758FFC3
:1022F000242801D00424D3E70A2001F017FDC021CF
:102300004220FFF7B3FE4220FFF74AFFC02801D06A
:102310000524C5E70A2001F009FD00212A20FFF766
:102320006FFE0A2001F002FD00213420FFF768FE55
:102330000A2001F0FBFC062203210E20FFF7B6FE67
:10234000642001F0F3FCABE70224A9E70324A7E72C
:1023500008B5014606224920FFF73EFF08BD0000F0
:1023600038B5354D0E2229463B20FFF735FF2A7838
:102370006B7843EA0223314C2380AA78EB7843EA56
:10238000022363802A796B7943EA0223A380AA7926
:10239000EB7943EA0223A3812A7A6B7A43EA022388
:1023A000628B9B1AE381AA7AEB7A43EA0223A28B1F
:1023B0009B1A23822A7B6B7B43EA0223E28B9B1AC4
:1023C00063821F4D2846FFF7C3FF2868C4F8060044
:1023D000AB8863811B4D94E8070085E80700B4F9DA
:1023E0000C00FEF76DFC1849FEF772FD1749FEF769
:1023F000B3FBE860B4F90E00FEF762FC1449FEF787
:1024000067FD1449FEF764FD2861B4F91000FEF77A
:1024100057FC0F49FEF75CFD0E49FEF759FD686158
:10242000B4F91200FEF74CFC0949FEF751FD0949C9
:10243000FEF74EFDA86138BD300C0020400C002096
:10244000240C0020600C00205CEFA6430000A84193
:102450006F1283413333654208B5C10001F0F801C2
:102460001B20FFF7CDFD08BD08B5C10001F0F80144
:102470001C20FFF7C5FD08BD38B5002534E0354CFC
:102480000E2221463B20FFF7A7FE2378627842EA1E
:102490000322314B998A0A449A82A178E27842EA6F
:1024A0000122D98A0A44DA822179627942EA012238
:1024B000198B0A441A83217A627A42EA0122598BE3
:1024C0000A445A83A17AE27A42EA0122998B0A44A9
:1024D0009A83217B627B42EA0122D98B0A44DA8308
:1024E000052001F023FC0135B5F5967FC7DB1A4BBB
:1024F000B3F91410194A82FB0140C917C1EB6011EE
:102500009982B3F9161082FB0140C917C1EB601123
:10251000D982B3F9181082FB0140C917C1EB6011D1
:102520001983B3F91A1082FB0140C917C1EB60117E
:102530005983B3F91C1082FB0140C917C1EB60112C
:102540009983B3F91E1082FB0102C917C1EB621215
:10255000DA8338BD300C0020400C0020B5814E1BC2
:1025600010B586B0642001F0E1FB7520FFF7E4FDB3
:10257000224B18700024019402940394049405944F
:1025800048F26B03ADF8043040F26B33ADF806301F
:102590006C23ADF8083040F21A43ADF80A3041F62A
:1025A0001B03ADF80C3041F21C03ADF80E3040F2C5
:1025B0001D23ADF8103042F26A03ADF812300DE081
:1025C00006AB03EB440313F8131C13F8140CFFF7CA
:1025D00017FD012001F0AAFB0134E4B2092CEFD968
:1025E0000320FFF739FF0220FFF73EFFFFF72EFE23
:1025F000FFF742FF002006B010BD00BF200C0020F6
:10260000D0B56E4BB3F90600B3F9084000282CDBB7
:1026100000285DDB002840F39A80002C40F397806F
:10262000FDF740FF06460F462046FDF73BFF0246FA
:102630000B4630463946FEF7C9F884460C46002260
:102640005F4B604624F00041FEF71CFA002872D070
:102650005C4B5D4A1A605D4B5D4A1A605D4B5E4A99
:102660001A605E4B5E4A1A6075E0002CD0DAFDF706
:1026700019FF06460F462046FDF714FF02460B469B
:1026800030463946FEF7A2F806460C4600224C4B6F
:10269000304624F00041FEF7F5F960B1494B504A4D
:1026A0001A604A4B4C4A1A604A4B4E4A1A604B4BCE
:1026B0004D4A1A604FE0434B4C4A1A60434B4C4A18
:1026C0001A60444B4B4A1A60444B4B4A1A6042E032
:1026D000002C9FDDFDF7E6FE06460F462046FDF77F
:1026E000E1FE02460B4630463946FEF76FF80646D5
:1026F0000C460022324B304624F00041FEF7C2F96E
:1027000060B1304B3D4A1A60304B334A1A60314B4E
:102710002F4A1A60314B3A4A1A601CE0294B374A5B
:102720001A602A4B374A1A602A4B374A1A602B4BD9
:10273000364A1A600FE0364B224A1360234A324968
:102740001160244A2F491160244A136003E00028D5
:1027500001DD002C00DBD0BDFDF7A4FE06460F46D0
:102760002046FDF79FFE02460B4630463946FEF7EF
:102770002DF806460C460022114B304624F000414D
:10278000FEF780F960B10F4B224A1A600F4B224AC4
:102790001A60104B104A1A60104B204A1A60DAE790
:1027A000084B1C4A1A60094B124A1A60094B1C4A12
:1027B0001A600A4B1B4A1A60CDE700BF600C00206C
:1027C0000000F03F4000002052499D3AA40C002038
:1027D000355E7ABFA80C0020A8C64BBEAC0C00200A
:1027E0000AD7A3BBBE9F7A3F4ED111BC6F1203BC68
:1027F0007B140EBFE17A543F6F1203BB0AD7A33B91
:10280000A69B443C68910DBFE17A54BF99BB16BBAF
:1028100099BB163B0AD7233B355E7A3F6F12033CC8
:10282000295C0FBFBC74933B2DE9F04F8FB0AB4CCC
:1028300020682168FEF798FA08902068A84E316851
:10284000FEF792FA03902068A64D2968FEF78CFAED
:1028500004902068A44C2168FEF786FA814630680F
:102860003168FEF781FA059030682968FEF77CFA36
:10287000804630682168FEF777FA06902868296854
:10288000FEF772FA019028682168FEF76DFA07904A
:1028900020682168FEF768FA0290944D2A69944BEB
:1028A0001A606A69934B1A60AA69934B1A60B5F96A
:1028B0000000FEF705FA914F3860B5F90200FEF707
:1028C000FFF9DFF83CA2CAF80000B5F90400FEF7F2
:1028D000F7F98C4B1860B5F90600FEF7F1F9DFF84F
:1028E00028B2CBF80000B5F90800FEF7E9F9874CEB
:1028F0002060B5F90A00FEF7E3F9854D286001F084
:102900000FFA844E30603068834F3B68C01AFEF780
:10291000D3F98249FEF7DCFA009033683B60774FC9
:1029200038683968FEF720FA0646DAF80000DAF867
:102930000010FEF719FA01463046FEF70DF906467B
:10294000704B18681968FEF70FFA01463046FEF71B
:1029500003F9FFF737FB064638683146FEF704FAFD
:102960003860DAF800003146FEF7FEF9CAF80000D8
:10297000644A174610683146FEF7F6F93860DBF80E
:102980000000DBF80010FEF7EFF90646206821682A
:10299000FEF7EAF901463046FEF7DEF806462868FB
:1029A0002968FEF7E1F901463046FEF7D5F8FFF752
:1029B00009FB0646DBF800003146FEF7D5F9CBF8F7
:1029C000000020683146FEF7CFF9206028683146C4
:1029D000FEF7CAF92860DBF800000146FEF7BCF8F4
:1029E000064601994FF07C50FEF7B4F80299FEF7C5
:1029F000B1F8099001463046FEF7B6F90646206860
:102A00000146FEF7A9F8074649464046FEF7A2F8F8
:102A10000A9001463846FEF7A7F901463046FEF710
:102A20009BF8064628680146FEF796F80746069981
:102A30000498FEF791F80B9001463846FEF794F99A
:102A400001463046FEF788F80C90DBF8000001469E
:102A5000FEF782F8064641464846FEF77DF80146F5
:102A60003046FEF781F9064620680146FEF774F805
:102A7000074605994FF07C50FEF76CF80D900299CF
:102A8000FEF768F801463846FEF76EF90146304613
:102A9000FEF762F8064628680146FEF75DF807462D
:102AA00003990798FEF756F801463846FEF75CF999
:102AB00001463046FEF750F88146DBF8000001463B
:102AC000FEF74AF8064604990698FEF743F80746CB
:102AD00001463046FEF748F9804621E040000020DC
:102AE000A40C0020A80C0020AC0C0020600C0020DE
:102AF000140C0020180C00201C0C0020FC0B0020E3
:102B0000000C0020040C0020940C0020980C0020E5
:102B10009C0C0020A00C00202C0C00200000FA448B
:102B200020680146FEF718F8049007990398FEF70D
:102B300013F8064601460498FEF716F9014640468A
:102B4000FEF70AF8804628680146FEF705F803906C
:102B500001990D98FDF7FEFF069001460398FEF7D8
:102B600003F901464046FDF7F7FF8046DDF830C027
:102B700061466046FEF7F8F8039049464846FEF77E
:102B8000F3F801460398FDF7E7FFFDF79DFC0FF012
:102B9000E1FAFDF78BFF814639463846FDF7DCFF49
:102BA000039031463046FDF7D7FF04900599089809
:102BB000FDF7D0FF0199FDF7CDFF0299FDF7CCFF9E
:102BC000019049464846FDF7C7FF814601460998EE
:102BD000FEF7CAF8029041464046FDF7BDFF804629
:102BE00001463846FEF7C0F801460298FDF7B4FFEB
:102BF000074649460A98FEF7B7F802904146304624
:102C0000FEF7B2F801460298FDF7A6FF06464946D0
:102C10000B98FEF7A9F8814641460698FEF7A4F8FE
:102C200001464846FDF798FF8046DAF80000019912
:102C3000FEF79AF88146B44A10680499FEF794F8B2
:102C400001464846FDF786FF814620684146FEF76B
:102C50008BF8029028683146FEF786F80146029804
:102C6000FDF778FF01464846FDF776FF8146A64A04
:102C700010680399FEF778F80290A44B1868019940
:102C8000FEF772F801460298FDF764FF019028688C
:102C90003946FEF769F80546DBF800004146FEF7C5
:102CA00063F801462846FDF755FF01460198FDF7F8
:102CB00053FF0546954B18680499FEF755F8804672
:102CC000DAF800000399FEF74FF801464046FDF799
:102CD00041FF8046DBF800003146FEF745F8064626
:102CE00020683946FEF740F801463046FDF732FFCE
:102CF00001464046FDF730FF044600214846FEF7F6
:102D0000C7F900285BD100212846FEF7C1F9002849
:102D100055D100212046FEF7BBF900284FD17C4950
:102D20004846FEF721F8009E3146FEF71DF8DFF811
:102D3000E4A1DAF80010FDF70FFFCAF800007449AB
:102D40002846FEF711F83146FEF70EF8724F396843
:102D5000FDF702FF38606E492046FEF705F8314660
:102D6000FEF702F86D4E3168FDF7F6FE3060494619
:102D70004846FDF7F1FEDFF8A881D8F80010FDF70E
:102D8000EBFEDAF80010FDF7E7FEC8F80000294670
:102D90002846FDF7E1FE634D2968FDF7DDFE396841
:102DA000FDF7DAFE286021462046FDF7D5FE5E4C91
:102DB0002168FDF7D1FE3168FDF7CEFE20605B4F44
:102DC000386800F10040DFF85891D9F80010FDF79D
:102DD000CBFF0446564D2868DFF848A1DAF800100A
:102DE000FDF7C2FF01462046FDF7B4FE0646514CF2
:102DF0002068DFF834B1DBF80010FDF7B5FF0146BD
:102E00003046FDF7A7FE0099FDF7AEFFDFF82881F9
:102E1000D8F80010FDF7A0FE0190D8F80000D9F80E
:102E20000010FDF7A1FF06462868DBF80010FDF74B
:102E30009BFF01463046FDF78FFE06462068DAF814
:102E40000010FDF791FF01463046FDF783FE009923
:102E5000FDF78AFF3968FDF77FFE0290D8F8000081
:102E6000DAF80010FDF780FF06463868DBF800103E
:102E7000FDF77AFF01463046FDF76CFE06462068F6
:102E8000D9F80010FDF770FF01463046FDF764FEEB
:102E90000099FDF769FF2968FDF75EFE0646D8F840
:102EA0000000DBF80010FDF75FFF83463868DAF8B2
:102EB0000010FDF759FF01465846FDF74DFE8246CA
:102EC0002868D9F80010FDF74FFF01465046FDF77E
:102ED00041FE0099FDF748FF2168FDF73DFE82465F
:102EE000019B19461846FDF73FFF8146DDF808B003
:102EF00059465846FDF738FF01464846FDF72CFE77
:102F0000814631461AE000BF040C0020FC0B002073
:102F10000AD7233C080C00200C0C0020100C0020C9
:102F2000140C0020180C00201C0C0020A40C002005
:102F3000A80C0020AC0C0020400000203046FDF71B
:102F400013FF01464846FDF707FE814651465046AD
:102F5000FDF70AFF01464846FDF7FEFDFFF732F890
:102F6000814601460198FDF7FFFEC8F8000049467A
:102F70005846FDF7F9FE386049463046FDF7F4FE45
:102F8000286049465046FDF7EFFE20600FB0BDE8CF
:102F9000F08F00BF000000002DE9F0475A4D28686F
:102FA0000146FDF7D9FD594C2168FDF7DDFE0746C6
:102FB000DFF85CA1DAF800000146FDF7CDFD554EC3
:102FC0003168FDF7D1FE01463846FDF7C5FD0746DD
:102FD00020684FF04041FDF7C7FE2168FDF7C4FEB1
:102FE000804630680146FDF7B7FD3168FDF7BCFE4D
:102FF00001464046FDF7AEFD4FF07E51FDF7ACFDBA
:10300000FDF762FA804689463846FDF75DFA42468A
:103010004B460FF09DF83AA3D3E9002301F1004994
:103020004946FDF7A9FAFDF741FD3B4F3863286893
:103030004FF04041FDF798FE3168FDF795FE804660
:10304000DAF800000146FDF787FD2168FDF78CFEE8
:1030500001464046FDF780FDFDF736FA0FF050F8C7
:1030600027A3D3E9002301F100494946FDF784FA7B
:10307000FDF71CFDF86220680146FDF76DFD316823
:10308000FDF772FE0646DAF800000146FDF764FD22
:103090002968FDF769FE01463046FDF75DFD0646ED
:1030A00028684FF04041FDF75FFE2968FDF75CFEA0
:1030B000054620680146FDF74FFD2168FDF754FEE7
:1030C00001462846FDF746FD4FF07E51FDF744FDD1
:1030D000FDF7FAF904460D463046FDF7F5F92246AC
:1030E0002B460FF035F806A3D3E90023FDF744FA89
:1030F000FDF7DCFCB862BDE8F08700BFAFF30080ED
:103100006666666666A64C40A40C0020A80C0020EB
:1031100040000020AC0C0020600C002008B5FFF738
:103120001FF9FFF781FBFFF737FF08BD08B50E4811
:103130000E4B03604FF48273436000238360C360CF
:10314000036143614FF4007282613022C261036205
:10315000436283620A23C36202F0B2FD00B908BD74
:10316000FEF754FEFBE700BFB40C00200050014006
:1031700000B589B000230393049305930693079346
:103180000268154B9A4202D009B05DF804FB002199
:10319000019103F568435A6C42F480125A645A6CE8
:1031A00002F480120192019A02911A6B42F02002FD
:1031B0001A631B6B03F020030293029B4FF470739E
:1031C000039302230493032306930523079303A980
:1031D000024801F069FAD7E70050014000140240AC
:1031E00082B0002100910B4B5A6C42F480425A6429
:1031F0005A6C02F480420092009A01911A6C42F0DB
:1032000080521A641B6C03F080530193019B02B03F
:10321000704700BF00380240FEE7FEE7FEE7FEE72A
:10322000FEE770477047704708B500F06DFD08BDB8
:1032300008B5024801F048F808BD00BFD40B0020D3
:1032400008B5024801F040F808BD00BFD40B0020CB
:1032500038B5074D284603F05FF8064C14F8640FA4
:1032600000F030FC01222146284603F0B4F938BDB5
:10327000100D0020780E002010B5054C204603F0FC
:103280004BF801220349204603F0A5F910BD00BF09
:10329000580D0020440F002008B5024801F039FE07
:1032A00008BD00BF5C29002010B5054C204603F086
:1032B00033F801220349204603F08DF910BD00BF09
:1032C000A00D0020AC0F002010B5054C204603F0E7
:1032D00023F801220349204603F07DF910BD00BF09
:1032E000E80D00201410002010B5054C204603F016
:1032F00013F801220349204603F06DF910BD00BF09
:10330000300E00207C1000200120704708B505F029
:1033100001FA162303604FF0FF3008BD08B54FF0E7
:10332000FF31FFF7F3FFFEE770B50C4616460025A8
:1033300006E0AFF30080214601F8010B01350C4691
:10334000B542F6DB304670BD70B50C46164600251A
:1033500004E014F8010BAFF300800135B542F8DB4F
:10336000304670BD4FF0FF3070474FF400534B6054
:1033700000207047012070470020704710B50346B9
:103380000C4A0D490D48006840B10C4800680344E0
:10339000521A934206D8094A136010BD0748084CD8
:1033A0000460F2E705F0B6F90C2303604FF0FF303C
:1033B000F3E700BF00000320000400000C0D002014
:1033C000A83000207047000008B50A480A4B036087
:1033D0004FF4E133436000238360C36003610C2238
:1033E00042618361C36102F0DBFE00B908BDFEF7F4
:1033F0000DFDFBE7E80D00200078004008B50A4805
:103400000A4B03604FF4E133436000238360C360E1
:1034100003610C2242618361C36102F0C1FE00B905
:1034200008BDFEF7F3FCFBE7300E0020007C0040F7
:1034300008B50A480A4B03604FF416534360002353
:103440008360C36003610C2242618361C36102F047
:10345000A7FE00B908BDFEF7D9FCFBE7100D002060
:103460000044004008B50A480A4B03604FF4E133BA
:10347000436000238360C36003610C224261836167
:10348000C36102F08DFE00B908BDFEF7BFFCFBE78B
:10349000580D00200048004008B50A480A4B036058
:1034A0004FF4E133436000238360C36003610C2267
:1034B00042618361C36102F073FE00B908BDFEF78B
:1034C000A5FCFBE7A00D00200014014030B591B031
:1034D00000230B930C930D930E930F930368764A7E
:1034E00093420FD0754A934238D0754A93425FD0C9
:1034F000744A934200F08780734A934200F0AF8091
:1035000011B030BD00240194704B1A6C42F080421F
:103510001A641A6C02F080420192019A02941A6BAA
:1035200042F010021A631B6B03F010030293029B1C
:103530004FF4C0730B9302230C9303230E930823C1
:103540000F930BA9624801F0AFF8224604215220E4
:1035500000F0F2FF522001F027F8D1E70024039495
:103560005A4B1A6C42F000421A641A6C02F0004284
:103570000392039A04941A6B42F010021A631B6BB5
:1035800003F010030493049B03230B9302220C9279
:103590000E9308230F930BA94D4801F085F822469E
:1035A0000521532000F0C8FF532000F0FDFFA7E7DE
:1035B00000240594454B1A6C42F400321A641A6CCC
:1035C00002F400320592059A06941A6B42F0080242
:1035D0001A631B6B03F008030693069B60230B938F
:1035E00002230C9303230E9307230F930BA939484F
:1035F00001F05AF822460121262000F09DFF2620E6
:1036000000F0D2FF7CE700240794304B1A6C42F4A0
:1036100080221A641A6C02F480220792079A089496
:103620001A6B42F008021A631B6B03F0080308933D
:10363000089B4FF440730B9302250C9503230E93C4
:1036400007230F930BA9234801F02EF822462946A1
:10365000272000F071FF272000F0A6FF50E700248C
:1036600009941A4B5A6C42F020025A645A6C02F0C8
:1036700020020992099A0A941A6B42F040021A63D6
:103680001B6B03F040030A930A9B4FF484430B9394
:1036900002230C9303250E9508230F930BA90E48C4
:1036A00001F002F822462946472000F045FF472056
:1036B00000F07AFF24E700BF00780040007C004063
:1036C000004400400048004000140140003802401F
:1036D00000100240000C02400018024008B5012210
:1036E0000C490D4802F077FF01220C490C4802F00A
:1036F00072FF01220B490C4802F06DFF01220B49B9
:103700000B4802F068FF01220A490B4802F063FFF0
:1037100008BD00BFDC0E0020100D0020440F00206B
:10372000580D0020AC0F0020A00D00201410002028
:10373000E80D00207C100020300E0020194B93F87B
:103740006530FF2B14D0184B93F86530FF2B14D045
:10375000164B93F86530FF2B14D0154B93F865305A
:10376000FF2B14D0134B93F86530FF2B14D0704708
:103770000C4B002283F86520E5E70B4B002283F811
:103780006520E5E7094B002283F86520E5E7084B53
:10379000002283F86520E5E7064B002283F86520C8
:1037A000E5E700BF780E0020E00E0020480F002063
:1037B000B00F00201810002000238B4239D210B522
:1037C00004E0012A1BD001338B4231D210F803C030
:1037D000184A92F89021002AF3D1BCF1280FF2D1B7
:1037E000144C4FF0000E84F891E14FF0010E84F874
:1037F00091E184F800C0724484F89021E3E70D4C15
:1038000094F891E10EF10102D2B284F8912104F80A
:103810000EC0BCF1290FD6D102F1010C84F891C180
:103820004FF0000C04F802C0FF2284F89021CAE790
:1038300010BD70478010002010B50A46054C0146A7
:10384000204603F0CCFE204603F0E3FE012000F00A
:103850006DFA10BD781400200FB410B582B004AA20
:1038600052F8041B0192084C204606F0C7FB204684
:10387000FDF7E6FF01462046FFF7DEFF02B0BDE898
:10388000104004B0704700BF48110020344B93F83B
:103890009031FF2B00D07047F0B589B031493048E6
:1038A000FDF752FE70B130492D48FDF74DFE08B3CB
:1038B0002B4B5B784D2B35D0294B002283F8902180
:1038C00009B0F0BD294BDE6A1F6B986AFCF7FCFD5E
:1038D00004460D463846FCF7F7FDCDE902013046B7
:1038E000FCF7F2FDCDE9000122462B462048FFF708
:1038F000B3FFE1E71F4BDE691F6A9869FCF7E4FD3F
:1039000004460D463846FCF7DFFDCDE9020130469E
:10391000FCF7DAFDCDE9000122462B461648FFF7F9
:103920009BFFC9E707AB019306AB009305AB04AA65
:1039300012490B4804F06AFFBDF91C30BDF918208C
:10394000BDF91410BDF91000FEF72AF9079B00938A
:10395000069B059A04990A48FFF77EFFACE700BF73
:1039600080100020C42C0108F82C0108600C0020F5
:10397000CC2C010844140020002D01081C2D010846
:103980002C2D010810B54FF0000C4FF0FF0E7246C1
:103990000BE010F80C305340064AD25C82EA0E026B
:1039A000054C14F803E00CF1010C6145F1DC4EEA22
:1039B000022010BD4C2D01084C2E01088446002029
:1039C000034604E01CF803201044C0B201338B42CC
:1039D000F8D370472DE9F0418F1D50380F2822D8B9
:1039E000DFE800F00E082353292F34393E434821E5
:1039F0002121214D012403254FF04008342603E006
:103A000000240425A0463026032A44D055B16A007C
:103A1000294800EB4600FDF7EFFC284B1B682946C0
:103A200030469847D4BBBDE8F08100240425A04669
:103A300037260322E8E700240425A0463A2603227D
:103A4000E2E700240425A0464126DDE70024042502
:103A5000A0464526D8E700240425A0464926D3E7FA
:103A600000240425A0464D26CEE700240425A046C8
:103A70005126C9E700240425A0465526C4E7104B6B
:103A80001E6800240425A046BEE7012403254FF04C
:103A90002E083D26B8E715460024B8E762003946EF
:103AA000054800EB4800FDF7A7FC044B1B682146C6
:103AB00040469847B7E700BF1812002014120020B4
:103AC0003C140020F0B583B0544B1E68002E00F06B
:103AD0009E80534B1D68691C1960524B5855524BC0
:103AE0001B68062B00F28E80DFE803F0044589890D
:103AF000044589004B4B1B78552B12D10A2940F203
:103B00008180484C0A212046FFF758FFA37A834260
:103B10000FD0434B1D6020462A46611CFDF76CFC0C
:103B200075E03F4B1D603F482A46411CFDF764FC91
:103B30006DE03C4BD9789A7842EA0122ADF800203A
:103B400059791A7942EA0122ADF80220D9799A7995
:103B500042EA0122ADF80420597A1A7A42EA012297
:103B6000ADF80620042269465878FFF733FF2C4B46
:103B700000221A6046E0022944D92A4B5B78032BC5
:103B800026D1284B9F787B1D994240D38A1E254B16
:103B90009C5C40EA042491B21846FFF7F3FE84428D
:103BA0001ED179080D460023AB4221D25A00D01C09
:103BB0001C4C14F800C00432A05C1C4A12681A4461
:103BC00040EA0C201A4C24F8120001339BB2EBE7B8
:103BD000134B1D6013482A46411CFDF70DFC16E0EF
:103BE0000F4B1D600F482A46411CFDF705FC0EE0F7
:103BF0000E4B1868B0470A4B00221A6002E0084BCF
:103C000000221A60064B1B68B3F5807F01D003B019
:103C1000F0BD034B00221A60F9E700BF1412002028
:103C20004014002038130020381400203C140020D9
:103C300018120020DFF834D0FFF7C4FB0C480D4900
:103C40000D4A002302E0D458C4500433C4188C42F7
:103C5000F9D30A4A0A4C002301E013600432A2425D
:103C6000FBD304F05DFDFEF727F970470000032049
:103C700000000020FC0A00203C360108FC0A00205D
:103C8000A8300020FEE7000010B504460E4B18785F
:103C90004FF47A73B3FBF0F30C4A1068B0FBF3F007
:103CA00000F090FC68B90F2C01D901200AE0002235
:103CB00021464FF0FF3000F03FFC054B1C60002018
:103CC00000E0012010BD00BF58000020540000207B
:103CD0005C00002008B50B4B1A6842F400721A60B1
:103CE0001A6842F480621A601A6842F480721A609C
:103CF000032000F00FFC0F20FFF7C6FFFFF770FA5C
:103D0000002008BD003C0240034A1168034B1B78A9
:103D10000B441360704700BF70140020580000204F
:103D2000014B1868704700BF7014002038B5044676
:103D3000FFF7F6FF0546B4F1FF3F02D0044B1B78B6
:103D40001C44FFF7EDFF401BA042FAD338BD00BF73
:103D500058000020002800F0A18038B5044690F8F3
:103D60002030D3B12268136843F001031360FFF7DA
:103D7000D7FF054623685A6812F0010F10D1FFF7EC
:103D8000CFFF401B0A28F5D9636A43F4003363620E
:103D9000052384F82030012038BDFDF785FFE1E7D9
:103DA0001A6822F002021A60FFF7BAFF054623687C
:103DB0005A6812F0020F0DD0FFF7B2FF401B0A281D
:103DC000F5D9636A43F400336362052384F8203035
:103DD0000120E1E7227E012A3DD01A6822F080020C
:103DE0001A60637E012B3BD02268136823F04003E6
:103DF0001360A37E012B39D02268136823F02003BF
:103E00001360E37E012B37D02268136843F0100360
:103E10001360237F012B35D02268136823F0080339
:103E20001360637F012B33D02268136823F00403EF
:103E30001360A368E2681343226913436269134362
:103E40006268013A21681343CB610020606201235C
:103E500084F82030A0E71A6842F080021A60C0E7B8
:103E60002268136843F040031360C2E722681368B6
:103E700043F020031360C4E72268136823F01003A3
:103E80001360C6E72268136843F008031360C8E7AD
:103E90002268136843F004031360CAE701207047E7
:103EA00090F82030013BDBB2012B05D9436A43F483
:103EB000802343620120704710B5474BD3F800229E
:103EC00042F00102C3F80022D3F8002222F47C520F
:103ED000C3F80022D3F80022486A42EA0022C3F85D
:103EE00000224A6902F01F02012000FA02F2D3F810
:103EF0001C026FEA020C20EA0200C3F81C02CB6924
:103F0000CBB9354BD3F80C020CEA0000C3F80C0215
:103F10008C884869D1F80CE044EA0E44483043F8F4
:103F200030408C68088840EA04404C6904F1480E2F
:103F300003EBCE035860CB69012B1ED08B69002B9D
:103F400035D12548D0F804320CEA0303C0F8043216
:103F50000B699BBB2048D0F814320CEA0303C0F86D
:103F600014320B6A012B30D01B4AD2F8003223F0F6
:103F70000103C2F80032002010BD174BD3F80C0229
:103F80001043C3F80C028C884869D1F800E044EA79
:103F90000E44483043F8304088894C69D1F808E035
:103FA00040EA0E40483403EBC4035860C6E70A48B1
:103FB000D0F804321343C0F80432C9E70648D0F8F9
:103FC00014321343C0F81432CBE70349D1F81C3242
:103FD0001A43C1F81C22C7E70064004070B50446CC
:103FE00090F82050EDB2012D06D0436A43F400232F
:103FF00043620125284670BD022380F82030026804
:10400000136823F001031360FFF78AFE0646236856
:104010005B6813F0010F0CD0FFF782FE831B0A2BA5
:10402000F5D9636A43F400336362052384F82030D2
:10403000E0E700256562DDE730B590F820C0046850
:10404000A4680CF1FF3C5FFA8CFCBCF1010F62D854
:1040500014F0E05F59D0C4F3016C012404FA0CF4AD
:104060001C608B68002B3DD10D68CB68046843EA67
:1040700045550CF118031B01E55003680C690CF160
:10408000180E03EB0E135C600B7D012B35D0D1793C
:1040900093791B0443EA0163517943EA01231479BC
:1040A0000168234301EB0C11C1F88C31D17893786E
:1040B0001B0443EA0163517843EA01231178026843
:1040C0000B4302EB0C12C2F8883102680CF1180C99
:1040D0004FEA0C1C52F80C3043F0010342F80C304C
:1040E00000201DE04C6843EAC403CC6823430CF174
:1040F0001804240105682B51BFE7036803EB0E1376
:10410000596841F480715960C1E7436A43F4001370
:104110004362012004E0436A43F4802343620120A8
:1041200030BD90F820C00CF1FF3C5FFA8CFCBCF174
:10413000010F00F2A58030B451B90468E46814F0AE
:10414000030F10D1436A43F40013436201207EE061
:104150000468246914F0030F05D1436A43F4001383
:104160004362012073E0056801F11B0424012C590E
:1041700004F004049460002C6BD1056801F11B0469
:1041800024012C59640D1460046801F11B0C4FEAE2
:104190000C1C54F80C4004F00204D4600468A444DD
:1041A000DCF8045015F0080F5BD008241461056892
:1041B00001F11B0C05EB0C156D68C5F30725956126
:1041C000046804EB0C146468240C5461026802EB6C
:1041D0000112D2F8B8211A70026802EB0112D2F86B
:1041E000B821C2F307225A70026802EB0112D2F81A
:1041F000B821C2F307429A70026802EB0112D2F8AA
:10420000B821120EDA70026802EB0112D2F8BC215A
:104210001A71026802EB0112D2F8BC21C2F3072224
:104220005A71026802EB0112D2F8BC21C2F30742B4
:104230009A71026802EB0112D2F8BC21120EDA71F7
:10424000C1B90268D36843F02003D360002030BCBA
:104250007047056801F11B0424012C59E4085460DF
:1042600092E701F11B0504EB0514646804F00F04E8
:1042700014619CE70268136943F020031361E5E7CA
:10428000436A43F4802343620120704790F8203052
:10429000013BDBB2012B05D9436A43F4802343621F
:1042A000012070470268536919435161002070472B
:1042B0007047704770477047704770477047704746
:1042C00070477047704770472DE9F84F05460368FF
:1042D0005C69D3F804809F68D3F80CB0D3F810A0C1
:1042E000D3F8189014F001063BD017F0010616D051
:1042F00001229A6017F0020F08D117F0040F0CD1B9
:1043000017F0080606D04FF4805608E0FFF7D0FFFC
:10431000002604E0FFF7CFFF01E04FF4006617F43A
:10432000807F0DD02B684FF480729A6017F4007F65
:1043300040F0868017F4806F00F0868046F40056C7
:1043400017F4803F0DD02B684FF480329A6017F439
:10435000003F40F0838017F4802F00F0838046F404
:10436000004614F0080F07D01BF0100F04D046F4DD
:1043700000762B681022DA6014F0040F02D01BF0D4
:10438000080F79D114F0020F04D02B68DB6813F00A
:10439000030F78D114F0400F07D01AF0100F04D09B
:1043A00046F480662B6810221A6114F0200F02D0A8
:1043B0001AF0080F6BD114F0100F04D02B681B6992
:1043C00013F0030F6AD114F4003F02D018F0100F5D
:1043D00068D114F4803F02D018F0080F69D114F4AA
:1043E000004F7AD018F0040F74D014F4807F04D0FA
:1043F00019F0010F01D046F0010614F4007F04D03B
:1044000019F0020F01D046F0020614F4806F04D0B8
:1044100019F0040F01D046F0040614F4006F59D0CF
:1044200019F0700956D0B9F1400F65D058D8B9F1DC
:10443000200F5ED0B9F1300F42D146F0200644E0A3
:104440002846FFF736FF7BE717F4006F02D046F4EB
:10445000804675E72846FFF72FFF71E72846FFF7EC
:1044600029FF7EE717F4002F02D046F4803678E764
:104470002846FFF722FF74E72B680822DA602846F7
:10448000FFF71CFF7EE72846FDF762FB82E72B68FB
:1044900008221A612846FFF713FF8CE72846FFF72A
:1044A0000EFF90E72B6810225A602846FFF709FF9D
:1044B0008FE72B6808225A602846FFF703FF8EE734
:1044C000B9F1100F01D146F008062A68936923F06C
:1044D000700393612B6804225A609EB9BDE8F88F7F
:1044E000B9F1500F0BD0B9F1600FEED146F48076E0
:1044F000EBE746F01006E8E746F04006E5E746F051
:104500008006E2E76B6A1E436E622846FFF7DBFE19
:10451000E4E70000074AD36823F4E0631B041B0CA4
:10452000000200F4E060034343F0BF6343F4003350
:10453000D360704700ED00E000B5194BDB68C3F3B2
:104540000223C3F1070CBCF1040F28BF4FF0040C89
:1045500003F1040EBEF1060F18D9033B4FF0FF3EE6
:104560000EFA0CFC21EA0C0199400EFA03F322EA40
:104570000303194300280BDB0901C9B200F16040B5
:1045800000F5614080F800135DF804FB0023E5E7C7
:1045900000F00F000901C9B2024B1954F4E700BF43
:1045A00000ED00E014ED00E0002807DB00F01F0242
:1045B000400901239340024A42F82030704700BF6F
:1045C00000E100E00138B0F1807F0BD24FF0E02332
:1045D0005861054AF02182F82310002098610722D3
:1045E0001A6170470120704700ED00E070B5044685
:1045F000866DFFF795FB94F83530DBB2022B06D0C1
:1046000080236365002384F83430012070BD0546A3
:104610002268136823F0160313602268536923F09D
:1046200080035361236CE3B12268136823F008030D
:1046300013602268136823F00103136023681B686A
:1046400013F0010F11D0FFF76BFB431B052BF5D9BE
:1046500020236365032084F83500002384F8343078
:10466000D4E7A36C002BDFD1E3E7E26D3F23934057
:10467000B360012384F83530002084F83400C5E7A6
:1046800090F83530DBB2022B03D080234365012044
:104690007047052380F835300268136823F0010362
:1046A000136000207047000000230F2B00F2F18000
:1046B00070B582B061E085685E000324B44025EAED
:1046C0000405CC68B4402C438460456825EA0205A3
:1046D0004C68C4F300129A402A4342605BE0DC0855
:1046E000083450F8246003F0070295000F22AA4016
:1046F00026EA020E0A69AA4042EA0E0240F8242085
:104700005DE0092200E0002202FA0EF22A430234A0
:10471000604D45F82420604A94686FEA0C0224EA50
:104720000C054E6816F4801F01D04CEA04055A4C63
:10473000A560E46802EA04054E6816F4001F01D083
:104740004CEA0405544CE560646802EA04054E68CE
:1047500016F4003F01D04CEA04054F4C6560246814
:1047600022404D6815F4803F01D04CEA04024A4CC7
:10477000226001330F2B00F28A8001229A400C68DC
:1047800004EA020C32EA0404F3D14C6804F0030496
:10479000013C012C8FD94A6802F00302032A09D098
:1047A000C4685D000322AA4024EA02048A68AA4081
:1047B0002243C2604A6802F00302022A8FD00468D2
:1047C0004FEA430E032202FA0EF224EA02044A6878
:1047D00002F0030202FA0EF2224302604A6812F467
:1047E000403FC6D0002201922C4A546C44F48044CD
:1047F0005464526C02F480420192019A9C08A51CF8
:10480000244A52F8255003F003024FEA820E0F2289
:1048100002FA0EF225EA0205214A90423FF473AFF4
:1048200002F58062904222D002F58062904220D050
:1048300002F5806290421ED002F5806290421CD048
:1048400002F5806290421AD002F58062904218D040
:1048500002F58062904216D002F58062904214D038
:1048600002F5806290423FF44CAF0A224CE70122ED
:104870004AE7022248E7032246E7042244E70522EA
:1048800042E7062240E707223EE708223CE702B063
:1048900070BD704700380140003C014000380240C4
:1048A000000002400AB181617047090481617047CC
:1048B0002DE9F04383B0D0F8008001EBC10300EB99
:1048C00083039A6A5B6A9A4254D807460C469B1A3D
:1048D00001EBC10200EB8202D2699A4200D31A4670
:1048E00002F103094FEA990915E006F103094FEABD
:1048F0009909BB7904EBC40507EB8505296A009388
:10490000B3B2E2B2404602F0ADF92B6A33442B62F7
:10491000AB6A3344AB6208EB441303F510639B6945
:104920009BB24B4512D304EBC40207EB8202916A9F
:10493000536A99420AD24BB15B1A04EBC40207EBEB
:104940008202D6699E42D0D31E46CEE704EBC40055
:1049500007EB80077A6ABB6A9A420FD804F00F040B
:104960000123A340D8F8344824EA0304C8F83448A3
:10497000002000E0012003B0BDE8F0830020FAE74A
:1049800030B583B000287AD00446056890F8953495
:10499000C3B1032384F89534B5F1A04F17D0206834
:1049A00001F012FF237C8DF80030231D0ECB206810
:1049B00001F049FE70B1022384F8953401252846A0
:1049C00003B030BD80F8943403F050FDE1E70023DC
:1049D000A371E4E70021206802F065FB024608B9F4
:1049E000034617E0022384F895340125E7E703EB3B
:1049F000C30104EB8101012048750B75CB850020B4
:104A00000876C861086203EBC30104EB81014862C8
:104A10000133DBB220799842E9D816E002EBC203F9
:104A200004EB8303002183F8551283F8542283F8A2
:104A30005812C3F85C12C3F8601202EBC20304EB15
:104A40008303C3F864120132D2B29042E6D8237CC9
:104A50008DF80030231D0ECB206801F00BFF0546BA
:104A600020B1022384F895340125A8E7002363745C
:104A7000012384F89534206802F0D3FA9FE70125DA
:104A80009DE7036890F89424012A1AD010B50446D3
:104A9000012280F89424DA6812F0400F02D0427BA1
:104AA000012A09D0206801F089FE206802F0ABFAE3
:104AB000002084F8940410BD9A6B42F480329A630B
:104AC000F0E702207047000070B504460D4600680C
:104AD000066C00EB411303F530639A68A179012954
:104AE00011D038498E4256D03DB905EBC50304EBD1
:104AF0008303D3F86432002B5ED0E9B2204603F082
:104B0000FFFC002070BD12F0080F09D02E498E4224
:104B1000F7D912F4004FF4D04FF400429A60F0E756
:104B200012F0200F02D020229A60EAE712F0280F3C
:104B3000E7D125498E4206D912F4004F03D04FF435
:104B400000429A60DDE705EBC50204EB8202D2F871
:104B500074121B69C3F31203CB1AC2F868327DB911
:104B600005EBC50204EB8202D2F864226AB105EBC0
:104B7000C50204EB8202D2F860120B44C2F8603224
:104B8000E9B2204603F0BCFCBBE704F29C420121E1
:104B900002F0CAFAF4E712F4004F03D04FF40042D7
:104BA0009A60AEE712F0200F01D020229A60E9B29D
:104BB000204603F0A5FCA4E704F29C42002102F089
:104BC000B3FA9AE70A31544F0A30544F38B50446C5
:104BD00003681D6C03EB4113D3F8081B0E4A954282
:104BE00007D903F5306311F4004F02D04FF40042AF
:104BF0009A60204603F07CFC074B9D4202D9A379C2
:104C0000012B01D0002038BD04F29C420121206814
:104C100002F08AFAF6E700BF0A30544F90F8943455
:104C2000012B0CD010B50446012380F89434417454
:104C3000006802F0D8F9002084F8940410BD022026
:104C4000704738B505468C4611F0800F2BD101F026
:104C50000F0E0EEBCE04A40004F514740444211DC1
:104C60000EEBCE0E00EB8E0E00208EF855020CF0EF
:104C70000F0C81F800C0C2F30A028A600B714A78F7
:104C80000AB1A1F81AC0022B1CD095F89434012B5C
:104C90001BD0012385F89434286801F0C6FE00205B
:104CA00085F8940438BD01F00F0000EBC0018900C5
:104CB00010312944043100EBC00005EB80000124D1
:104CC0004475D4E700234B71DFE70220EAE710B513
:104CD00004460A4611F0800F20D101F00F0000EBCE
:104CE000C0039B0003F514732344191D00EBC0009F
:104CF00004EB8000002380F8553202F00F020A70A6
:104D000094F89434012B18D0012384F8943420684B
:104D100001F0DAFE002084F8940410BD01F00F00C9
:104D200000EBC0039B0010332344191D00EBC000AF
:104D300004EB800001234375DFE70220EDE710B5A7
:104D4000144601F00F0C0CEBCC01890001F5147135
:104D5000014404310CEBCC0E00EB8E0ECEF8602239
:104D6000CEF864320023CEF868328EF855328EF8D1
:104D700054C28279012A04D0006801F08BFF002020
:104D800010BDCEF87042F7E701F00F0101EBC10151
:104D900000EB8101D1F86802704710B5144601F0AC
:104DA0000F0C0CEBCC0189001031014404310CEBE9
:104DB000CC0E00EB8E0ECEF82020CEF8243000234F
:104DC000CEF8283001238EF815308EF814C0827981
:104DD0009A4204D0006801F05DFF002010BDCEF8BB
:104DE0003040F7E738B501F00F050279AA4238D311
:104DF00004460B4611F0800F1FD101EBC101890061
:104E000001F514710144043103EBC30300EB830388
:104E1000002283F8552201238B700D7094F894348E
:104E2000012B20D0012384F89434206802F080F80C
:104E300085B1002084F8940438BD05EBC5018900D4
:104E400010310144043105EBC50300EB830301225B
:104E50005A75E0E704F29C42A179206802F064F9F7
:104E6000E7E70120E8E70220E6E701F00F03027917
:104E70009A4230D310B5044611F0800F1ED103EBD7
:104E8000C301890001F514710144043103EBC3022D
:104E900000EB8202002082F8550200228A700B701B
:104EA00094F89434012B18D0012384F894342068AA
:104EB00002F06BF8002084F8940410BD03EBC301EA
:104EC000890010310144043103EBC30200EB82027C
:104ED00001205075E1E7012070470220EDE708B599
:104EE00011F0800F0CD101F00F0101EBC10189001D
:104EF00001F5147101440431006801F055FE08BD4C
:104F000001F00F0101EBC1018900103101440431AE
:104F1000F2E72DE9F04F83B004460568284602F019
:104F2000BEF810B103B0BDE8F08F0646206802F06D
:104F300086F80028F6D005F50067BB68C3F30D239B
:104F4000C4F8D434206802F07AF810F0020F04D0CC
:104F50002268536903F002035361206802F06FF87E
:104F600010F0100F13D02268936923F0100393619F
:104F7000D5F8208008F00F09C8F34343022B4BD02B
:104F8000062B6FD02268936943F010039361206869
:104F900002F055F810F4002F76D1206802F04FF897
:104FA00010F4802F40F0E080206802F048F80028DC
:104FB000C0F26181206802F042F810F4006F09D05D
:104FC000BB6813F0010F40F06E812268536903F44F
:104FD00000635361206802F032F810F4805F40F003
:104FE0006681206802F02BF810F4005F40F0B38176
:104FF000206802F024F810F0080F40F0C481206807
:1050000002F01DF810F0800F00F0D781AB6923F09B
:105010008003AB610126C0E147F6F07318EA030F85
:10502000B0D04FEA181B4FEAC903019309EBC90A34
:1050300004EB8A0AC8F30A12DAF86012284601F073
:105040004DFFCBF30A0BDAF860325B44CAF86032EA
:10505000019B4B4404EB8303D3F868325B44CAF8EA
:1050600068328FE7082204F29C41284601F036FF9F
:10507000C8F30A1809EBC90204EB8202D2F86832BD
:105080004344C2F868327DE7206801F0DCFF8046C7
:10509000B14635E005EB49130122C3F8082B494618
:1050A0002046FFF711FD3CE005EB49130822C3F849
:1050B000082B49462046FFF789FD35E009EBC90377
:1050C00004EB830393F85732012B41D005EB4913CE
:1050D0000222C3F8082B1AF0200F04D005EB491365
:1050E0002022C3F8082B1AF4005F05D005EB491302
:1050F0004FF40052C3F8082B09F101094FEA580890
:10510000B8F1000F3FF449AF18F0010FF4D05FFA87
:1051100089FB5946206801F0A6FF824610F0010F76
:10512000B8D11AF0080FBFD11AF0100F04D005EB58
:1051300049131022C3F8082B1AF0020FCBD06B6969
:1051400013F0800FBAD07B6843F480637B60B5E7CF
:1051500009EBC90304EB8303002283F85722594665
:10516000204603F01DFAB1E7206801F074FF804685
:10517000B14625E05946204603F0CEF91AF0080F53
:1051800004D005EB49130822C3F808291AF0100FC0
:1051900004D005EB49131022C3F808291AF0400F78
:1051A00004D005EB49134022C3F808291AF0020F76
:1051B00040D11AF0800F59D109F101094FEA58087E
:1051C000B8F1000F3FF4F0AE18F0010FF4D05FFA21
:1051D00089FB5946206801F04FFF824610F0010F0D
:1051E000CCD009F00F03012101FA03F27B6B23EA13
:1051F00002037B6305EB4913C3F80819A3798B42BB
:10520000B8D109EBC90304EB8303D9691A6A0A44CC
:105210001A62B9F1000FADD109EBC90304EB8303A6
:105220005B6A002BA6D104F29C420121206801F0A8
:105230007BFF9FE74946284601F0CCFA09EBC903FA
:1052400004EB8303DB7D012B05D005EB4913022220
:10525000C3F80829ADE709EBC90304EB8303002277
:10526000DA755946204603F0A1F9EEE74946204693
:10527000FFF71EFBA0E77B6823F001037B6094F837
:10528000CC34012B08D0204603F084F922685369FE
:1052900003F0004353618DE6002184F8CC142046CE
:1052A00000F03EF9F2E7204603F05CF98DE67B68FA
:1052B00023F001037B601021206801F08BFA1AE0D3
:1052C00005EB46134FF67F31C3F80819D3F80029D0
:1052D00022F40012C3F80029C3F8081BD3F8002BEE
:1052E00022F40012C3F8002BD3F8002B42F0006226
:1052F000C3F8002B01362379B342E1D8FB6943F0B0
:105300000113FB61E37BDBB1D7F8843043F00B037F
:10531000C7F884307B6C43F00B037B64D5F800380E
:1053200023F4FE63C5F8003804F29C42A17920689A
:1053300001F0FAFE2268536903F48053536150E68A
:105340007B6943F4005343F02B037B613B6943F0DB
:105350000B033B61E2E7206801F0D6FE206801F014
:1053600053FBE071266800F0DBFB0146E279304632
:1053700001F0B2F9204603F0E0F82268536903F423
:105380000053536134E6204603F0D1F82268536994
:1053900003F00803536132E601362379B3420CD996
:1053A00006EBC60304EB830393F85732012BF3D1CA
:1053B000F1B22046FFF793FDEEE7206801F03FFED3
:1053C00010F4801F25D1206801F039FE10F4001F71
:1053D00059D0012326E001362379B3421BD905EBCE
:1053E0004613D3F8002906EBC60304EB83031B7EA8
:1053F000012BF0D1002AEEDA06EBC60304EB83039F
:105400000122DA7566F07F01C9B22046FFF767FD19
:10541000E1E70126E0E72268536903F48013536152
:10542000D1E7013322799A4228D905EB4312D2F809
:10543000001B03EBC30204EB820292F85822012AFC
:10544000EFD10029EDDA01F48031D4F8D42402F050
:1054500001029142E5D103EBC30204EB8202012178
:1054600082F85712AA6942F08002AA616A6912F0B2
:10547000800FD6D17B6843F400737B602268536948
:1054800003F400135361206801F0D9FD10F0804F40
:1054900010D1206801F0D3FD10F0040F3FF442ADAD
:1054A00023685D6815F0040F0DD1226853682B4303
:1054B000536037E5204603F07FF82268536903F014
:1054C00080435361E5E7204603F07CF8EDE710B434
:1054D0000468606A29B940EA0240A062002010BC5A
:1054E00070478C46A36A00EB1340002308E003F1E9
:1054F000400104EB8101496800EB11400133DBB24C
:105500000CF1FF318B42F2D340EA02400CF13F0133
:1055100004EB81014860E1E70368596200207047AD
:1055200070470000002800F0E08170B582B00446AA
:10553000036813F0010F3BD09F4B9B6803F00C03F3
:10554000042B2CD09C4B9B6803F00C03082B21D020
:105550006368B3F5803F4FD0B3F5A02F52D0964B80
:105560001A6822F480321A601A6822F480221A60C3
:105570006368002B50D0FEF7D3FB05468E4B1B68AB
:1055800013F4003F14D1FEF7CBFB401B6428F5D980
:105590000320B1E1884B5B6813F4800FD8D0864BB1
:1055A0001B6813F4003F03D06368002B00F09F8159
:1055B000236813F0020F54D07F4B9B6813F00C0F3D
:1055C0003ED07D4B9B6803F00C03082B33D0E3687F
:1055D000002B68D0794B01221A60FEF7A1FB05462B
:1055E000754B1B6813F0020F54D1FEF799FB401B5B
:1055F0000228F5D903207FE16F4A136843F4803312
:105600001360B5E76C4B1A6842F480221A601A687E
:1056100042F480321A60ABE7FEF782FB0546664B28
:105620001B6813F4003FC3D0FEF77AFB401B6428CD
:10563000F5D9032060E1604B5B6813F4800FC6D19D
:105640005D4B1B6813F0020F03D0E368012B40F0A1
:105650005081594A136823F0F803216943EAC103D2
:105660001360236813F0080F42D063696BB3534B88
:105670000122C3F8802EFEF753FB05464E4B5B6FAD
:1056800013F0020F34D1FEF74BFB401B0228F5D973
:10569000032031E1484A136823F0F803216943EA03
:1056A000C1031360DDE7454B00221A60FEF738FBAB
:1056B0000546414B1B6813F0020FD2D0FEF730FBBA
:1056C000401B0228F5D9032016E13C4B0022C3F809
:1056D000802EFEF725FB0546374B5B6F13F0020F5C
:1056E00006D0FEF71DFB401B0228F5D9032003E17D
:1056F000236813F0040F77D02F4B1B6C13F0805FDF
:1057000033D1002301932C4B1A6C42F080521A645F
:105710001B6C03F080530193019B0125284B1B68F0
:1057200013F4807F23D0A368012B34D0052B38D00D
:10573000214B1A6F22F001021A671A6F22F004023D
:105740001A67A368002B3DD0FEF7EAFA06461A4B0B
:105750001B6F13F0020F46D1FEF7E2FA801B41F2F5
:1057600088339842F3D90320C6E00025D6E7144ACF
:10577000136843F480731360FEF7D2FA0646104BA9
:105780001B6813F4807FCED1FEF7CAFA801B022873
:10579000F5D90320B0E0084A136F43F00103136703
:1057A000CFE7054B1A6F42F004021A671A6F42F0F6
:1057B00001021A67C5E700BF0038024000004742F7
:1057C00000700040FEF7ACFA0646524B1B6F13F018
:1057D000020F08D0FEF7A4FA801B41F288339842EA
:1057E000F3D9032088E0EDB9A369002B00F0838092
:1057F000484A926802F00C02082A51D0022B17D0B6
:10580000454B00221A66FEF78BFA0446414B1B6893
:1058100013F0007F42D0FEF783FA001B0228F5D96F
:10582000032069E03B4A136C23F080531364DBE7E9
:10583000394B00221A66FEF773FA0546354B1B6892
:1058400013F0007F06D0FEF76BFA401B0228F5D953
:10585000032051E0E369226A1343626A43EA821338
:10586000A26A5208013A43EA0243E26A43EA026347
:10587000284A5360284B01221A66FEF751FA044663
:10588000244B1B6813F0007F06D1FEF749FA001B7A
:105890000228F5D903202FE000202DE000202BE086
:1058A000012B2BD01B4B5B6803F48001E269914212
:1058B00026D103F03F02216A8A4223D1616A47F66A
:1058C000C0721A40B2EB811F1ED103F44031A26AAC
:1058D0005208013AB1EB024F18D103F07063E26A4B
:1058E000B3EB026F14D1002006E0012070470120C5
:1058F00002E0012000E0002002B070BD0120FBE7C3
:105900000120F9E70120F7E70120F5E70120F3E79F
:105910000120F1E7003802400000474208B5254B5E
:105920009B6803F00C03042B3FD0082B3FD1214B85
:105930005A6802F03F025B6813F4800F12D01D4BCF
:105940005968C1F388111C480023A1FB0001FBF733
:10595000D1FB184B5B68C3F3014301335B00B0FB21
:10596000F3F025E0134B5968C1F3881C4FEA4C1142
:10597000B1EB0C006EEB0E0E4FEA8E1343EA906310
:105980008101091A63EB0E03DB0043EA5173C9007E
:1059900011EB0C0C43F10003990200234FEA8C2019
:1059A00041EA9C51FBF7A6FBD3E7034800E003481C
:1059B00008BD00BF00380240001BB7000024F400FF
:1059C000002800F09B8070B50D4604464F4B1B68C5
:1059D00003F00F038B4208D2CBB24C4A137013680A
:1059E00003F00F038B4240F08B80236813F0020F0B
:1059F00017D013F0040F04D0454A936843F4E053E2
:105A00009360236813F0080F04D0414A936843F46D
:105A1000604393603E4A936823F0F003A1680B4310
:105A20009360236813F0010F32D06368012B21D0FB
:105A30009A1E012A25D9364A126812F0020F61D047
:105A400033498A6822F0030213438B60FEF768F93A
:105A500006462F4B9B6803F00C036268B3EB820F82
:105A600016D0FEF75DF9801B41F288339842F0D9D9
:105A7000032042E0264A126812F4003FE0D10120E0
:105A80003BE0234A126812F0007FD9D1012034E0B4
:105A90001E4B1B6803F00F03AB4207D9EAB21B4B46
:105AA0001A701B6803F00F03AB422DD1236813F06B
:105AB000040F06D0164A936823F4E053E1680B43C1
:105AC0009360236813F0080F07D0114A936823F4FA
:105AD0006043216943EAC1039360FFF71FFF0C4B4A
:105AE0009B68C3F303130B4AD35CD8400A4B18607E
